{"contracts/OmniPayNotifier.sol":{"OmniPayNotifier":{"abi":[{"inputs":[{"internalType":"address","name":"_pushComm","type":"address"},{"internalType":"address","name":"_channel","type":"address"}],"stateMutability":"nonpayable","type":"constructor"},{"anonymous":false,"inputs":[{"indexed":true,"internalType":"uint256","name":"subId","type":"uint256"},{"indexed":true,"internalType":"address","name":"subscriber","type":"address"},{"indexed":true,"internalType":"address","name":"merchant","type":"address"},{"indexed":false,"internalType":"uint256","name":"amount","type":"uint256"},{"indexed":false,"internalType":"uint256","name":"nextPaymentDue","type":"uint256"}],"name":"BeforeRenewal","type":"event"},{"anonymous":false,"inputs":[{"indexed":true,"internalType":"address","name":"pushComm","type":"address"},{"indexed":true,"internalType":"address","name":"channel","type":"address"}],"name":"NotifierConfigured","type":"event"},{"anonymous":false,"inputs":[{"indexed":true,"internalType":"address","name":"previousOwner","type":"address"},{"indexed":true,"internalType":"address","name":"newOwner","type":"address"}],"name":"OwnershipTransferred","type":"event"},{"anonymous":false,"inputs":[{"indexed":true,"internalType":"address","name":"payer","type":"address"},{"indexed":true,"internalType":"address","name":"payee","type":"address"},{"indexed":true,"internalType":"address","name":"token","type":"address"},{"indexed":false,"internalType":"uint256","name":"amount","type":"uint256"},{"indexed":false,"internalType":"string","name":"paymentRef","type":"string"},{"indexed":false,"internalType":"string","name":"reason","type":"string"}],"name":"PaymentFailure","type":"event"},{"anonymous":false,"inputs":[{"indexed":true,"internalType":"address","name":"payer","type":"address"},{"indexed":true,"internalType":"address","name":"payee","type":"address"},{"indexed":true,"internalType":"address","name":"token","type":"address"},{"indexed":false,"internalType":"uint256","name":"amount","type":"uint256"},{"indexed":false,"internalType":"string","name":"paymentRef","type":"string"}],"name":"PaymentSuccess","type":"event"},{"anonymous":false,"inputs":[{"indexed":true,"internalType":"address","name":"recipient","type":"address"},{"indexed":false,"internalType":"bool","name":"success","type":"bool"},{"indexed":false,"internalType":"bytes","name":"identity","type":"bytes"}],"name":"PushAttempt","type":"event"},{"anonymous":false,"inputs":[{"indexed":true,"internalType":"uint256","name":"subId","type":"uint256"},{"indexed":true,"internalType":"address","name":"subscriber","type":"address"},{"indexed":true,"internalType":"address","name":"merchant","type":"address"}],"name":"SubscriptionCancelled","type":"event"},{"anonymous":false,"inputs":[{"indexed":true,"internalType":"uint256","name":"subId","type":"uint256"},{"indexed":true,"internalType":"address","name":"subscriber","type":"address"},{"indexed":true,"internalType":"address","name":"merchant","type":"address"},{"indexed":false,"internalType":"address","name":"token","type":"address"},{"indexed":false,"internalType":"uint256","name":"amount","type":"uint256"},{"indexed":false,"internalType":"uint256","name":"nextPaymentDue","type":"uint256"}],"name":"SubscriptionExecuted","type":"event"},{"inputs":[],"name":"channel","outputs":[{"internalType":"address","name":"","type":"address"}],"stateMutability":"view","type":"function"},{"inputs":[{"internalType":"uint256","name":"subId","type":"uint256"},{"internalType":"address","name":"subscriber","type":"address"},{"internalType":"address","name":"merchant","type":"address"},{"internalType":"uint256","name":"amount","type":"uint256"},{"internalType":"uint256","name":"nextPaymentDue","type":"uint256"}],"name":"notifyBeforeRenewal","outputs":[],"stateMutability":"nonpayable","type":"function"},{"inputs":[{"internalType":"address","name":"payer","type":"address"},{"internalType":"address","name":"payee","type":"address"},{"internalType":"address","name":"token","type":"address"},{"internalType":"uint256","name":"amount","type":"uint256"},{"internalType":"string","name":"paymentRef","type":"string"},{"internalType":"string","name":"reason","type":"string"}],"name":"notifyPaymentFailure","outputs":[],"stateMutability":"nonpayable","type":"function"},{"inputs":[{"internalType":"address","name":"payer","type":"address"},{"internalType":"address","name":"payee","type":"address"},{"internalType":"address","name":"token","type":"address"},{"internalType":"uint256","name":"amount","type":"uint256"},{"internalType":"string","name":"paymentRef","type":"string"}],"name":"notifyPaymentSuccess","outputs":[],"stateMutability":"nonpayable","type":"function"},{"inputs":[{"internalType":"uint256","name":"subId","type":"uint256"},{"internalType":"address","name":"subscriber","type":"address"},{"internalType":"address","name":"merchant","type":"address"}],"name":"notifySubscriptionCancelled","outputs":[],"stateMutability":"nonpayable","type":"function"},{"inputs":[{"internalType":"uint256","name":"subId","type":"uint256"},{"internalType":"address","name":"subscriber","type":"address"},{"internalType":"address","name":"merchant","type":"address"},{"internalType":"address","name":"token","type":"address"},{"internalType":"uint256","name":"amount","type":"uint256"},{"internalType":"uint256","name":"nextPaymentDue","type":"uint256"}],"name":"notifySubscriptionExecuted","outputs":[],"stateMutability":"nonpayable","type":"function"},{"inputs":[],"name":"owner","outputs":[{"internalType":"address","name":"","type":"address"}],"stateMutability":"view","type":"function"},{"inputs":[],"name":"pushComm","outputs":[{"internalType":"contract IPUSHCommInterface","name":"","type":"address"}],"stateMutability":"view","type":"function"},{"inputs":[],"name":"renounceOwnership","outputs":[],"stateMutability":"nonpayable","type":"function"},{"inputs":[{"internalType":"address","name":"_channel","type":"address"}],"name":"setChannel","outputs":[],"stateMutability":"nonpayable","type":"function"},{"inputs":[{"internalType":"address","name":"_pushComm","type":"address"}],"name":"setPushComm","outputs":[],"stateMutability":"nonpayable","type":"function"},{"inputs":[{"internalType":"address","name":"newOwner","type":"address"}],"name":"transferOwnership","outputs":[],"stateMutability":"nonpayable","type":"function"}],"evm":{"bytecode":{"linkReferences":{},"object":"608060405234801561001057600080fd5b5060405161107438038061107483398101604081905261002f91610123565b610038336100b7565b6001600160a01b0382161561006357600180546001600160a01b0319166001600160a01b0384161790555b600280546001600160a01b0319166001600160a01b0383811691821790925560405190918416907fdf0272c5e2272d89e8ff394fc4e38be01bdb873515a7ba3f29ede6939fd17a3c90600090a35050610156565b600080546001600160a01b038381166001600160a01b0319831681178455604051919092169283917f8be0079c531659141344cd1fd0a4f28419497f9722a3daafe3b4186f6b6457e09190a35050565b80516001600160a01b038116811461011e57600080fd5b919050565b6000806040838503121561013657600080fd5b61013f83610107565b915061014d60208401610107565b90509250929050565b610f0f806101656000396000f3fe608060405234801561001057600080fd5b50600436106100b35760003560e01c80637bbdb96e116100715780637bbdb96e146101215780638da5cb5b146101505780638ff75d8c14610161578063a5e9b76214610174578063bc61495b14610187578063f2fde38b1461019a57600080fd5b80620bc302146100b85780630ecff21e146100cd57806321c726c7146100e05780632e0eb974146100f35780636b7ce08114610106578063715018a614610119575b600080fd5b6100cb6100c6366004610a6f565b6101ad565b005b6100cb6100db366004610ace565b6102c8565b6100cb6100ee366004610b65565b610391565b6100cb610101366004610c10565b6104cc565b6100cb610114366004610c32565b610525565b6100cb610630565b600254610134906001600160a01b031681565b6040516001600160a01b03909116815260200160405180910390f35b6000546001600160a01b0316610134565b6100cb61016f366004610c10565b610644565b6100cb610182366004610c6e565b61069e565b600154610134906001600160a01b031681565b6100cb6101a8366004610c10565b6107af565b604080516001600160a01b038581168252602082018590529181018390528186169187169088907f382da987c537ddd3bb60966d3607c14100d418d0fe9102d36803f333d69208509060600160405180910390a46102728561026d6040518060400160405280601181526020017014dd589cd8dc9a5c1d1a5bdb8814185a59607a1b8152506040518060400160405280601e81526020017f596f757220737562736372697074696f6e2077617320636861726765642e000081525061082d565b61085c565b6102c08461026d6040518060400160405280601081526020016f14185e5b595b9d08149958d95a5d995960821b815250604051806060016040528060248152602001610e686024913961082d565b505050505050565b826001600160a01b0316846001600160a01b0316867f891873c245759b71b614be67d4a1284cb5e122d828af84aeefb68ba1122a1c9e8585604051610317929190918252602082015260400190565b60405180910390a461038a8461026d6040518060400160405280601081526020016f52656e6577616c207570636f6d696e6760801b8152506040518060400160405280601e81526020017f596f757220737562736372697074696f6e2069732064756520736f6f6e2e000081525061082d565b5050505050565b856001600160a01b0316876001600160a01b0316896001600160a01b03167fc26692ab7eede0829cb931f5593d1d26e42428370601a2f8cb4b2cf94312729588888888886040516103e6959493929190610d16565b60405180910390a46104588861026d6040518060400160405280600e81526020016d14185e5b595b9d0811985a5b195960921b81525085858080601f01602080910402602001604051908101604052809392919081815260200183838082843760009201919091525061082d92505050565b6104c28761026d6040518060400160405280600e81526020016d14185e5b595b9d0811985a5b195960921b81525085858080601f01602080910402602001604051908101604052809392919081815260200183838082843760009201919091525061082d92505050565b5050505050505050565b6104d46109a9565b600180546001600160a01b0319166001600160a01b038381169182179092556002546040519216917fdf0272c5e2272d89e8ff394fc4e38be01bdb873515a7ba3f29ede6939fd17a3c90600090a350565b806001600160a01b0316826001600160a01b0316847f8b143fab101681a84d31f59bde0822fdc5f999c709e0f1e85b0916c6ddc5bc5960405160405180910390a46105d78261026d6040518060400160405280601681526020017514dd589cd8dc9a5c1d1a5bdb8810d85b98d95b1b195960521b8152506040518060400160405280602081526020017f596f752063616e63656c6c656420796f757220737562736372697074696f6e2e81525061082d565b61062b8161026d6040518060400160405280601681526020017514dd589cd8dc9a5c1d1a5bdb8810d85b98d95b1b195960521b8152506040518060600160405280602a8152602001610eb0602a913961082d565b505050565b6106386109a9565b6106426000610a03565b565b61064c6109a9565b600280546001600160a01b0319166001600160a01b03838116918217909255600154604051919216907fdf0272c5e2272d89e8ff394fc4e38be01bdb873515a7ba3f29ede6939fd17a3c90600090a350565b836001600160a01b0316856001600160a01b0316876001600160a01b03167fe35b501a850ee55332bf338c3bd20d0f8add9a9b249d72be7fdb379ac4f330038686866040516106ef93929190610d4f565b60405180910390a46107448661026d6040518060400160405280600f81526020016e5061796d656e74205375636365737360881b815250604051806060016040528060248152602001610e8c6024913961082d565b6102c08561026d6040518060400160405280601081526020016f14185e5b595b9d08149958d95a5d995960821b8152506040518060400160405280601781526020017f596f752072656365697665642061207061796d656e742e00000000000000000081525061082d565b6107b76109a9565b6001600160a01b0381166108215760405162461bcd60e51b815260206004820152602660248201527f4f776e61626c653a206e6577206f776e657220697320746865207a65726f206160448201526564647265737360d01b60648201526084015b60405180910390fd5b61082a81610a03565b50565b606060008383604051602001610844929190610d96565b60408051808303601f19018152919052949350505050565b6001546001600160a01b0316158061087d57506002546001600160a01b0316155b156108ca57816001600160a01b03167faf99e2609b71c1f59d4a76b96f586eab13857bdde73b3f1a6cc634ee401cb3be6000836040516108be929190610e18565b60405180910390a25050565b60015460025460405163ba3d69d760e01b81526001600160a01b039283169263ba3d69d7926109029291169086908690600401610e3b565b600060405180830381600087803b15801561091c57600080fd5b505af192505050801561092d575060015b61096d57816001600160a01b03167faf99e2609b71c1f59d4a76b96f586eab13857bdde73b3f1a6cc634ee401cb3be6000836040516108be929190610e18565b816001600160a01b03167faf99e2609b71c1f59d4a76b96f586eab13857bdde73b3f1a6cc634ee401cb3be6001836040516108be929190610e18565b6000546001600160a01b031633146106425760405162461bcd60e51b815260206004820181905260248201527f4f776e61626c653a2063616c6c6572206973206e6f7420746865206f776e65726044820152606401610818565b600080546001600160a01b038381166001600160a01b0319831681178455604051919092169283917f8be0079c531659141344cd1fd0a4f28419497f9722a3daafe3b4186f6b6457e09190a35050565b80356001600160a01b0381168114610a6a57600080fd5b919050565b60008060008060008060c08789031215610a8857600080fd5b86359550610a9860208801610a53565b9450610aa660408801610a53565b9350610ab460608801610a53565b92506080870135915060a087013590509295509295509295565b600080600080600060a08688031215610ae657600080fd5b85359450610af660208701610a53565b9350610b0460408701610a53565b94979396509394606081013594506080013592915050565b60008083601f840112610b2e57600080fd5b50813567ffffffffffffffff811115610b4657600080fd5b602083019150836020828501011115610b5e57600080fd5b9250929050565b60008060008060008060008060c0898b031215610b8157600080fd5b610b8a89610a53565b9750610b9860208a01610a53565b9650610ba660408a01610a53565b955060608901359450608089013567ffffffffffffffff80821115610bca57600080fd5b610bd68c838d01610b1c565b909650945060a08b0135915080821115610bef57600080fd5b50610bfc8b828c01610b1c565b999c989b5096995094979396929594505050565b600060208284031215610c2257600080fd5b610c2b82610a53565b9392505050565b600080600060608486031215610c4757600080fd5b83359250610c5760208501610a53565b9150610c6560408501610a53565b90509250925092565b60008060008060008060a08789031215610c8757600080fd5b610c9087610a53565b9550610c9e60208801610a53565b9450610cac60408801610a53565b935060608701359250608087013567ffffffffffffffff811115610ccf57600080fd5b610cdb89828a01610b1c565b979a9699509497509295939492505050565b81835281816020850137506000828201602090810191909152601f909101601f19169091010190565b858152606060208201526000610d30606083018688610ced565b8281036040840152610d43818587610ced565b98975050505050505050565b838152604060208201526000610d69604083018486610ced565b95945050505050565b60005b83811015610d8d578181015183820152602001610d75565b50506000910152565b663a34ba36329d1d60c91b815260008351610db8816007850160208801610d72565b673e3e3137b23c9d1d60c11b6007918401918201528351610de081600f840160208801610d72565b01600f01949350505050565b60008151808452610e04816020860160208601610d72565b601f01601f19169290920160200192915050565b8215158152604060208201526000610e336040830184610dec565b949350505050565b6001600160a01b03848116825283166020820152606060408201819052600090610d6990830184610dec56fe4120737562736372697074696f6e207061796d656e74207761732072656365697665642e596f7572207061796d656e7420636f6d706c65746564207375636365737366756c6c792e4120737562736372696265722063616e63656c6c656420746865697220737562736372697074696f6e2ea2646970667358221220bdc3d14671e7d1db3ffd1ca7a160589a35ad0d2eb824f15887a25bc9b18c3a5b64736f6c63430008140033","opcodes":"PUSH1 0x80 PUSH1 0x40 MSTORE CALLVALUE DUP1 ISZERO PUSH2 0x10 JUMPI PUSH1 0x0 DUP1 REVERT JUMPDEST POP PUSH1 0x40 MLOAD PUSH2 0x1074 CODESIZE SUB DUP1 PUSH2 0x1074 DUP4 CODECOPY DUP2 ADD PUSH1 0x40 DUP2 SWAP1 MSTORE PUSH2 0x2F SWAP2 PUSH2 0x123 JUMP JUMPDEST PUSH2 0x38 CALLER PUSH2 0xB7 JUMP JUMPDEST PUSH1 0x1 PUSH1 0x1 PUSH1 0xA0 SHL SUB DUP3 AND ISZERO PUSH2 0x63 JUMPI PUSH1 0x1 DUP1 SLOAD PUSH1 0x1 PUSH1 0x1 PUSH1 0xA0 SHL SUB NOT AND PUSH1 0x1 PUSH1 0x1 PUSH1 0xA0 SHL SUB DUP5 AND OR SWAP1 SSTORE JUMPDEST PUSH1 0x2 DUP1 SLOAD PUSH1 0x1 PUSH1 0x1 PUSH1 0xA0 SHL SUB NOT AND PUSH1 0x1 PUSH1 0x1 PUSH1 0xA0 SHL SUB DUP4 DUP2 AND SWAP2 DUP3 OR SWAP1 SWAP3 SSTORE PUSH1 0x40 MLOAD SWAP1 SWAP2 DUP5 AND SWAP1 PUSH32 0xDF0272C5E2272D89E8FF394FC4E38BE01BDB873515A7BA3F29EDE6939FD17A3C SWAP1 PUSH1 0x0 SWAP1 LOG3 POP POP PUSH2 0x156 JUMP JUMPDEST PUSH1 0x0 DUP1 SLOAD PUSH1 0x1 PUSH1 0x1 PUSH1 0xA0 SHL SUB DUP4 DUP2 AND PUSH1 0x1 PUSH1 0x1 PUSH1 0xA0 SHL SUB NOT DUP4 AND DUP2 OR DUP5 SSTORE PUSH1 0x40 MLOAD SWAP2 SWAP1 SWAP3 AND SWAP3 DUP4 SWAP2 PUSH32 0x8BE0079C531659141344CD1FD0A4F28419497F9722A3DAAFE3B4186F6B6457E0 SWAP2 SWAP1 LOG3 POP POP JUMP JUMPDEST DUP1 MLOAD PUSH1 0x1 PUSH1 0x1 PUSH1 0xA0 SHL SUB DUP2 AND DUP2 EQ PUSH2 0x11E JUMPI PUSH1 0x0 DUP1 REVERT JUMPDEST SWAP2 SWAP1 POP JUMP JUMPDEST PUSH1 0x0 DUP1 PUSH1 0x40 DUP4 DUP6 SUB SLT ISZERO PUSH2 0x136 JUMPI PUSH1 0x0 DUP1 REVERT JUMPDEST PUSH2 0x13F DUP4 PUSH2 0x107 JUMP JUMPDEST SWAP2 POP PUSH2 0x14D PUSH1 0x20 DUP5 ADD PUSH2 0x107 JUMP JUMPDEST SWAP1 POP SWAP3 POP SWAP3 SWAP1 POP JUMP JUMPDEST PUSH2 0xF0F DUP1 PUSH2 0x165 PUSH1 0x0 CODECOPY PUSH1 0x0 RETURN INVALID PUSH1 0x80 PUSH1 0x40 MSTORE CALLVALUE DUP1 ISZERO PUSH2 0x10 JUMPI PUSH1 0x0 DUP1 REVERT JUMPDEST POP PUSH1 0x4 CALLDATASIZE LT PUSH2 0xB3 JUMPI PUSH1 0x0 CALLDATALOAD PUSH1 0xE0 SHR DUP1 PUSH4 0x7BBDB96E GT PUSH2 0x71 JUMPI DUP1 PUSH4 0x7BBDB96E EQ PUSH2 0x121 JUMPI DUP1 PUSH4 0x8DA5CB5B EQ PUSH2 0x150 JUMPI DUP1 PUSH4 0x8FF75D8C EQ PUSH2 0x161 JUMPI DUP1 PUSH4 0xA5E9B762 EQ PUSH2 0x174 JUMPI DUP1 PUSH4 0xBC61495B EQ PUSH2 0x187 JUMPI DUP1 PUSH4 0xF2FDE38B EQ PUSH2 0x19A JUMPI PUSH1 0x0 DUP1 REVERT JUMPDEST DUP1 PUSH3 0xBC302 EQ PUSH2 0xB8 JUMPI DUP1 PUSH4 0xECFF21E EQ PUSH2 0xCD JUMPI DUP1 PUSH4 0x21C726C7 EQ PUSH2 0xE0 JUMPI DUP1 PUSH4 0x2E0EB974 EQ PUSH2 0xF3 JUMPI DUP1 PUSH4 0x6B7CE081 EQ PUSH2 0x106 JUMPI DUP1 PUSH4 0x715018A6 EQ PUSH2 0x119 JUMPI JUMPDEST PUSH1 0x0 DUP1 REVERT JUMPDEST PUSH2 0xCB PUSH2 0xC6 CALLDATASIZE PUSH1 0x4 PUSH2 0xA6F JUMP JUMPDEST PUSH2 0x1AD JUMP JUMPDEST STOP JUMPDEST PUSH2 0xCB PUSH2 0xDB CALLDATASIZE PUSH1 0x4 PUSH2 0xACE JUMP JUMPDEST PUSH2 0x2C8 JUMP JUMPDEST PUSH2 0xCB PUSH2 0xEE CALLDATASIZE PUSH1 0x4 PUSH2 0xB65 JUMP JUMPDEST PUSH2 0x391 JUMP JUMPDEST PUSH2 0xCB PUSH2 0x101 CALLDATASIZE PUSH1 0x4 PUSH2 0xC10 JUMP JUMPDEST PUSH2 0x4CC JUMP JUMPDEST PUSH2 0xCB PUSH2 0x114 CALLDATASIZE PUSH1 0x4 PUSH2 0xC32 JUMP JUMPDEST PUSH2 0x525 JUMP JUMPDEST PUSH2 0xCB PUSH2 0x630 JUMP JUMPDEST PUSH1 0x2 SLOAD PUSH2 0x134 SWAP1 PUSH1 0x1 PUSH1 0x1 PUSH1 0xA0 SHL SUB AND DUP2 JUMP JUMPDEST PUSH1 0x40 MLOAD PUSH1 0x1 PUSH1 0x1 PUSH1 0xA0 SHL SUB SWAP1 SWAP2 AND DUP2 MSTORE PUSH1 0x20 ADD PUSH1 0x40 MLOAD DUP1 SWAP2 SUB SWAP1 RETURN JUMPDEST PUSH1 0x0 SLOAD PUSH1 0x1 PUSH1 0x1 PUSH1 0xA0 SHL SUB AND PUSH2 0x134 JUMP JUMPDEST PUSH2 0xCB PUSH2 0x16F CALLDATASIZE PUSH1 0x4 PUSH2 0xC10 JUMP JUMPDEST PUSH2 0x644 JUMP JUMPDEST PUSH2 0xCB PUSH2 0x182 CALLDATASIZE PUSH1 0x4 PUSH2 0xC6E JUMP JUMPDEST PUSH2 0x69E JUMP JUMPDEST PUSH1 0x1 SLOAD PUSH2 0x134 SWAP1 PUSH1 0x1 PUSH1 0x1 PUSH1 0xA0 SHL SUB AND DUP2 JUMP JUMPDEST PUSH2 0xCB PUSH2 0x1A8 CALLDATASIZE PUSH1 0x4 PUSH2 0xC10 JUMP JUMPDEST PUSH2 0x7AF JUMP JUMPDEST PUSH1 0x40 DUP1 MLOAD PUSH1 0x1 PUSH1 0x1 PUSH1 0xA0 SHL SUB DUP6 DUP2 AND DUP3 MSTORE PUSH1 0x20 DUP3 ADD DUP6 SWAP1 MSTORE SWAP2 DUP2 ADD DUP4 SWAP1 MSTORE DUP2 DUP7 AND SWAP2 DUP8 AND SWAP1 DUP9 SWAP1 PUSH32 0x382DA987C537DDD3BB60966D3607C14100D418D0FE9102D36803F333D6920850 SWAP1 PUSH1 0x60 ADD PUSH1 0x40 MLOAD DUP1 SWAP2 SUB SWAP1 LOG4 PUSH2 0x272 DUP6 PUSH2 0x26D PUSH1 0x40 MLOAD DUP1 PUSH1 0x40 ADD PUSH1 0x40 MSTORE DUP1 PUSH1 0x11 DUP2 MSTORE PUSH1 0x20 ADD PUSH17 0x14DD589CD8DC9A5C1D1A5BDB8814185A59 PUSH1 0x7A SHL DUP2 MSTORE POP PUSH1 0x40 MLOAD DUP1 PUSH1 0x40 ADD PUSH1 0x40 MSTORE DUP1 PUSH1 0x1E DUP2 MSTORE PUSH1 0x20 ADD PUSH32 0x596F757220737562736372697074696F6E2077617320636861726765642E0000 DUP2 MSTORE POP PUSH2 0x82D JUMP JUMPDEST PUSH2 0x85C JUMP JUMPDEST PUSH2 0x2C0 DUP5 PUSH2 0x26D PUSH1 0x40 MLOAD DUP1 PUSH1 0x40 ADD PUSH1 0x40 MSTORE DUP1 PUSH1 0x10 DUP2 MSTORE PUSH1 0x20 ADD PUSH16 0x14185E5B595B9D08149958D95A5D9959 PUSH1 0x82 SHL DUP2 MSTORE POP PUSH1 0x40 MLOAD DUP1 PUSH1 0x60 ADD PUSH1 0x40 MSTORE DUP1 PUSH1 0x24 DUP2 MSTORE PUSH1 0x20 ADD PUSH2 0xE68 PUSH1 0x24 SWAP2 CODECOPY PUSH2 0x82D JUMP JUMPDEST POP POP POP POP POP POP JUMP JUMPDEST DUP3 PUSH1 0x1 PUSH1 0x1 PUSH1 0xA0 SHL SUB AND DUP5 PUSH1 0x1 PUSH1 0x1 PUSH1 0xA0 SHL SUB AND DUP7 PUSH32 0x891873C245759B71B614BE67D4A1284CB5E122D828AF84AEEFB68BA1122A1C9E DUP6 DUP6 PUSH1 0x40 MLOAD PUSH2 0x317 SWAP3 SWAP2 SWAP1 SWAP2 DUP3 MSTORE PUSH1 0x20 DUP3 ADD MSTORE PUSH1 0x40 ADD SWAP1 JUMP JUMPDEST PUSH1 0x40 MLOAD DUP1 SWAP2 SUB SWAP1 LOG4 PUSH2 0x38A DUP5 PUSH2 0x26D PUSH1 0x40 MLOAD DUP1 PUSH1 0x40 ADD PUSH1 0x40 MSTORE DUP1 PUSH1 0x10 DUP2 MSTORE PUSH1 0x20 ADD PUSH16 0x52656E6577616C207570636F6D696E67 PUSH1 0x80 SHL DUP2 MSTORE POP PUSH1 0x40 MLOAD DUP1 PUSH1 0x40 ADD PUSH1 0x40 MSTORE DUP1 PUSH1 0x1E DUP2 MSTORE PUSH1 0x20 ADD PUSH32 0x596F757220737562736372697074696F6E2069732064756520736F6F6E2E0000 DUP2 MSTORE POP PUSH2 0x82D JUMP JUMPDEST POP POP POP POP POP JUMP JUMPDEST DUP6 PUSH1 0x1 PUSH1 0x1 PUSH1 0xA0 SHL SUB AND DUP8 PUSH1 0x1 PUSH1 0x1 PUSH1 0xA0 SHL SUB AND DUP10 PUSH1 0x1 PUSH1 0x1 PUSH1 0xA0 SHL SUB AND PUSH32 0xC26692AB7EEDE0829CB931F5593D1D26E42428370601A2F8CB4B2CF943127295 DUP9 DUP9 DUP9 DUP9 DUP9 PUSH1 0x40 MLOAD PUSH2 0x3E6 SWAP6 SWAP5 SWAP4 SWAP3 SWAP2 SWAP1 PUSH2 0xD16 JUMP JUMPDEST PUSH1 0x40 MLOAD DUP1 SWAP2 SUB SWAP1 LOG4 PUSH2 0x458 DUP9 PUSH2 0x26D PUSH1 0x40 MLOAD DUP1 PUSH1 0x40 ADD PUSH1 0x40 MSTORE DUP1 PUSH1 0xE DUP2 MSTORE PUSH1 0x20 ADD PUSH14 0x14185E5B595B9D0811985A5B1959 PUSH1 0x92 SHL DUP2 MSTORE POP DUP6 DUP6 DUP1 DUP1 PUSH1 0x1F ADD PUSH1 0x20 DUP1 SWAP2 DIV MUL PUSH1 0x20 ADD PUSH1 0x40 MLOAD SWAP1 DUP2 ADD PUSH1 0x40 MSTORE DUP1 SWAP4 SWAP3 SWAP2 SWAP1 DUP2 DUP2 MSTORE PUSH1 0x20 ADD DUP4 DUP4 DUP1 DUP3 DUP5 CALLDATACOPY PUSH1 0x0 SWAP3 ADD SWAP2 SWAP1 SWAP2 MSTORE POP PUSH2 0x82D SWAP3 POP POP POP JUMP JUMPDEST PUSH2 0x4C2 DUP8 PUSH2 0x26D PUSH1 0x40 MLOAD DUP1 PUSH1 0x40 ADD PUSH1 0x40 MSTORE DUP1 PUSH1 0xE DUP2 MSTORE PUSH1 0x20 ADD PUSH14 0x14185E5B595B9D0811985A5B1959 PUSH1 0x92 SHL DUP2 MSTORE POP DUP6 DUP6 DUP1 DUP1 PUSH1 0x1F ADD PUSH1 0x20 DUP1 SWAP2 DIV MUL PUSH1 0x20 ADD PUSH1 0x40 MLOAD SWAP1 DUP2 ADD PUSH1 0x40 MSTORE DUP1 SWAP4 SWAP3 SWAP2 SWAP1 DUP2 DUP2 MSTORE PUSH1 0x20 ADD DUP4 DUP4 DUP1 DUP3 DUP5 CALLDATACOPY PUSH1 0x0 SWAP3 ADD SWAP2 SWAP1 SWAP2 MSTORE POP PUSH2 0x82D SWAP3 POP POP POP JUMP JUMPDEST POP POP POP POP POP POP POP POP JUMP JUMPDEST PUSH2 0x4D4 PUSH2 0x9A9 JUMP JUMPDEST PUSH1 0x1 DUP1 SLOAD PUSH1 0x1 PUSH1 0x1 PUSH1 0xA0 SHL SUB NOT AND PUSH1 0x1 PUSH1 0x1 PUSH1 0xA0 SHL SUB DUP4 DUP2 AND SWAP2 DUP3 OR SWAP1 SWAP3 SSTORE PUSH1 0x2 SLOAD PUSH1 0x40 MLOAD SWAP3 AND SWAP2 PUSH32 0xDF0272C5E2272D89E8FF394FC4E38BE01BDB873515A7BA3F29EDE6939FD17A3C SWAP1 PUSH1 0x0 SWAP1 LOG3 POP JUMP JUMPDEST DUP1 PUSH1 0x1 PUSH1 0x1 PUSH1 0xA0 SHL SUB AND DUP3 PUSH1 0x1 PUSH1 0x1 PUSH1 0xA0 SHL SUB AND DUP5 PUSH32 0x8B143FAB101681A84D31F59BDE0822FDC5F999C709E0F1E85B0916C6DDC5BC59 PUSH1 0x40 MLOAD PUSH1 0x40 MLOAD DUP1 SWAP2 SUB SWAP1 LOG4 PUSH2 0x5D7 DUP3 PUSH2 0x26D PUSH1 0x40 MLOAD DUP1 PUSH1 0x40 ADD PUSH1 0x40 MSTORE DUP1 PUSH1 0x16 DUP2 MSTORE PUSH1 0x20 ADD PUSH22 0x14DD589CD8DC9A5C1D1A5BDB8810D85B98D95B1B1959 PUSH1 0x52 SHL DUP2 MSTORE POP PUSH1 0x40 MLOAD DUP1 PUSH1 0x40 ADD PUSH1 0x40 MSTORE DUP1 PUSH1 0x20 DUP2 MSTORE PUSH1 0x20 ADD PUSH32 0x596F752063616E63656C6C656420796F757220737562736372697074696F6E2E DUP2 MSTORE POP PUSH2 0x82D JUMP JUMPDEST PUSH2 0x62B DUP2 PUSH2 0x26D PUSH1 0x40 MLOAD DUP1 PUSH1 0x40 ADD PUSH1 0x40 MSTORE DUP1 PUSH1 0x16 DUP2 MSTORE PUSH1 0x20 ADD PUSH22 0x14DD589CD8DC9A5C1D1A5BDB8810D85B98D95B1B1959 PUSH1 0x52 SHL DUP2 MSTORE POP PUSH1 0x40 MLOAD DUP1 PUSH1 0x60 ADD PUSH1 0x40 MSTORE DUP1 PUSH1 0x2A DUP2 MSTORE PUSH1 0x20 ADD PUSH2 0xEB0 PUSH1 0x2A SWAP2 CODECOPY PUSH2 0x82D JUMP JUMPDEST POP POP POP JUMP JUMPDEST PUSH2 0x638 PUSH2 0x9A9 JUMP JUMPDEST PUSH2 0x642 PUSH1 0x0 PUSH2 0xA03 JUMP JUMPDEST JUMP JUMPDEST PUSH2 0x64C PUSH2 0x9A9 JUMP JUMPDEST PUSH1 0x2 DUP1 SLOAD PUSH1 0x1 PUSH1 0x1 PUSH1 0xA0 SHL SUB NOT AND PUSH1 0x1 PUSH1 0x1 PUSH1 0xA0 SHL SUB DUP4 DUP2 AND SWAP2 DUP3 OR SWAP1 SWAP3 SSTORE PUSH1 0x1 SLOAD PUSH1 0x40 MLOAD SWAP2 SWAP3 AND SWAP1 PUSH32 0xDF0272C5E2272D89E8FF394FC4E38BE01BDB873515A7BA3F29EDE6939FD17A3C SWAP1 PUSH1 0x0 SWAP1 LOG3 POP JUMP JUMPDEST DUP4 PUSH1 0x1 PUSH1 0x1 PUSH1 0xA0 SHL SUB AND DUP6 PUSH1 0x1 PUSH1 0x1 PUSH1 0xA0 SHL SUB AND DUP8 PUSH1 0x1 PUSH1 0x1 PUSH1 0xA0 SHL SUB AND PUSH32 0xE35B501A850EE55332BF338C3BD20D0F8ADD9A9B249D72BE7FDB379AC4F33003 DUP7 DUP7 DUP7 PUSH1 0x40 MLOAD PUSH2 0x6EF SWAP4 SWAP3 SWAP2 SWAP1 PUSH2 0xD4F JUMP JUMPDEST PUSH1 0x40 MLOAD DUP1 SWAP2 SUB SWAP1 LOG4 PUSH2 0x744 DUP7 PUSH2 0x26D PUSH1 0x40 MLOAD DUP1 PUSH1 0x40 ADD PUSH1 0x40 MSTORE DUP1 PUSH1 0xF DUP2 MSTORE PUSH1 0x20 ADD PUSH15 0x5061796D656E742053756363657373 PUSH1 0x88 SHL DUP2 MSTORE POP PUSH1 0x40 MLOAD DUP1 PUSH1 0x60 ADD PUSH1 0x40 MSTORE DUP1 PUSH1 0x24 DUP2 MSTORE PUSH1 0x20 ADD PUSH2 0xE8C PUSH1 0x24 SWAP2 CODECOPY PUSH2 0x82D JUMP JUMPDEST PUSH2 0x2C0 DUP6 PUSH2 0x26D PUSH1 0x40 MLOAD DUP1 PUSH1 0x40 ADD PUSH1 0x40 MSTORE DUP1 PUSH1 0x10 DUP2 MSTORE PUSH1 0x20 ADD PUSH16 0x14185E5B595B9D08149958D95A5D9959 PUSH1 0x82 SHL DUP2 MSTORE POP PUSH1 0x40 MLOAD DUP1 PUSH1 0x40 ADD PUSH1 0x40 MSTORE DUP1 PUSH1 0x17 DUP2 MSTORE PUSH1 0x20 ADD PUSH32 0x596F752072656365697665642061207061796D656E742E000000000000000000 DUP2 MSTORE POP PUSH2 0x82D JUMP JUMPDEST PUSH2 0x7B7 PUSH2 0x9A9 JUMP JUMPDEST PUSH1 0x1 PUSH1 0x1 PUSH1 0xA0 SHL SUB DUP2 AND PUSH2 0x821 JUMPI PUSH1 0x40 MLOAD PUSH3 0x461BCD PUSH1 0xE5 SHL DUP2 MSTORE PUSH1 0x20 PUSH1 0x4 DUP3 ADD MSTORE PUSH1 0x26 PUSH1 0x24 DUP3 ADD MSTORE PUSH32 0x4F776E61626C653A206E6577206F776E657220697320746865207A65726F2061 PUSH1 0x44 DUP3 ADD MSTORE PUSH6 0x646472657373 PUSH1 0xD0 SHL PUSH1 0x64 DUP3 ADD MSTORE PUSH1 0x84 ADD JUMPDEST PUSH1 0x40 MLOAD DUP1 SWAP2 SUB SWAP1 REVERT JUMPDEST PUSH2 0x82A DUP2 PUSH2 0xA03 JUMP JUMPDEST POP JUMP JUMPDEST PUSH1 0x60 PUSH1 0x0 DUP4 DUP4 PUSH1 0x40 MLOAD PUSH1 0x20 ADD PUSH2 0x844 SWAP3 SWAP2 SWAP1 PUSH2 0xD96 JUMP JUMPDEST PUSH1 0x40 DUP1 MLOAD DUP1 DUP4 SUB PUSH1 0x1F NOT ADD DUP2 MSTORE SWAP2 SWAP1 MSTORE SWAP5 SWAP4 POP POP POP POP JUMP JUMPDEST PUSH1 0x1 SLOAD PUSH1 0x1 PUSH1 0x1 PUSH1 0xA0 SHL SUB AND ISZERO DUP1 PUSH2 0x87D JUMPI POP PUSH1 0x2 SLOAD PUSH1 0x1 PUSH1 0x1 PUSH1 0xA0 SHL SUB AND ISZERO JUMPDEST ISZERO PUSH2 0x8CA JUMPI DUP2 PUSH1 0x1 PUSH1 0x1 PUSH1 0xA0 SHL SUB AND PUSH32 0xAF99E2609B71C1F59D4A76B96F586EAB13857BDDE73B3F1A6CC634EE401CB3BE PUSH1 0x0 DUP4 PUSH1 0x40 MLOAD PUSH2 0x8BE SWAP3 SWAP2 SWAP1 PUSH2 0xE18 JUMP JUMPDEST PUSH1 0x40 MLOAD DUP1 SWAP2 SUB SWAP1 LOG2 POP POP JUMP JUMPDEST PUSH1 0x1 SLOAD PUSH1 0x2 SLOAD PUSH1 0x40 MLOAD PUSH4 0xBA3D69D7 PUSH1 0xE0 SHL DUP2 MSTORE PUSH1 0x1 PUSH1 0x1 PUSH1 0xA0 SHL SUB SWAP3 DUP4 AND SWAP3 PUSH4 0xBA3D69D7 SWAP3 PUSH2 0x902 SWAP3 SWAP2 AND SWAP1 DUP7 SWAP1 DUP7 SWAP1 PUSH1 0x4 ADD PUSH2 0xE3B JUMP JUMPDEST PUSH1 0x0 PUSH1 0x40 MLOAD DUP1 DUP4 SUB DUP2 PUSH1 0x0 DUP8 DUP1 EXTCODESIZE ISZERO DUP1 ISZERO PUSH2 0x91C JUMPI PUSH1 0x0 DUP1 REVERT JUMPDEST POP GAS CALL SWAP3 POP POP POP DUP1 ISZERO PUSH2 0x92D JUMPI POP PUSH1 0x1 JUMPDEST PUSH2 0x96D JUMPI DUP2 PUSH1 0x1 PUSH1 0x1 PUSH1 0xA0 SHL SUB AND PUSH32 0xAF99E2609B71C1F59D4A76B96F586EAB13857BDDE73B3F1A6CC634EE401CB3BE PUSH1 0x0 DUP4 PUSH1 0x40 MLOAD PUSH2 0x8BE SWAP3 SWAP2 SWAP1 PUSH2 0xE18 JUMP JUMPDEST DUP2 PUSH1 0x1 PUSH1 0x1 PUSH1 0xA0 SHL SUB AND PUSH32 0xAF99E2609B71C1F59D4A76B96F586EAB13857BDDE73B3F1A6CC634EE401CB3BE PUSH1 0x1 DUP4 PUSH1 0x40 MLOAD PUSH2 0x8BE SWAP3 SWAP2 SWAP1 PUSH2 0xE18 JUMP JUMPDEST PUSH1 0x0 SLOAD PUSH1 0x1 PUSH1 0x1 PUSH1 0xA0 SHL SUB AND CALLER EQ PUSH2 0x642 JUMPI PUSH1 0x40 MLOAD PUSH3 0x461BCD PUSH1 0xE5 SHL DUP2 MSTORE PUSH1 0x20 PUSH1 0x4 DUP3 ADD DUP2 SWAP1 MSTORE PUSH1 0x24 DUP3 ADD MSTORE PUSH32 0x4F776E61626C653A2063616C6C6572206973206E6F7420746865206F776E6572 PUSH1 0x44 DUP3 ADD MSTORE PUSH1 0x64 ADD PUSH2 0x818 JUMP JUMPDEST PUSH1 0x0 DUP1 SLOAD PUSH1 0x1 PUSH1 0x1 PUSH1 0xA0 SHL SUB DUP4 DUP2 AND PUSH1 0x1 PUSH1 0x1 PUSH1 0xA0 SHL SUB NOT DUP4 AND DUP2 OR DUP5 SSTORE PUSH1 0x40 MLOAD SWAP2 SWAP1 SWAP3 AND SWAP3 DUP4 SWAP2 PUSH32 0x8BE0079C531659141344CD1FD0A4F28419497F9722A3DAAFE3B4186F6B6457E0 SWAP2 SWAP1 LOG3 POP POP JUMP JUMPDEST DUP1 CALLDATALOAD PUSH1 0x1 PUSH1 0x1 PUSH1 0xA0 SHL SUB DUP2 AND DUP2 EQ PUSH2 0xA6A JUMPI PUSH1 0x0 DUP1 REVERT JUMPDEST SWAP2 SWAP1 POP JUMP JUMPDEST PUSH1 0x0 DUP1 PUSH1 0x0 DUP1 PUSH1 0x0 DUP1 PUSH1 0xC0 DUP8 DUP10 SUB SLT ISZERO PUSH2 0xA88 JUMPI PUSH1 0x0 DUP1 REVERT JUMPDEST DUP7 CALLDATALOAD SWAP6 POP PUSH2 0xA98 PUSH1 0x20 DUP9 ADD PUSH2 0xA53 JUMP JUMPDEST SWAP5 POP PUSH2 0xAA6 PUSH1 0x40 DUP9 ADD PUSH2 0xA53 JUMP JUMPDEST SWAP4 POP PUSH2 0xAB4 PUSH1 0x60 DUP9 ADD PUSH2 0xA53 JUMP JUMPDEST SWAP3 POP PUSH1 0x80 DUP8 ADD CALLDATALOAD SWAP2 POP PUSH1 0xA0 DUP8 ADD CALLDATALOAD SWAP1 POP SWAP3 SWAP6 POP SWAP3 SWAP6 POP SWAP3 SWAP6 JUMP JUMPDEST PUSH1 0x0 DUP1 PUSH1 0x0 DUP1 PUSH1 0x0 PUSH1 0xA0 DUP7 DUP9 SUB SLT ISZERO PUSH2 0xAE6 JUMPI PUSH1 0x0 DUP1 REVERT JUMPDEST DUP6 CALLDATALOAD SWAP5 POP PUSH2 0xAF6 PUSH1 0x20 DUP8 ADD PUSH2 0xA53 JUMP JUMPDEST SWAP4 POP PUSH2 0xB04 PUSH1 0x40 DUP8 ADD PUSH2 0xA53 JUMP JUMPDEST SWAP5 SWAP8 SWAP4 SWAP7 POP SWAP4 SWAP5 PUSH1 0x60 DUP2 ADD CALLDATALOAD SWAP5 POP PUSH1 0x80 ADD CALLDATALOAD SWAP3 SWAP2 POP POP JUMP JUMPDEST PUSH1 0x0 DUP1 DUP4 PUSH1 0x1F DUP5 ADD SLT PUSH2 0xB2E JUMPI PUSH1 0x0 DUP1 REVERT JUMPDEST POP DUP2 CALLDATALOAD PUSH8 0xFFFFFFFFFFFFFFFF DUP2 GT ISZERO PUSH2 0xB46 JUMPI PUSH1 0x0 DUP1 REVERT JUMPDEST PUSH1 0x20 DUP4 ADD SWAP2 POP DUP4 PUSH1 0x20 DUP3 DUP6 ADD ADD GT ISZERO PUSH2 0xB5E JUMPI PUSH1 0x0 DUP1 REVERT JUMPDEST SWAP3 POP SWAP3 SWAP1 POP JUMP JUMPDEST PUSH1 0x0 DUP1 PUSH1 0x0 DUP1 PUSH1 0x0 DUP1 PUSH1 0x0 DUP1 PUSH1 0xC0 DUP10 DUP12 SUB SLT ISZERO PUSH2 0xB81 JUMPI PUSH1 0x0 DUP1 REVERT JUMPDEST PUSH2 0xB8A DUP10 PUSH2 0xA53 JUMP JUMPDEST SWAP8 POP PUSH2 0xB98 PUSH1 0x20 DUP11 ADD PUSH2 0xA53 JUMP JUMPDEST SWAP7 POP PUSH2 0xBA6 PUSH1 0x40 DUP11 ADD PUSH2 0xA53 JUMP JUMPDEST SWAP6 POP PUSH1 0x60 DUP10 ADD CALLDATALOAD SWAP5 POP PUSH1 0x80 DUP10 ADD CALLDATALOAD PUSH8 0xFFFFFFFFFFFFFFFF DUP1 DUP3 GT ISZERO PUSH2 0xBCA JUMPI PUSH1 0x0 DUP1 REVERT JUMPDEST PUSH2 0xBD6 DUP13 DUP4 DUP14 ADD PUSH2 0xB1C JUMP JUMPDEST SWAP1 SWAP7 POP SWAP5 POP PUSH1 0xA0 DUP12 ADD CALLDATALOAD SWAP2 POP DUP1 DUP3 GT ISZERO PUSH2 0xBEF JUMPI PUSH1 0x0 DUP1 REVERT JUMPDEST POP PUSH2 0xBFC DUP12 DUP3 DUP13 ADD PUSH2 0xB1C JUMP JUMPDEST SWAP10 SWAP13 SWAP9 SWAP12 POP SWAP7 SWAP10 POP SWAP5 SWAP8 SWAP4 SWAP7 SWAP3 SWAP6 SWAP5 POP POP POP JUMP JUMPDEST PUSH1 0x0 PUSH1 0x20 DUP3 DUP5 SUB SLT ISZERO PUSH2 0xC22 JUMPI PUSH1 0x0 DUP1 REVERT JUMPDEST PUSH2 0xC2B DUP3 PUSH2 0xA53 JUMP JUMPDEST SWAP4 SWAP3 POP POP POP JUMP JUMPDEST PUSH1 0x0 DUP1 PUSH1 0x0 PUSH1 0x60 DUP5 DUP7 SUB SLT ISZERO PUSH2 0xC47 JUMPI PUSH1 0x0 DUP1 REVERT JUMPDEST DUP4 CALLDATALOAD SWAP3 POP PUSH2 0xC57 PUSH1 0x20 DUP6 ADD PUSH2 0xA53 JUMP JUMPDEST SWAP2 POP PUSH2 0xC65 PUSH1 0x40 DUP6 ADD PUSH2 0xA53 JUMP JUMPDEST SWAP1 POP SWAP3 POP SWAP3 POP SWAP3 JUMP JUMPDEST PUSH1 0x0 DUP1 PUSH1 0x0 DUP1 PUSH1 0x0 DUP1 PUSH1 0xA0 DUP8 DUP10 SUB SLT ISZERO PUSH2 0xC87 JUMPI PUSH1 0x0 DUP1 REVERT JUMPDEST PUSH2 0xC90 DUP8 PUSH2 0xA53 JUMP JUMPDEST SWAP6 POP PUSH2 0xC9E PUSH1 0x20 DUP9 ADD PUSH2 0xA53 JUMP JUMPDEST SWAP5 POP PUSH2 0xCAC PUSH1 0x40 DUP9 ADD PUSH2 0xA53 JUMP JUMPDEST SWAP4 POP PUSH1 0x60 DUP8 ADD CALLDATALOAD SWAP3 POP PUSH1 0x80 DUP8 ADD CALLDATALOAD PUSH8 0xFFFFFFFFFFFFFFFF DUP2 GT ISZERO PUSH2 0xCCF JUMPI PUSH1 0x0 DUP1 REVERT JUMPDEST PUSH2 0xCDB DUP10 DUP3 DUP11 ADD PUSH2 0xB1C JUMP JUMPDEST SWAP8 SWAP11 SWAP7 SWAP10 POP SWAP5 SWAP8 POP SWAP3 SWAP6 SWAP4 SWAP5 SWAP3 POP POP POP JUMP JUMPDEST DUP2 DUP4 MSTORE DUP2 DUP2 PUSH1 0x20 DUP6 ADD CALLDATACOPY POP PUSH1 0x0 DUP3 DUP3 ADD PUSH1 0x20 SWAP1 DUP2 ADD SWAP2 SWAP1 SWAP2 MSTORE PUSH1 0x1F SWAP1 SWAP2 ADD PUSH1 0x1F NOT AND SWAP1 SWAP2 ADD ADD SWAP1 JUMP JUMPDEST DUP6 DUP2 MSTORE PUSH1 0x60 PUSH1 0x20 DUP3 ADD MSTORE PUSH1 0x0 PUSH2 0xD30 PUSH1 0x60 DUP4 ADD DUP7 DUP9 PUSH2 0xCED JUMP JUMPDEST DUP3 DUP2 SUB PUSH1 0x40 DUP5 ADD MSTORE PUSH2 0xD43 DUP2 DUP6 DUP8 PUSH2 0xCED JUMP JUMPDEST SWAP9 SWAP8 POP POP POP POP POP POP POP POP JUMP JUMPDEST DUP4 DUP2 MSTORE PUSH1 0x40 PUSH1 0x20 DUP3 ADD MSTORE PUSH1 0x0 PUSH2 0xD69 PUSH1 0x40 DUP4 ADD DUP5 DUP7 PUSH2 0xCED JUMP JUMPDEST SWAP6 SWAP5 POP POP POP POP POP JUMP JUMPDEST PUSH1 0x0 JUMPDEST DUP4 DUP2 LT ISZERO PUSH2 0xD8D JUMPI DUP2 DUP2 ADD MLOAD DUP4 DUP3 ADD MSTORE PUSH1 0x20 ADD PUSH2 0xD75 JUMP JUMPDEST POP POP PUSH1 0x0 SWAP2 ADD MSTORE JUMP JUMPDEST PUSH7 0x3A34BA36329D1D PUSH1 0xC9 SHL DUP2 MSTORE PUSH1 0x0 DUP4 MLOAD PUSH2 0xDB8 DUP2 PUSH1 0x7 DUP6 ADD PUSH1 0x20 DUP9 ADD PUSH2 0xD72 JUMP JUMPDEST PUSH8 0x3E3E3137B23C9D1D PUSH1 0xC1 SHL PUSH1 0x7 SWAP2 DUP5 ADD SWAP2 DUP3 ADD MSTORE DUP4 MLOAD PUSH2 0xDE0 DUP2 PUSH1 0xF DUP5 ADD PUSH1 0x20 DUP9 ADD PUSH2 0xD72 JUMP JUMPDEST ADD PUSH1 0xF ADD SWAP5 SWAP4 POP POP POP POP JUMP JUMPDEST PUSH1 0x0 DUP2 MLOAD DUP1 DUP5 MSTORE PUSH2 0xE04 DUP2 PUSH1 0x20 DUP7 ADD PUSH1 0x20 DUP7 ADD PUSH2 0xD72 JUMP JUMPDEST PUSH1 0x1F ADD PUSH1 0x1F NOT AND SWAP3 SWAP1 SWAP3 ADD PUSH1 0x20 ADD SWAP3 SWAP2 POP POP JUMP JUMPDEST DUP3 ISZERO ISZERO DUP2 MSTORE PUSH1 0x40 PUSH1 0x20 DUP3 ADD MSTORE PUSH1 0x0 PUSH2 0xE33 PUSH1 0x40 DUP4 ADD DUP5 PUSH2 0xDEC JUMP JUMPDEST SWAP5 SWAP4 POP POP POP POP JUMP JUMPDEST PUSH1 0x1 PUSH1 0x1 PUSH1 0xA0 SHL SUB DUP5 DUP2 AND DUP3 MSTORE DUP4 AND PUSH1 0x20 DUP3 ADD MSTORE PUSH1 0x60 PUSH1 0x40 DUP3 ADD DUP2 SWAP1 MSTORE PUSH1 0x0 SWAP1 PUSH2 0xD69 SWAP1 DUP4 ADD DUP5 PUSH2 0xDEC JUMP INVALID COINBASE KECCAK256 PUSH20 0x7562736372697074696F6E207061796D656E7420 PUSH24 0x61732072656365697665642E596F7572207061796D656E74 KECCAK256 PUSH4 0x6F6D706C PUSH6 0x746564207375 PUSH4 0x63657373 PUSH7 0x756C6C792E4120 PUSH20 0x7562736372696265722063616E63656C6C656420 PUSH21 0x6865697220737562736372697074696F6E2EA26469 PUSH17 0x667358221220BDC3D14671E7D1DB3FFD1C 0xA7 LOG1 PUSH1 0x58 SWAP11 CALLDATALOAD 0xAD 0xD 0x2E 0xB8 0x24 CALL PC DUP8 LOG2 JUMPDEST 0xC9 0xB1 DUP13 GASPRICE JUMPDEST PUSH5 0x736F6C6343 STOP ADDMOD EQ STOP CALLER "},"methodIdentifiers":{"channel()":"7bbdb96e","notifyBeforeRenewal(uint256,address,address,uint256,uint256)":"0ecff21e","notifyPaymentFailure(address,address,address,uint256,string,string)":"21c726c7","notifyPaymentSuccess(address,address,address,uint256,string)":"a5e9b762","notifySubscriptionCancelled(uint256,address,address)":"6b7ce081","notifySubscriptionExecuted(uint256,address,address,address,uint256,uint256)":"000bc302","owner()":"8da5cb5b","pushComm()":"bc61495b","renounceOwnership()":"715018a6","setChannel(address)":"8ff75d8c","setPushComm(address)":"2e0eb974","transferOwnership(address)":"f2fde38b"}}}}}