{
  "_format": "hh-sol-artifact-1",
  "contractName": "OmniPayNotifier",
  "sourceName": "contracts/OmniPayNotifier.sol",
  "abi": [
    {
      "inputs": [
        {
          "internalType": "address",
          "name": "initialOwner",
          "type": "address"
        },
        {
          "internalType": "address",
          "name": "_pushComm",
          "type": "address"
        },
        {
          "internalType": "address",
          "name": "_channel",
          "type": "address"
        }
      ],
      "stateMutability": "nonpayable",
      "type": "constructor"
    },
    {
      "inputs": [],
      "name": "AccessControlBadConfirmation",
      "type": "error"
    },
    {
      "inputs": [
        {
          "internalType": "address",
          "name": "account",
          "type": "address"
        },
        {
          "internalType": "bytes32",
          "name": "neededRole",
          "type": "bytes32"
        }
      ],
      "name": "AccessControlUnauthorizedAccount",
      "type": "error"
    },
    {
      "inputs": [],
      "name": "InvalidAddress",
      "type": "error"
    },
    {
      "inputs": [
        {
          "internalType": "address",
          "name": "owner",
          "type": "address"
        }
      ],
      "name": "OwnableInvalidOwner",
      "type": "error"
    },
    {
      "inputs": [
        {
          "internalType": "address",
          "name": "account",
          "type": "address"
        }
      ],
      "name": "OwnableUnauthorizedAccount",
      "type": "error"
    },
    {
      "inputs": [],
      "name": "PushNotConfigured",
      "type": "error"
    },
    {
      "inputs": [],
      "name": "UnauthorizedCaller",
      "type": "error"
    },
    {
      "anonymous": false,
      "inputs": [
        {
          "indexed": true,
          "internalType": "uint256",
          "name": "subId",
          "type": "uint256"
        },
        {
          "indexed": true,
          "internalType": "address",
          "name": "subscriber",
          "type": "address"
        },
        {
          "indexed": true,
          "internalType": "address",
          "name": "merchant",
          "type": "address"
        },
        {
          "indexed": false,
          "internalType": "uint256",
          "name": "amount",
          "type": "uint256"
        },
        {
          "indexed": false,
          "internalType": "uint256",
          "name": "nextPaymentDue",
          "type": "uint256"
        }
      ],
      "name": "BeforeRenewal",
      "type": "event"
    },
    {
      "anonymous": false,
      "inputs": [
        {
          "indexed": true,
          "internalType": "address",
          "name": "recipient",
          "type": "address"
        },
        {
          "indexed": false,
          "internalType": "string",
          "name": "title",
          "type": "string"
        },
        {
          "indexed": false,
          "internalType": "string",
          "name": "body",
          "type": "string"
        },
        {
          "indexed": false,
          "internalType": "bytes",
          "name": "metadata",
          "type": "bytes"
        }
      ],
      "name": "CustomNotification",
      "type": "event"
    },
    {
      "anonymous": false,
      "inputs": [
        {
          "indexed": true,
          "internalType": "address",
          "name": "pushComm",
          "type": "address"
        },
        {
          "indexed": true,
          "internalType": "address",
          "name": "channel",
          "type": "address"
        },
        {
          "indexed": false,
          "internalType": "bool",
          "name": "pushEnabled",
          "type": "bool"
        }
      ],
      "name": "NotifierConfigured",
      "type": "event"
    },
    {
      "anonymous": false,
      "inputs": [
        {
          "indexed": true,
          "internalType": "address",
          "name": "previousOwner",
          "type": "address"
        },
        {
          "indexed": true,
          "internalType": "address",
          "name": "newOwner",
          "type": "address"
        }
      ],
      "name": "OwnershipTransferred",
      "type": "event"
    },
    {
      "anonymous": false,
      "inputs": [
        {
          "indexed": true,
          "internalType": "address",
          "name": "payer",
          "type": "address"
        },
        {
          "indexed": true,
          "internalType": "address",
          "name": "payee",
          "type": "address"
        },
        {
          "indexed": true,
          "internalType": "address",
          "name": "token",
          "type": "address"
        },
        {
          "indexed": false,
          "internalType": "uint256",
          "name": "amount",
          "type": "uint256"
        },
        {
          "indexed": false,
          "internalType": "string",
          "name": "paymentRef",
          "type": "string"
        },
        {
          "indexed": false,
          "internalType": "string",
          "name": "reason",
          "type": "string"
        }
      ],
      "name": "PaymentFailure",
      "type": "event"
    },
    {
      "anonymous": false,
      "inputs": [
        {
          "indexed": true,
          "internalType": "address",
          "name": "payer",
          "type": "address"
        },
        {
          "indexed": true,
          "internalType": "address",
          "name": "payee",
          "type": "address"
        },
        {
          "indexed": true,
          "internalType": "address",
          "name": "token",
          "type": "address"
        },
        {
          "indexed": false,
          "internalType": "uint256",
          "name": "amount",
          "type": "uint256"
        },
        {
          "indexed": false,
          "internalType": "string",
          "name": "paymentRef",
          "type": "string"
        }
      ],
      "name": "PaymentSuccess",
      "type": "event"
    },
    {
      "anonymous": false,
      "inputs": [
        {
          "indexed": true,
          "internalType": "address",
          "name": "recipient",
          "type": "address"
        },
        {
          "indexed": false,
          "internalType": "enum OmniPayNotifier.NotificationType",
          "name": "notificationType",
          "type": "uint8"
        },
        {
          "indexed": false,
          "internalType": "bool",
          "name": "success",
          "type": "bool"
        },
        {
          "indexed": false,
          "internalType": "bytes",
          "name": "identity",
          "type": "bytes"
        }
      ],
      "name": "PushAttempt",
      "type": "event"
    },
    {
      "anonymous": false,
      "inputs": [
        {
          "indexed": true,
          "internalType": "bytes32",
          "name": "role",
          "type": "bytes32"
        },
        {
          "indexed": true,
          "internalType": "bytes32",
          "name": "previousAdminRole",
          "type": "bytes32"
        },
        {
          "indexed": true,
          "internalType": "bytes32",
          "name": "newAdminRole",
          "type": "bytes32"
        }
      ],
      "name": "RoleAdminChanged",
      "type": "event"
    },
    {
      "anonymous": false,
      "inputs": [
        {
          "indexed": true,
          "internalType": "bytes32",
          "name": "role",
          "type": "bytes32"
        },
        {
          "indexed": true,
          "internalType": "address",
          "name": "account",
          "type": "address"
        },
        {
          "indexed": true,
          "internalType": "address",
          "name": "sender",
          "type": "address"
        }
      ],
      "name": "RoleGranted",
      "type": "event"
    },
    {
      "anonymous": false,
      "inputs": [
        {
          "indexed": true,
          "internalType": "bytes32",
          "name": "role",
          "type": "bytes32"
        },
        {
          "indexed": true,
          "internalType": "address",
          "name": "account",
          "type": "address"
        },
        {
          "indexed": true,
          "internalType": "address",
          "name": "sender",
          "type": "address"
        }
      ],
      "name": "RoleRevoked",
      "type": "event"
    },
    {
      "anonymous": false,
      "inputs": [
        {
          "indexed": true,
          "internalType": "uint256",
          "name": "subId",
          "type": "uint256"
        },
        {
          "indexed": true,
          "internalType": "address",
          "name": "subscriber",
          "type": "address"
        },
        {
          "indexed": true,
          "internalType": "address",
          "name": "merchant",
          "type": "address"
        }
      ],
      "name": "SubscriptionCancelled",
      "type": "event"
    },
    {
      "anonymous": false,
      "inputs": [
        {
          "indexed": true,
          "internalType": "uint256",
          "name": "subId",
          "type": "uint256"
        },
        {
          "indexed": true,
          "internalType": "address",
          "name": "subscriber",
          "type": "address"
        },
        {
          "indexed": true,
          "internalType": "address",
          "name": "merchant",
          "type": "address"
        },
        {
          "indexed": false,
          "internalType": "address",
          "name": "token",
          "type": "address"
        },
        {
          "indexed": false,
          "internalType": "uint256",
          "name": "amount",
          "type": "uint256"
        },
        {
          "indexed": false,
          "internalType": "uint256",
          "name": "nextPaymentDue",
          "type": "uint256"
        }
      ],
      "name": "SubscriptionExecuted",
      "type": "event"
    },
    {
      "inputs": [],
      "name": "DEFAULT_ADMIN_ROLE",
      "outputs": [
        {
          "internalType": "bytes32",
          "name": "",
          "type": "bytes32"
        }
      ],
      "stateMutability": "view",
      "type": "function"
    },
    {
      "inputs": [],
      "name": "NOTIFIER_ROLE",
      "outputs": [
        {
          "internalType": "bytes32",
          "name": "",
          "type": "bytes32"
        }
      ],
      "stateMutability": "view",
      "type": "function"
    },
    {
      "inputs": [],
      "name": "channel",
      "outputs": [
        {
          "internalType": "address",
          "name": "",
          "type": "address"
        }
      ],
      "stateMutability": "view",
      "type": "function"
    },
    {
      "inputs": [
        {
          "internalType": "bytes32",
          "name": "role",
          "type": "bytes32"
        }
      ],
      "name": "getRoleAdmin",
      "outputs": [
        {
          "internalType": "bytes32",
          "name": "",
          "type": "bytes32"
        }
      ],
      "stateMutability": "view",
      "type": "function"
    },
    {
      "inputs": [
        {
          "internalType": "address",
          "name": "notifier",
          "type": "address"
        }
      ],
      "name": "grantNotifierRole",
      "outputs": [],
      "stateMutability": "nonpayable",
      "type": "function"
    },
    {
      "inputs": [
        {
          "internalType": "bytes32",
          "name": "role",
          "type": "bytes32"
        },
        {
          "internalType": "address",
          "name": "account",
          "type": "address"
        }
      ],
      "name": "grantRole",
      "outputs": [],
      "stateMutability": "nonpayable",
      "type": "function"
    },
    {
      "inputs": [
        {
          "internalType": "bytes32",
          "name": "role",
          "type": "bytes32"
        },
        {
          "internalType": "address",
          "name": "account",
          "type": "address"
        }
      ],
      "name": "hasRole",
      "outputs": [
        {
          "internalType": "bool",
          "name": "",
          "type": "bool"
        }
      ],
      "stateMutability": "view",
      "type": "function"
    },
    {
      "inputs": [
        {
          "internalType": "uint256",
          "name": "subId",
          "type": "uint256"
        },
        {
          "internalType": "address",
          "name": "subscriber",
          "type": "address"
        },
        {
          "internalType": "address",
          "name": "merchant",
          "type": "address"
        },
        {
          "internalType": "uint256",
          "name": "amount",
          "type": "uint256"
        },
        {
          "internalType": "uint256",
          "name": "nextPaymentDue",
          "type": "uint256"
        }
      ],
      "name": "notifyBeforeRenewal",
      "outputs": [],
      "stateMutability": "nonpayable",
      "type": "function"
    },
    {
      "inputs": [
        {
          "internalType": "address",
          "name": "payer",
          "type": "address"
        },
        {
          "internalType": "address",
          "name": "payee",
          "type": "address"
        },
        {
          "internalType": "address",
          "name": "token",
          "type": "address"
        },
        {
          "internalType": "uint256",
          "name": "amount",
          "type": "uint256"
        },
        {
          "internalType": "string",
          "name": "paymentRef",
          "type": "string"
        },
        {
          "internalType": "string",
          "name": "reason",
          "type": "string"
        }
      ],
      "name": "notifyPaymentFailure",
      "outputs": [],
      "stateMutability": "nonpayable",
      "type": "function"
    },
    {
      "inputs": [
        {
          "internalType": "address",
          "name": "payer",
          "type": "address"
        },
        {
          "internalType": "address",
          "name": "payee",
          "type": "address"
        },
        {
          "internalType": "address",
          "name": "token",
          "type": "address"
        },
        {
          "internalType": "uint256",
          "name": "amount",
          "type": "uint256"
        },
        {
          "internalType": "string",
          "name": "paymentRef",
          "type": "string"
        }
      ],
      "name": "notifyPaymentSuccess",
      "outputs": [],
      "stateMutability": "nonpayable",
      "type": "function"
    },
    {
      "inputs": [
        {
          "internalType": "uint256",
          "name": "subId",
          "type": "uint256"
        },
        {
          "internalType": "address",
          "name": "subscriber",
          "type": "address"
        },
        {
          "internalType": "address",
          "name": "merchant",
          "type": "address"
        }
      ],
      "name": "notifySubscriptionCancelled",
      "outputs": [],
      "stateMutability": "nonpayable",
      "type": "function"
    },
    {
      "inputs": [
        {
          "internalType": "uint256",
          "name": "subId",
          "type": "uint256"
        },
        {
          "internalType": "address",
          "name": "subscriber",
          "type": "address"
        },
        {
          "internalType": "address",
          "name": "merchant",
          "type": "address"
        },
        {
          "internalType": "address",
          "name": "token",
          "type": "address"
        },
        {
          "internalType": "uint256",
          "name": "amount",
          "type": "uint256"
        },
        {
          "internalType": "uint256",
          "name": "nextPaymentDue",
          "type": "uint256"
        }
      ],
      "name": "notifySubscriptionExecuted",
      "outputs": [],
      "stateMutability": "nonpayable",
      "type": "function"
    },
    {
      "inputs": [],
      "name": "owner",
      "outputs": [
        {
          "internalType": "address",
          "name": "",
          "type": "address"
        }
      ],
      "stateMutability": "view",
      "type": "function"
    },
    {
      "inputs": [],
      "name": "pushComm",
      "outputs": [
        {
          "internalType": "contract IPUSHCommInterface",
          "name": "",
          "type": "address"
        }
      ],
      "stateMutability": "view",
      "type": "function"
    },
    {
      "inputs": [],
      "name": "pushEnabled",
      "outputs": [
        {
          "internalType": "bool",
          "name": "",
          "type": "bool"
        }
      ],
      "stateMutability": "view",
      "type": "function"
    },
    {
      "inputs": [],
      "name": "renounceOwnership",
      "outputs": [],
      "stateMutability": "nonpayable",
      "type": "function"
    },
    {
      "inputs": [
        {
          "internalType": "bytes32",
          "name": "role",
          "type": "bytes32"
        },
        {
          "internalType": "address",
          "name": "callerConfirmation",
          "type": "address"
        }
      ],
      "name": "renounceRole",
      "outputs": [],
      "stateMutability": "nonpayable",
      "type": "function"
    },
    {
      "inputs": [
        {
          "internalType": "address",
          "name": "notifier",
          "type": "address"
        }
      ],
      "name": "revokeNotifierRole",
      "outputs": [],
      "stateMutability": "nonpayable",
      "type": "function"
    },
    {
      "inputs": [
        {
          "internalType": "bytes32",
          "name": "role",
          "type": "bytes32"
        },
        {
          "internalType": "address",
          "name": "account",
          "type": "address"
        }
      ],
      "name": "revokeRole",
      "outputs": [],
      "stateMutability": "nonpayable",
      "type": "function"
    },
    {
      "inputs": [
        {
          "internalType": "address[]",
          "name": "recipients",
          "type": "address[]"
        },
        {
          "internalType": "string",
          "name": "title",
          "type": "string"
        },
        {
          "internalType": "string",
          "name": "body",
          "type": "string"
        }
      ],
      "name": "sendBulkNotification",
      "outputs": [],
      "stateMutability": "nonpayable",
      "type": "function"
    },
    {
      "inputs": [
        {
          "internalType": "address",
          "name": "recipient",
          "type": "address"
        },
        {
          "internalType": "string",
          "name": "title",
          "type": "string"
        },
        {
          "internalType": "string",
          "name": "body",
          "type": "string"
        },
        {
          "internalType": "bytes",
          "name": "metadata",
          "type": "bytes"
        }
      ],
      "name": "sendCustomNotification",
      "outputs": [],
      "stateMutability": "nonpayable",
      "type": "function"
    },
    {
      "inputs": [
        {
          "internalType": "address",
          "name": "_channel",
          "type": "address"
        }
      ],
      "name": "setChannel",
      "outputs": [],
      "stateMutability": "nonpayable",
      "type": "function"
    },
    {
      "inputs": [
        {
          "internalType": "address",
          "name": "_pushComm",
          "type": "address"
        }
      ],
      "name": "setPushComm",
      "outputs": [],
      "stateMutability": "nonpayable",
      "type": "function"
    },
    {
      "inputs": [
        {
          "internalType": "bool",
          "name": "enabled",
          "type": "bool"
        }
      ],
      "name": "setPushEnabled",
      "outputs": [],
      "stateMutability": "nonpayable",
      "type": "function"
    },
    {
      "inputs": [
        {
          "internalType": "bytes4",
          "name": "interfaceId",
          "type": "bytes4"
        }
      ],
      "name": "supportsInterface",
      "outputs": [
        {
          "internalType": "bool",
          "name": "",
          "type": "bool"
        }
      ],
      "stateMutability": "view",
      "type": "function"
    },
    {
      "inputs": [
        {
          "internalType": "address",
          "name": "newOwner",
          "type": "address"
        }
      ],
      "name": "transferOwnership",
      "outputs": [],
      "stateMutability": "nonpayable",
      "type": "function"
    }
  ],
  "bytecode": "0x60806040523480156200001157600080fd5b50604051620020563803806200205683398101604081905262000034916200025e565b826001600160a01b0381166200006457604051631e4fbdf760e01b81526000600482015260240160405180910390fd5b6200006f816200015a565b506200007d600084620001aa565b50620000aa7f4a2f7af891dbd2031c784532aea681e8646ac41c5bc81e1c46986d1f8e1d1f8e84620001aa565b506001600160a01b03821615620000ec57600280546001600160a01b0384166001600160a01b03199091161790556003805460ff60a01b1916600160a01b1790555b600380546001600160a01b0319166001600160a01b0383811691821792839055604051600160a01b90930460ff16151583529091908416907fc31dc16583aaf3f468aa0f4c5616032b8592454502cb62302a8cce075d2e3e8b9060200160405180910390a3505050620002a8565b600080546001600160a01b038381166001600160a01b0319831681178455604051919092169283917f8be0079c531659141344cd1fd0a4f28419497f9722a3daafe3b4186f6b6457e09190a35050565b60008281526001602090815260408083206001600160a01b038516845290915281205460ff16620002375760008381526001602081815260408084206001600160a01b0387168086529252808420805460ff19169093179092559051339286917f2f8788117e7eff1d82e926ec794901d17c78024a50270940304540a733656f0d9190a45060016200023b565b5060005b92915050565b80516001600160a01b03811681146200025957600080fd5b919050565b6000806000606084860312156200027457600080fd5b6200027f8462000241565b92506200028f6020850162000241565b91506200029f6040850162000241565b90509250925092565b611d9e80620002b86000396000f3fe608060405234801561001057600080fd5b506004361061018d5760003560e01c806381988c10116100de578063bc61495b11610097578063d3d98c0511610071578063d3d98c051461036c578063d547741f14610380578063f2fde38b14610393578063f9b11c67146103a657600080fd5b8063bc61495b14610331578063c3bb6aab14610344578063cda150441461035957600080fd5b806381988c10146102cc5780638da5cb5b146102df5780638ff75d8c146102f057806391d1485414610303578063a217fddf14610316578063a5e9b7621461031e57600080fd5b80632e0eb9741161014b578063633337801161012557806363333780146102735780636b7ce08114610286578063715018a6146102995780637bbdb96e146102a157600080fd5b80632e0eb9741461023a5780632f2ff15d1461024d57806336568abe1461026057600080fd5b80620bc3021461019257806301ffc9a7146101a75780630ecff21e146101cf57806321c726c7146101e2578063248a9ca3146101f55780632dbb559114610227575b600080fd5b6101a56101a0366004611331565b6103b9565b005b6101ba6101b5366004611390565b6104f7565b60405190151581526020015b60405180910390f35b6101a56101dd3660046113c1565b61052e565b6101a56101f0366004611458565b61065f565b610219610203366004611503565b6000908152600160208190526040909120015490565b6040519081526020016101c6565b6101a561023536600461151c565b6107a5565b6101a561024836600461153e565b61081e565b6101a561025b366004611559565b6108a4565b6101a561026e366004611559565b6108d0565b6101a5610281366004611585565b610908565b6101a561029436600461164d565b610a28565b6101a5610b2d565b6003546102b4906001600160a01b031681565b6040516001600160a01b0390911681526020016101c6565b6101a56102da36600461153e565b610b41565b6000546001600160a01b03166102b4565b6101a56102fe36600461153e565b610b8c565b6101ba610311366004611559565b610bf8565b610219600081565b6101a561032c366004611689565b610c23565b6002546102b4906001600160a01b031681565b610219600080516020611d0183398151915281565b6101a56103673660046116f6565b610d2c565b6003546101ba90600160a01b900460ff1681565b6101a561038e366004611559565b610e39565b6101a56103a136600461153e565b610e5f565b6101a56103b436600461153e565b610ea2565b600080516020611d018339815191526103d181610ec2565b604080516001600160a01b038681168252602082018690529181018490528187169188169089907f382da987c537ddd3bb60966d3607c14100d418d0fe9102d36803f333d69208509060600160405180910390a46104968660026104916040518060400160405280601e81526020017f537562736372697074696f6e205061796d656e742050726f636573736564000081525061046d88610ecc565b60405160200161047d91906117c5565b604051602081830303815290604052610ed7565b610f06565b6104ee8560026104916040518060400160405280601d81526020017f537562736372697074696f6e205061796d656e742052656365697665640000008152506104de88610ecc565b60405160200161047d9190611829565b50505050505050565b60006001600160e01b03198216637965db0b60e01b148061052857506301ffc9a760e01b6001600160e01b03198316145b92915050565b600080516020611d0183398151915261054681610ec2565b836001600160a01b0316856001600160a01b0316877f891873c245759b71b614be67d4a1284cb5e122d828af84aeefb68ba1122a1c9e8686604051610595929190918252602082015260400190565b60405180910390a46105fa8560046104916040518060400160405280601881526020017f537562736372697074696f6e2052656e6577616c204475650000000000000000815250604051806080016040528060488152602001611d2160489139610ed7565b6106578460046104916040518060400160405280601d81526020017f5570636f6d696e6720537562736372697074696f6e205061796d656e74000000815250604051806060016040528060298152602001611cd860299139610ed7565b505050505050565b600080516020611d0183398151915261067781610ec2565b866001600160a01b0316886001600160a01b03168a6001600160a01b03167fc26692ab7eede0829cb931f5593d1d26e42428370601a2f8cb4b2cf94312729589898989896040516106cc9594939291906118ac565b60405180910390a460006106df87610ecc565b84846040516020016106f3939291906118e5565b60408051601f19818403018152828201909152600e82526d14185e5b595b9d0811985a5b195960921b60208301529150610736908b906001906104919085610ed7565b600061074188610ecc565b858560405160200161075593929190611948565b60408051601f19818403018152828201909152600e82526d14185e5b595b9d0811985a5b195960921b60208301529150610798908b906001906104919085610ed7565b5050505050505050505050565b6107ad61106f565b60038054821515600160a01b0260ff60a01b19821681179092556002546040516001600160a01b03938416928416929092179216907fc31dc16583aaf3f468aa0f4c5616032b8592454502cb62302a8cce075d2e3e8b9061081390851515815260200190565b60405180910390a350565b61082661106f565b600280546001600160a01b038381166001600160a01b0319909216821790925560038054600160a01b831515810260ff60a01b1983168117938490556040519190930460ff1615158152918416931692909217917fc31dc16583aaf3f468aa0f4c5616032b8592454502cb62302a8cce075d2e3e8b90602001610813565b600082815260016020819052604090912001546108c081610ec2565b6108ca838361109c565b50505050565b6001600160a01b03811633146108f95760405163334bd91960e11b815260040160405180910390fd5b6109038282611115565b505050565b600080516020611d0183398151915261092081610ec2565b600061099586868080601f01602080910402602001604051908101604052809392919081815260200183838082843760009201919091525050604080516020601f8a018190048102820181019092528881529250889150879081908401838280828437600092019190915250610ed792505050565b905060005b87811015610a1d5760008989838181106109b6576109b66119af565b90506020020160208101906109cb919061153e565b6001600160a01b031614610a0b57610a0b8989838181106109ee576109ee6119af565b9050602002016020810190610a03919061153e565b600584610f06565b80610a15816119db565b91505061099a565b505050505050505050565b600080516020611d01833981519152610a4081610ec2565b816001600160a01b0316836001600160a01b0316857f8b143fab101681a84d31f59bde0822fdc5f999c709e0f1e85b0916c6ddc5bc5960405160405180910390a4610ad78360036104916040518060400160405280601681526020017514dd589cd8dc9a5c1d1a5bdb8810d85b98d95b1b195960521b815250604051806060016040528060328152602001611ca660329139610ed7565b6108ca8260036104916040518060400160405280601681526020017514dd589cd8dc9a5c1d1a5bdb8810d85b98d95b1b195960521b8152506040518060600160405280602e8152602001611c78602e9139610ed7565b610b3561106f565b610b3f6000611182565b565b610b4961106f565b6001600160a01b038116610b705760405163e6c4247b60e01b815260040160405180910390fd5b610b88600080516020611d018339815191528261109c565b5050565b610b9461106f565b600380546001600160a01b0319166001600160a01b0383811691821792839055600254604051600160a01b90940460ff161515845291929116907fc31dc16583aaf3f468aa0f4c5616032b8592454502cb62302a8cce075d2e3e8b90602001610813565b60009182526001602090815260408084206001600160a01b0393909316845291905290205460ff1690565b600080516020611d01833981519152610c3b81610ec2565b846001600160a01b0316866001600160a01b0316886001600160a01b03167fe35b501a850ee55332bf338c3bd20d0f8add9a9b249d72be7fdb379ac4f33003878787604051610c8c939291906119f4565b60405180910390a4610ce18760006104916040518060400160405280601281526020017114185e5b595b9d0814dd58d8d95cdcd99d5b60721b815250610cd189610ecc565b60405160200161047d9190611a17565b6104ee8660006104916040518060400160405280601081526020016f14185e5b595b9d08149958d95a5d995960821b815250610d1c89610ecc565b60405160200161047d9190611a76565b600080516020611d01833981519152610d4481610ec2565b6001600160a01b038816610d6b5760405163e6c4247b60e01b815260040160405180910390fd5b876001600160a01b03167ff067e6a125b24e276932a3c9cd84e0e3cd535aa575dc801227723bf9d10e1050888888888888604051610dae96959493929190611ac6565b60405180910390a2610e2f8860056104918a8a8080601f01602080910402602001604051908101604052809392919081815260200183838082843760009201919091525050604080516020601f8e018190048102820181019092528c815292508c91508b9081908401838280828437600092019190915250610ed792505050565b5050505050505050565b60008281526001602081905260409091200154610e5581610ec2565b6108ca8383611115565b610e6761106f565b6001600160a01b038116610e9657604051631e4fbdf760e01b8152600060048201526024015b60405180910390fd5b610e9f81611182565b50565b610eaa61106f565b610b88600080516020611d0183398151915282611115565b610e9f81336111d2565b60606105288261120b565b606060008383604051602001610eee929190611b0f565b60408051808303601f19018152919052949350505050565b600354600160a01b900460ff161580610f2857506002546001600160a01b0316155b80610f3c57506003546001600160a01b0316155b15610f8c57826001600160a01b03167fbfa5703c2504a07647475ff8ae89f4302d08240c73a6524c5d88354f96f7986383600084604051610f7f93929190611b8e565b60405180910390a2505050565b60025460035460405163ba3d69d760e01b81526001600160a01b039283169263ba3d69d792610fc49291169087908690600401611bcd565b600060405180830381600087803b158015610fde57600080fd5b505af1925050508015610fef575060015b61103157826001600160a01b03167fbfa5703c2504a07647475ff8ae89f4302d08240c73a6524c5d88354f96f7986383600084604051610f7f93929190611b8e565b826001600160a01b03167fbfa5703c2504a07647475ff8ae89f4302d08240c73a6524c5d88354f96f7986383600184604051610f7f93929190611b8e565b6000546001600160a01b03163314610b3f5760405163118cdaa760e01b8152336004820152602401610e8d565b60006110a88383610bf8565b61110d5760008381526001602081815260408084206001600160a01b0387168086529252808420805460ff19169093179092559051339286917f2f8788117e7eff1d82e926ec794901d17c78024a50270940304540a733656f0d9190a4506001610528565b506000610528565b60006111218383610bf8565b1561110d5760008381526001602090815260408083206001600160a01b0386168085529252808320805460ff1916905551339286917ff6391f5c32d9c69d2a47ea670b442974b53935d1edc7fd64eb21e047a839171b9190a4506001610528565b600080546001600160a01b038381166001600160a01b0319831681178455604051919092169283917f8be0079c531659141344cd1fd0a4f28419497f9722a3daafe3b4186f6b6457e09190a35050565b6111dc8282610bf8565b610b885760405163e2517d3f60e01b81526001600160a01b038216600482015260248101839052604401610e8d565b6060816000036112325750506040805180820190915260018152600360fc1b602082015290565b8160005b811561125c5780611246816119db565b91506112559050600a83611c0f565b9150611236565b60008167ffffffffffffffff81111561127757611277611c23565b6040519080825280601f01601f1916602001820160405280156112a1576020820181803683370190505b5090505b841561130d57816112b581611c39565b92506112c49050600a86611c50565b6112cf906030611c64565b60f81b8183815181106112e4576112e46119af565b60200101906001600160f81b031916908160001a905350611306600a86611c0f565b94506112a5565b949350505050565b80356001600160a01b038116811461132c57600080fd5b919050565b60008060008060008060c0878903121561134a57600080fd5b8635955061135a60208801611315565b945061136860408801611315565b935061137660608801611315565b92506080870135915060a087013590509295509295509295565b6000602082840312156113a257600080fd5b81356001600160e01b0319811681146113ba57600080fd5b9392505050565b600080600080600060a086880312156113d957600080fd5b853594506113e960208701611315565b93506113f760408701611315565b94979396509394606081013594506080013592915050565b60008083601f84011261142157600080fd5b50813567ffffffffffffffff81111561143957600080fd5b60208301915083602082850101111561145157600080fd5b9250929050565b60008060008060008060008060c0898b03121561147457600080fd5b61147d89611315565b975061148b60208a01611315565b965061149960408a01611315565b955060608901359450608089013567ffffffffffffffff808211156114bd57600080fd5b6114c98c838d0161140f565b909650945060a08b01359150808211156114e257600080fd5b506114ef8b828c0161140f565b999c989b5096995094979396929594505050565b60006020828403121561151557600080fd5b5035919050565b60006020828403121561152e57600080fd5b813580151581146113ba57600080fd5b60006020828403121561155057600080fd5b6113ba82611315565b6000806040838503121561156c57600080fd5b8235915061157c60208401611315565b90509250929050565b6000806000806000806060878903121561159e57600080fd5b863567ffffffffffffffff808211156115b657600080fd5b818901915089601f8301126115ca57600080fd5b8135818111156115d957600080fd5b8a60208260051b85010111156115ee57600080fd5b60209283019850965090880135908082111561160957600080fd5b6116158a838b0161140f565b9096509450604089013591508082111561162e57600080fd5b5061163b89828a0161140f565b979a9699509497509295939492505050565b60008060006060848603121561166257600080fd5b8335925061167260208501611315565b915061168060408501611315565b90509250925092565b60008060008060008060a087890312156116a257600080fd5b6116ab87611315565b95506116b960208801611315565b94506116c760408801611315565b935060608701359250608087013567ffffffffffffffff8111156116ea57600080fd5b61163b89828a0161140f565b60008060008060008060006080888a03121561171157600080fd5b61171a88611315565b9650602088013567ffffffffffffffff8082111561173757600080fd5b6117438b838c0161140f565b909850965060408a013591508082111561175c57600080fd5b6117688b838c0161140f565b909650945060608a013591508082111561178157600080fd5b5061178e8a828b0161140f565b989b979a50959850939692959293505050565b60005b838110156117bc5781810151838201526020016117a4565b50506000910152565b7402cb7bab91039bab139b1b934b83a34b7b71037b31605d1b8152600082516117f58160158501602087016117a1565b7f207761732063686172676564207375636365737366756c6c792e0000000000006015939091019283015250602f01919050565b7f526563656976656420737562736372697074696f6e207061796d656e74206f668152600160fd1b60208201526000825161186b8160218501602087016117a1565b601760f91b6021939091019283015250602201919050565b81835281816020850137506000828201602090810191909152601f909101601f19169091010190565b8581526060602082015260006118c6606083018688611883565b82810360408401526118d9818587611883565b98975050505050505050565b6f02cb7bab9103830bcb6b2b73a1037b3160851b8152600084516119108160108501602089016117a1565b700103330b4b632b217102932b0b9b7b71d1607d1b601091840191820152838560218301376000930160210192835250909392505050565b73022bc3832b1ba32b2103830bcb6b2b73a1037b3160651b8152600084516119778160148501602089016117a1565b700103330b4b632b217102932b0b9b7b71d1607d1b601491840191820152838560258301376000930160250192835250909392505050565b634e487b7160e01b600052603260045260246000fd5b634e487b7160e01b600052601160045260246000fd5b6000600182016119ed576119ed6119c5565b5060010190565b838152604060208201526000611a0e604083018486611883565b95945050505050565b6f02cb7bab9103830bcb6b2b73a1037b3160851b815260008251611a428160108501602087016117a1565b7f2077617320636f6d706c65746564207375636365737366756c6c792e000000006010939091019283015250602c01919050565b7f596f752072656365697665642061207061796d656e74206f6620000000000000815260008251611aae81601a8501602087016117a1565b601760f91b601a939091019283015250601b01919050565b606081526000611ada60608301888a611883565b8281036020840152611aed818789611883565b90508281036040840152611b02818587611883565b9998505050505050505050565b600360fc1b81526000602b60f81b8060018401528451611b368160028601602089016117a1565b808401905081600282015284519150611b568260038301602088016117a1565b01600301949350505050565b60008151808452611b7a8160208601602086016117a1565b601f01601f19169290920160200192915050565b600060068510611bae57634e487b7160e01b600052602160045260246000fd5b848252831515602083015260606040830152611a0e6060830184611b62565b6001600160a01b03848116825283166020820152606060408201819052600090611a0e90830184611b62565b634e487b7160e01b600052601260045260246000fd5b600082611c1e57611c1e611bf9565b500490565b634e487b7160e01b600052604160045260246000fd5b600081611c4857611c486119c5565b506000190190565b600082611c5f57611c5f611bf9565b500690565b80820180821115610528576105286119c556fe412073756273637269626572206861732063616e63656c6c656420746865697220737562736372697074696f6e2e596f757220737562736372697074696f6e20686173206265656e2063616e63656c6c6564207375636365737366756c6c792e4120737562736372696265722068617320616e207570636f6d696e67207061796d656e74206475652e4a2f7af891dbd2031c784532aea681e8646ac41c5bc81e1c46986d1f8e1d1f8e596f757220737562736372697074696f6e207061796d656e742069732064756520736f6f6e2e20506c6561736520656e737572652073756666696369656e742062616c616e63652ea2646970667358221220fbd5384320430a8cb986819909b556b0bff52293b6b1e68548460cd66e1c2fae64736f6c63430008140033",
  "linkReferences": {},
  "deployedLinkReferences": {}
}