{
  "_format": "hh-sol-artifact-1",
  "contractName": "OmniPayBridge",
  "sourceName": "contracts/OmniPayBridge.sol",
  "abi": [
    {
      "inputs": [
        {
          "internalType": "address",
          "name": "_notifier",
          "type": "address"
        },
        {
          "internalType": "address",
          "name": "_pushComm",
          "type": "address"
        },
        {
          "internalType": "address",
          "name": "_channel",
          "type": "address"
        }
      ],
      "stateMutability": "nonpayable",
      "type": "constructor"
    },
    {
      "inputs": [],
      "name": "EnforcedPause",
      "type": "error"
    },
    {
      "inputs": [],
      "name": "ExpectedPause",
      "type": "error"
    },
    {
      "inputs": [
        {
          "internalType": "address",
          "name": "owner",
          "type": "address"
        }
      ],
      "name": "OwnableInvalidOwner",
      "type": "error"
    },
    {
      "inputs": [
        {
          "internalType": "address",
          "name": "account",
          "type": "address"
        }
      ],
      "name": "OwnableUnauthorizedAccount",
      "type": "error"
    },
    {
      "inputs": [],
      "name": "ReentrancyGuardReentrantCall",
      "type": "error"
    },
    {
      "inputs": [
        {
          "internalType": "address",
          "name": "token",
          "type": "address"
        }
      ],
      "name": "SafeERC20FailedOperation",
      "type": "error"
    },
    {
      "anonymous": false,
      "inputs": [
        {
          "indexed": false,
          "internalType": "uint256",
          "name": "oldFee",
          "type": "uint256"
        },
        {
          "indexed": false,
          "internalType": "uint256",
          "name": "newFee",
          "type": "uint256"
        }
      ],
      "name": "BridgeFeeUpdated",
      "type": "event"
    },
    {
      "anonymous": false,
      "inputs": [
        {
          "indexed": true,
          "internalType": "uint256",
          "name": "chainId",
          "type": "uint256"
        },
        {
          "indexed": false,
          "internalType": "bool",
          "name": "supported",
          "type": "bool"
        }
      ],
      "name": "ChainSupportUpdated",
      "type": "event"
    },
    {
      "anonymous": false,
      "inputs": [
        {
          "indexed": true,
          "internalType": "uint256",
          "name": "paymentId",
          "type": "uint256"
        },
        {
          "indexed": true,
          "internalType": "address",
          "name": "payer",
          "type": "address"
        },
        {
          "indexed": false,
          "internalType": "string",
          "name": "reason",
          "type": "string"
        }
      ],
      "name": "CrossChainPaymentCancelled",
      "type": "event"
    },
    {
      "anonymous": false,
      "inputs": [
        {
          "indexed": true,
          "internalType": "uint256",
          "name": "paymentId",
          "type": "uint256"
        },
        {
          "indexed": true,
          "internalType": "address",
          "name": "payer",
          "type": "address"
        },
        {
          "indexed": true,
          "internalType": "address",
          "name": "payee",
          "type": "address"
        },
        {
          "indexed": false,
          "internalType": "address",
          "name": "token",
          "type": "address"
        },
        {
          "indexed": false,
          "internalType": "uint256",
          "name": "amount",
          "type": "uint256"
        },
        {
          "indexed": false,
          "internalType": "uint256",
          "name": "sourceChainId",
          "type": "uint256"
        },
        {
          "indexed": false,
          "internalType": "uint256",
          "name": "targetChainId",
          "type": "uint256"
        },
        {
          "indexed": false,
          "internalType": "string",
          "name": "paymentRef",
          "type": "string"
        }
      ],
      "name": "CrossChainPaymentCompleted",
      "type": "event"
    },
    {
      "anonymous": false,
      "inputs": [
        {
          "indexed": true,
          "internalType": "uint256",
          "name": "paymentId",
          "type": "uint256"
        },
        {
          "indexed": true,
          "internalType": "address",
          "name": "payer",
          "type": "address"
        },
        {
          "indexed": true,
          "internalType": "address",
          "name": "payee",
          "type": "address"
        },
        {
          "indexed": false,
          "internalType": "address",
          "name": "token",
          "type": "address"
        },
        {
          "indexed": false,
          "internalType": "uint256",
          "name": "amount",
          "type": "uint256"
        },
        {
          "indexed": false,
          "internalType": "uint256",
          "name": "sourceChainId",
          "type": "uint256"
        },
        {
          "indexed": false,
          "internalType": "uint256",
          "name": "targetChainId",
          "type": "uint256"
        },
        {
          "indexed": false,
          "internalType": "string",
          "name": "paymentRef",
          "type": "string"
        },
        {
          "indexed": false,
          "internalType": "string",
          "name": "reason",
          "type": "string"
        }
      ],
      "name": "CrossChainPaymentFailed",
      "type": "event"
    },
    {
      "anonymous": false,
      "inputs": [
        {
          "indexed": true,
          "internalType": "uint256",
          "name": "paymentId",
          "type": "uint256"
        },
        {
          "indexed": true,
          "internalType": "address",
          "name": "payer",
          "type": "address"
        },
        {
          "indexed": true,
          "internalType": "address",
          "name": "payee",
          "type": "address"
        },
        {
          "indexed": false,
          "internalType": "address",
          "name": "token",
          "type": "address"
        },
        {
          "indexed": false,
          "internalType": "uint256",
          "name": "amount",
          "type": "uint256"
        },
        {
          "indexed": false,
          "internalType": "uint256",
          "name": "sourceChainId",
          "type": "uint256"
        },
        {
          "indexed": false,
          "internalType": "uint256",
          "name": "targetChainId",
          "type": "uint256"
        },
        {
          "indexed": false,
          "internalType": "string",
          "name": "paymentRef",
          "type": "string"
        }
      ],
      "name": "CrossChainPaymentInitiated",
      "type": "event"
    },
    {
      "anonymous": false,
      "inputs": [
        {
          "indexed": true,
          "internalType": "uint256",
          "name": "paymentId",
          "type": "uint256"
        },
        {
          "indexed": true,
          "internalType": "address",
          "name": "payer",
          "type": "address"
        },
        {
          "indexed": false,
          "internalType": "address",
          "name": "token",
          "type": "address"
        },
        {
          "indexed": false,
          "internalType": "uint256",
          "name": "amount",
          "type": "uint256"
        },
        {
          "indexed": false,
          "internalType": "string",
          "name": "reason",
          "type": "string"
        }
      ],
      "name": "CrossChainPaymentRefunded",
      "type": "event"
    },
    {
      "anonymous": false,
      "inputs": [
        {
          "indexed": true,
          "internalType": "address",
          "name": "oldNotifier",
          "type": "address"
        },
        {
          "indexed": true,
          "internalType": "address",
          "name": "newNotifier",
          "type": "address"
        }
      ],
      "name": "NotifierUpdated",
      "type": "event"
    },
    {
      "anonymous": false,
      "inputs": [
        {
          "indexed": true,
          "internalType": "address",
          "name": "previousOwner",
          "type": "address"
        },
        {
          "indexed": true,
          "internalType": "address",
          "name": "newOwner",
          "type": "address"
        }
      ],
      "name": "OwnershipTransferred",
      "type": "event"
    },
    {
      "anonymous": false,
      "inputs": [
        {
          "indexed": false,
          "internalType": "address",
          "name": "account",
          "type": "address"
        }
      ],
      "name": "Paused",
      "type": "event"
    },
    {
      "anonymous": false,
      "inputs": [
        {
          "indexed": true,
          "internalType": "address",
          "name": "pushComm",
          "type": "address"
        },
        {
          "indexed": true,
          "internalType": "address",
          "name": "channel",
          "type": "address"
        }
      ],
      "name": "PushConfigUpdated",
      "type": "event"
    },
    {
      "anonymous": false,
      "inputs": [
        {
          "indexed": true,
          "internalType": "address",
          "name": "relayer",
          "type": "address"
        }
      ],
      "name": "RelayerAdded",
      "type": "event"
    },
    {
      "anonymous": false,
      "inputs": [
        {
          "indexed": true,
          "internalType": "address",
          "name": "relayer",
          "type": "address"
        }
      ],
      "name": "RelayerRemoved",
      "type": "event"
    },
    {
      "anonymous": false,
      "inputs": [
        {
          "indexed": false,
          "internalType": "address",
          "name": "account",
          "type": "address"
        }
      ],
      "name": "Unpaused",
      "type": "event"
    },
    {
      "inputs": [],
      "name": "MAX_BRIDGE_FEE",
      "outputs": [
        {
          "internalType": "uint256",
          "name": "",
          "type": "uint256"
        }
      ],
      "stateMutability": "view",
      "type": "function"
    },
    {
      "inputs": [],
      "name": "MAX_PAYMENT_REF_LENGTH",
      "outputs": [
        {
          "internalType": "uint256",
          "name": "",
          "type": "uint256"
        }
      ],
      "stateMutability": "view",
      "type": "function"
    },
    {
      "inputs": [],
      "name": "MIN_BRIDGE_FEE",
      "outputs": [
        {
          "internalType": "uint256",
          "name": "",
          "type": "uint256"
        }
      ],
      "stateMutability": "view",
      "type": "function"
    },
    {
      "inputs": [],
      "name": "PAYMENT_TIMEOUT",
      "outputs": [
        {
          "internalType": "uint256",
          "name": "",
          "type": "uint256"
        }
      ],
      "stateMutability": "view",
      "type": "function"
    },
    {
      "inputs": [
        {
          "internalType": "address",
          "name": "_relayer",
          "type": "address"
        }
      ],
      "name": "addRelayer",
      "outputs": [],
      "stateMutability": "nonpayable",
      "type": "function"
    },
    {
      "inputs": [
        {
          "internalType": "uint256",
          "name": "_chainId",
          "type": "uint256"
        }
      ],
      "name": "addSupportedChain",
      "outputs": [],
      "stateMutability": "nonpayable",
      "type": "function"
    },
    {
      "inputs": [
        {
          "internalType": "address",
          "name": "",
          "type": "address"
        }
      ],
      "name": "authorizedRelayers",
      "outputs": [
        {
          "internalType": "bool",
          "name": "",
          "type": "bool"
        }
      ],
      "stateMutability": "view",
      "type": "function"
    },
    {
      "inputs": [],
      "name": "bridgeFee",
      "outputs": [
        {
          "internalType": "uint256",
          "name": "",
          "type": "uint256"
        }
      ],
      "stateMutability": "view",
      "type": "function"
    },
    {
      "inputs": [],
      "name": "channel",
      "outputs": [
        {
          "internalType": "address",
          "name": "",
          "type": "address"
        }
      ],
      "stateMutability": "view",
      "type": "function"
    },
    {
      "inputs": [
        {
          "internalType": "uint256",
          "name": "paymentId",
          "type": "uint256"
        },
        {
          "internalType": "address",
          "name": "payer",
          "type": "address"
        },
        {
          "internalType": "address",
          "name": "payee",
          "type": "address"
        },
        {
          "internalType": "address",
          "name": "token",
          "type": "address"
        },
        {
          "internalType": "uint256",
          "name": "amount",
          "type": "uint256"
        },
        {
          "internalType": "uint256",
          "name": "sourceChainId",
          "type": "uint256"
        },
        {
          "internalType": "string",
          "name": "paymentRef",
          "type": "string"
        }
      ],
      "name": "completeCrossChainPayment",
      "outputs": [],
      "stateMutability": "nonpayable",
      "type": "function"
    },
    {
      "inputs": [
        {
          "internalType": "address",
          "name": "token",
          "type": "address"
        },
        {
          "internalType": "uint256",
          "name": "amount",
          "type": "uint256"
        }
      ],
      "name": "emergencyWithdraw",
      "outputs": [],
      "stateMutability": "nonpayable",
      "type": "function"
    },
    {
      "inputs": [
        {
          "internalType": "address",
          "name": "payer",
          "type": "address"
        }
      ],
      "name": "getPayerPayments",
      "outputs": [
        {
          "internalType": "uint256[]",
          "name": "",
          "type": "uint256[]"
        }
      ],
      "stateMutability": "view",
      "type": "function"
    },
    {
      "inputs": [
        {
          "internalType": "uint256",
          "name": "paymentId",
          "type": "uint256"
        }
      ],
      "name": "getPayment",
      "outputs": [
        {
          "components": [
            {
              "internalType": "address",
              "name": "payer",
              "type": "address"
            },
            {
              "internalType": "address",
              "name": "payee",
              "type": "address"
            },
            {
              "internalType": "address",
              "name": "token",
              "type": "address"
            },
            {
              "internalType": "uint256",
              "name": "amount",
              "type": "uint256"
            },
            {
              "internalType": "uint256",
              "name": "sourceChainId",
              "type": "uint256"
            },
            {
              "internalType": "uint256",
              "name": "targetChainId",
              "type": "uint256"
            },
            {
              "internalType": "string",
              "name": "paymentRef",
              "type": "string"
            },
            {
              "internalType": "uint256",
              "name": "timestamp",
              "type": "uint256"
            },
            {
              "internalType": "enum OmniPayBridge.PaymentStatus",
              "name": "status",
              "type": "uint8"
            }
          ],
          "internalType": "struct OmniPayBridge.CrossChainPayment",
          "name": "",
          "type": "tuple"
        }
      ],
      "stateMutability": "view",
      "type": "function"
    },
    {
      "inputs": [
        {
          "internalType": "uint256",
          "name": "startIndex",
          "type": "uint256"
        },
        {
          "internalType": "uint256",
          "name": "count",
          "type": "uint256"
        }
      ],
      "name": "getPayments",
      "outputs": [
        {
          "components": [
            {
              "internalType": "address",
              "name": "payer",
              "type": "address"
            },
            {
              "internalType": "address",
              "name": "payee",
              "type": "address"
            },
            {
              "internalType": "address",
              "name": "token",
              "type": "address"
            },
            {
              "internalType": "uint256",
              "name": "amount",
              "type": "uint256"
            },
            {
              "internalType": "uint256",
              "name": "sourceChainId",
              "type": "uint256"
            },
            {
              "internalType": "uint256",
              "name": "targetChainId",
              "type": "uint256"
            },
            {
              "internalType": "string",
              "name": "paymentRef",
              "type": "string"
            },
            {
              "internalType": "uint256",
              "name": "timestamp",
              "type": "uint256"
            },
            {
              "internalType": "enum OmniPayBridge.PaymentStatus",
              "name": "status",
              "type": "uint8"
            }
          ],
          "internalType": "struct OmniPayBridge.CrossChainPayment[]",
          "name": "",
          "type": "tuple[]"
        }
      ],
      "stateMutability": "view",
      "type": "function"
    },
    {
      "inputs": [
        {
          "internalType": "address",
          "name": "payee",
          "type": "address"
        },
        {
          "internalType": "address",
          "name": "token",
          "type": "address"
        },
        {
          "internalType": "uint256",
          "name": "amount",
          "type": "uint256"
        },
        {
          "internalType": "uint256",
          "name": "targetChainId",
          "type": "uint256"
        },
        {
          "internalType": "string",
          "name": "paymentRef",
          "type": "string"
        }
      ],
      "name": "initiateCrossChainPayment",
      "outputs": [
        {
          "internalType": "uint256",
          "name": "paymentId",
          "type": "uint256"
        }
      ],
      "stateMutability": "payable",
      "type": "function"
    },
    {
      "inputs": [],
      "name": "notifier",
      "outputs": [
        {
          "internalType": "address",
          "name": "",
          "type": "address"
        }
      ],
      "stateMutability": "view",
      "type": "function"
    },
    {
      "inputs": [],
      "name": "owner",
      "outputs": [
        {
          "internalType": "address",
          "name": "",
          "type": "address"
        }
      ],
      "stateMutability": "view",
      "type": "function"
    },
    {
      "inputs": [],
      "name": "pause",
      "outputs": [],
      "stateMutability": "nonpayable",
      "type": "function"
    },
    {
      "inputs": [],
      "name": "paused",
      "outputs": [
        {
          "internalType": "bool",
          "name": "",
          "type": "bool"
        }
      ],
      "stateMutability": "view",
      "type": "function"
    },
    {
      "inputs": [],
      "name": "paymentCount",
      "outputs": [
        {
          "internalType": "uint256",
          "name": "",
          "type": "uint256"
        }
      ],
      "stateMutability": "view",
      "type": "function"
    },
    {
      "inputs": [
        {
          "internalType": "uint256",
          "name": "",
          "type": "uint256"
        }
      ],
      "name": "payments",
      "outputs": [
        {
          "internalType": "address",
          "name": "payer",
          "type": "address"
        },
        {
          "internalType": "address",
          "name": "payee",
          "type": "address"
        },
        {
          "internalType": "address",
          "name": "token",
          "type": "address"
        },
        {
          "internalType": "uint256",
          "name": "amount",
          "type": "uint256"
        },
        {
          "internalType": "uint256",
          "name": "sourceChainId",
          "type": "uint256"
        },
        {
          "internalType": "uint256",
          "name": "targetChainId",
          "type": "uint256"
        },
        {
          "internalType": "string",
          "name": "paymentRef",
          "type": "string"
        },
        {
          "internalType": "uint256",
          "name": "timestamp",
          "type": "uint256"
        },
        {
          "internalType": "enum OmniPayBridge.PaymentStatus",
          "name": "status",
          "type": "uint8"
        }
      ],
      "stateMutability": "view",
      "type": "function"
    },
    {
      "inputs": [
        {
          "internalType": "bytes32",
          "name": "",
          "type": "bytes32"
        }
      ],
      "name": "processedPayments",
      "outputs": [
        {
          "internalType": "bool",
          "name": "",
          "type": "bool"
        }
      ],
      "stateMutability": "view",
      "type": "function"
    },
    {
      "inputs": [],
      "name": "pushComm",
      "outputs": [
        {
          "internalType": "address",
          "name": "",
          "type": "address"
        }
      ],
      "stateMutability": "view",
      "type": "function"
    },
    {
      "inputs": [
        {
          "internalType": "uint256",
          "name": "paymentId",
          "type": "uint256"
        }
      ],
      "name": "refundPayment",
      "outputs": [],
      "stateMutability": "nonpayable",
      "type": "function"
    },
    {
      "inputs": [
        {
          "internalType": "address",
          "name": "_relayer",
          "type": "address"
        }
      ],
      "name": "removeRelayer",
      "outputs": [],
      "stateMutability": "nonpayable",
      "type": "function"
    },
    {
      "inputs": [
        {
          "internalType": "uint256",
          "name": "_chainId",
          "type": "uint256"
        }
      ],
      "name": "removeSupportedChain",
      "outputs": [],
      "stateMutability": "nonpayable",
      "type": "function"
    },
    {
      "inputs": [],
      "name": "renounceOwnership",
      "outputs": [],
      "stateMutability": "nonpayable",
      "type": "function"
    },
    {
      "inputs": [
        {
          "internalType": "uint256",
          "name": "_fee",
          "type": "uint256"
        }
      ],
      "name": "setBridgeFee",
      "outputs": [],
      "stateMutability": "nonpayable",
      "type": "function"
    },
    {
      "inputs": [
        {
          "internalType": "address",
          "name": "_notifier",
          "type": "address"
        }
      ],
      "name": "setNotifier",
      "outputs": [],
      "stateMutability": "nonpayable",
      "type": "function"
    },
    {
      "inputs": [
        {
          "internalType": "address",
          "name": "_pushComm",
          "type": "address"
        },
        {
          "internalType": "address",
          "name": "_channel",
          "type": "address"
        }
      ],
      "name": "setPushConfig",
      "outputs": [],
      "stateMutability": "nonpayable",
      "type": "function"
    },
    {
      "inputs": [
        {
          "internalType": "uint256",
          "name": "",
          "type": "uint256"
        }
      ],
      "name": "supportedChains",
      "outputs": [
        {
          "internalType": "bool",
          "name": "",
          "type": "bool"
        }
      ],
      "stateMutability": "view",
      "type": "function"
    },
    {
      "inputs": [
        {
          "internalType": "address",
          "name": "newOwner",
          "type": "address"
        }
      ],
      "name": "transferOwnership",
      "outputs": [],
      "stateMutability": "nonpayable",
      "type": "function"
    },
    {
      "inputs": [],
      "name": "unpause",
      "outputs": [],
      "stateMutability": "nonpayable",
      "type": "function"
    },
    {
      "stateMutability": "payable",
      "type": "receive"
    }
  ],
  "bytecode": "0x60806040523480156200001157600080fd5b50604051620037f1380380620037f18339810160408190526200003491620001bc565b33806200005b57604051631e4fbdf760e01b81526000600482015260240160405180910390fd5b6200006681620000fa565b506001808055600780546001600160a01b038087166001600160a01b03199283161790925560088054868416908316179055600980549285169290911691909117905566038d7ea4c68000600a55620000bf906200014a565b620000cc6121056200014a565b620000d860896200014a565b620000e561a4b16200014a565b620000f1600a6200014a565b50505062000206565b600080546001600160a01b038381166001600160a01b0319831681178455604051919092169283917f8be0079c531659141344cd1fd0a4f28419497f9722a3daafe3b4186f6b6457e09190a35050565b600081815260056020908152604091829020805460ff19166001908117909155915191825282917f3867ef478c2fcf9f1d860353178b53a6a5b10cdee0ab40aacda7ca6b38b86d73910160405180910390a250565b80516001600160a01b0381168114620001b757600080fd5b919050565b600080600060608486031215620001d257600080fd5b620001dd846200019f565b9250620001ed602085016200019f565b9150620001fd604085016200019f565b90509250925092565b6135db80620002166000396000f3fe6080604052600436106101f25760003560e01c8063766a48391161010d578063998cdf83116100a0578063dd39f00d1161006f578063dd39f00d146105ad578063ea4dfdf6146105cd578063f2fde38b146105e9578063f3f247eb14610609578063f63813f41461063957600080fd5b8063998cdf8314610520578063abbb469514610540578063bc61495b14610560578063d92de32f1461058057600080fd5b806387188a00116100dc57806387188a001461048d57806387d81789146104ad5780638da5cb5b146104e257806395ccea671461050057600080fd5b8063766a4839146104225780637bbdb96e1461044257806382b12dd7146104625780638456cb591461047857600080fd5b80633d91b0e81161018557806360f0a5ac1161015457806360f0a5ac146103aa5780636812383d146103ca5780636f85e8b8146103e0578063715018a61461040d57600080fd5b80633d91b0e81461032d5780633f4ba83a1461034d578063548d496f146103625780635c975abb1461039257600080fd5b8063233f5731116101c1578063233f57311461029357806325acc449146102ad57806329e295c5146102c05780633280a8361461030057600080fd5b806309276ea4146101fe5780630937e68a1461023b5780630c4844aa1461025a578063218c4da01461027c57600080fd5b366101f957005b600080fd5b34801561020a57600080fd5b5060075461021e906001600160a01b031681565b6040516001600160a01b0390911681526020015b60405180910390f35b34801561024757600080fd5b506003545b604051908152602001610232565b34801561026657600080fd5b5061027a610275366004612b72565b610659565b005b34801561028857600080fd5b5061024c6201518081565b34801561029f57600080fd5b5061024c655af3107a400081565b61024c6102bb366004612bf0565b61077f565b3480156102cc57600080fd5b506102f06102db366004612c68565b60046020526000908152604090205460ff1681565b6040519015158152602001610232565b34801561030c57600080fd5b5061032061031b366004612b72565b610da4565b6040516102329190612dae565b34801561033957600080fd5b5061027a610348366004612dc1565b610f21565b34801561035957600080fd5b5061027a6114d8565b34801561036e57600080fd5b506102f061037d366004612b72565b60056020526000908152604090205460ff1681565b34801561039e57600080fd5b5060025460ff166102f0565b3480156103b657600080fd5b5061027a6103c5366004612c68565b6114ea565b3480156103d657600080fd5b5061024c61010081565b3480156103ec57600080fd5b506104006103fb366004612e53565b6115b1565b6040516102329190612e75565b34801561041957600080fd5b5061027a611838565b34801561042e57600080fd5b5061027a61043d366004612ed7565b61184a565b34801561044e57600080fd5b5060095461021e906001600160a01b031681565b34801561046e57600080fd5b5061024c600a5481565b34801561048457600080fd5b5061027a6118b0565b34801561049957600080fd5b5061027a6104a8366004612b72565b6118c0565b3480156104b957600080fd5b506104cd6104c8366004612b72565b611942565b60405161023299989796959493929190612f0a565b3480156104ee57600080fd5b506000546001600160a01b031661021e565b34801561050c57600080fd5b5061027a61051b366004612f79565b611a3c565b34801561052c57600080fd5b5061027a61053b366004612b72565b611b50565b34801561054c57600080fd5b5061027a61055b366004612c68565b611c4b565b34801561056c57600080fd5b5060085461021e906001600160a01b031681565b34801561058c57600080fd5b506105a061059b366004612c68565b611ca5565b6040516102329190612fa3565b3480156105b957600080fd5b5061027a6105c8366004612c68565b611deb565b3480156105d957600080fd5b5061024c670de0b6b3a764000081565b3480156105f557600080fd5b5061027a610604366004612c68565b611f1f565b34801561061557600080fd5b506102f0610624366004612b72565b60066020526000908152604090205460ff1681565b34801561064557600080fd5b5061027a610654366004612b72565b611f5a565b61066161233f565b60008181526005602052604090205460ff166106cf5760405162461bcd60e51b815260206004820152602260248201527f4f6d6e695061794272696467653a20436861696e206e6f7420737570706f7274604482015261195960f21b60648201526084015b60405180910390fd5b4681036107315760405162461bcd60e51b815260206004820152602a60248201527f4f6d6e695061794272696467653a2043616e6e6f742072656d6f7665206375726044820152693932b73a1031b430b4b760b11b60648201526084016106c6565b6000818152600560209081526040808320805460ff191690555191825282917f3867ef478c2fcf9f1d860353178b53a6a5b10cdee0ab40aacda7ca6b38b86d7391015b60405180910390a250565b600061078961236c565b610791612396565b6001600160a01b0387166107b75760405162461bcd60e51b81526004016106c690612fe7565b6000851161081f5760405162461bcd60e51b815260206004820152602f60248201527f4f6d6e695061794272696467653a20416d6f756e74206d75737420626520677260448201526e6561746572207468616e207a65726f60881b60648201526084016106c6565b60008481526005602052604090205460ff1661088d5760405162461bcd60e51b815260206004820152602760248201527f4f6d6e695061794272696467653a20556e737570706f727465642074617267656044820152663a1031b430b4b760c91b60648201526084016106c6565b4684036108ef5760405162461bcd60e51b815260206004820152602a60248201527f4f6d6e695061794272696467653a2043616e6e6f742062726964676520746f2060448201526939b0b6b29031b430b4b760b11b60648201526084016106c6565b61010082111561094d5760405162461bcd60e51b815260206004820152602360248201527f4f6d6e695061794272696467653a205061796d656e742072656620746f6f206c6044820152626f6e6760e81b60648201526084016106c6565b600a543410156109ae5760405162461bcd60e51b815260206004820152602660248201527f4f6d6e695061794272696467653a20496e73756666696369656e74206272696460448201526567652066656560d01b60648201526084016106c6565b6001600160a01b038616610ae5576000600a54866109cc9190613041565b905080341015610a2a5760405162461bcd60e51b8152602060048201526024808201527f4f6d6e695061794272696467653a20496e73756666696369656e7420455448206044820152631cd95b9d60e21b60648201526084016106c6565b80341115610adf57600033610a3f8334613054565b604051600081818185875af1925050503d8060008114610a7b576040519150601f19603f3d011682016040523d82523d6000602084013e610a80565b606091505b5050905080610add5760405162461bcd60e51b815260206004820152602360248201527f4f6d6e695061794272696467653a2045786365737320726566756e64206661696044820152621b195960ea1b60648201526084016106c6565b505b50610b62565b6000866001600160a01b03163b11610b4d5760405162461bcd60e51b815260206004820152602560248201527f4f6d6e695061794272696467653a20496e76616c696420746f6b656e20636f6e6044820152641d1c9858dd60da1b60648201526084016106c6565b610b626001600160a01b0387163330886123ba565b60038054905090506003604051806101200160405280336001600160a01b03168152602001896001600160a01b03168152602001886001600160a01b0316815260200187815260200146815260200186815260200185858080601f01602080910402602001604051908101604052809392919081815260200183838082843760009201829052509385525050426020840152506040909101528154600180820184556000938452602093849020835160099093020180546001600160a01b03199081166001600160a01b039485161782559484015191810180548616928416929092179091556040830151600282018054909516921691909117909255606081015160038301556080810151600483015560a0810151600583015560c08101519091906006820190610c9490826130fd565b5060e0820151600782015561010082015160088201805460ff19166001836003811115610cc357610cc3612cda565b02179055505050866001600160a01b0316336001600160a01b0316827ff8b454ffc91ef42317d8276449ad8e1fc117b8ca7ada187e7e35f436ba3f07fc8989468a8a8a604051610d18969594939291906131e6565b60405180910390a4610d91336040518060400160405280601d81526020017f43726f73732d636861696e207061796d656e7420696e69746961746564000000815250610d638a612427565b610d6c886126a8565b604051602001610d7d929190613226565b6040516020818303038152906040526127b9565b610d9a60018055565b9695505050505050565b610dac612b29565b6003548210610dcd5760405162461bcd60e51b81526004016106c69061328c565b60038281548110610de057610de06132cd565b60009182526020918290206040805161012081018252600990930290910180546001600160a01b03908116845260018201548116948401949094526002810154909316908201526003820154606082015260048201546080820152600582015460a082015260068201805491929160c084019190610e5d9061307d565b80601f0160208091040260200160405190810160405280929190818152602001828054610e899061307d565b8015610ed65780601f10610eab57610100808354040283529160200191610ed6565b820191906000526020600020905b815481529060010190602001808311610eb957829003601f168201915b505050918352505060078201546020820152600882015460409091019060ff166003811115610f0757610f07612cda565b6003811115610f1857610f18612cda565b90525092915050565b3360009081526004602052604090205460ff16610f8e5760405162461bcd60e51b815260206004820152602560248201527f4f6d6e695061794272696467653a204e6f7420617574686f72697a65642072656044820152643630bcb2b960d91b60648201526084016106c6565b610f9661236c565b610f9e612396565b6001600160a01b038616610fc45760405162461bcd60e51b81526004016106c690612fe7565b600084116110145760405162461bcd60e51b815260206004820152601d60248201527f4f6d6e695061794272696467653a20496e76616c696420616d6f756e7400000060448201526064016106c6565b60008381526005602052604090205460ff166110825760405162461bcd60e51b815260206004820152602760248201527f4f6d6e695061794272696467653a20556e737570706f7274656420736f757263604482015266329031b430b4b760c91b60648201526084016106c6565b4683036110dd5760405162461bcd60e51b815260206004820152602360248201527f4f6d6e695061794272696467653a20496e76616c696420736f7572636520636860448201526230b4b760e91b60648201526084016106c6565b600088888888888888886040516020016110fe9897969594939291906132e3565b60408051601f1981840301815291815281516020928301206000818152600690935291205490915060ff16156111875760405162461bcd60e51b815260206004820152602860248201527f4f6d6e695061794272696467653a205061796d656e7420616c726561647920706044820152671c9bd8d95cdcd95960c21b60648201526084016106c6565b6000818152600660205260409020805460ff191660011790556001600160a01b03861661128257844710156111ce5760405162461bcd60e51b81526004016106c690613341565b6000876001600160a01b03168660405160006040518083038185875af1925050503d806000811461121b576040519150601f19603f3d011682016040523d82523d6000602084013e611220565b606091505b505090508061127c5760405162461bcd60e51b815260206004820152602260248201527f4f6d6e695061794272696467653a20455448207472616e73666572206661696c604482015261195960f21b60648201526084016106c6565b50611296565b6112966001600160a01b038716888761286b565b6000600380549050905060036040518061012001604052808b6001600160a01b031681526020018a6001600160a01b03168152602001896001600160a01b0316815260200188815260200187815260200146815260200186868080601f016020809104026020016040519081016040528093929190818152602001838380828437600092019190915250505090825250426020820152604001600190528154600180820184556000938452602093849020835160099093020180546001600160a01b03199081166001600160a01b039485161782559484015191810180548616928416929092179091556040830151600282018054909516921691909117909255606081015160038301556080810151600483015560a0810151600583015560c081015190919060068201906113cc90826130fd565b5060e0820151600782015561010082015160088201805460ff191660018360038111156113fb576113fb612cda565b02179055505050876001600160a01b0316896001600160a01b03168b7f196eb651cbc34fe39d0c94b13a24f5ade7bba9c4fbb4f40131ee728c0ca06d4b8a8a8a468b8b604051611450969594939291906131e6565b60405180910390a461146689898989888861289c565b6114c3886040518060400160405280601c81526020017f43726f73732d636861696e207061796d656e74207265636569766564000000008152506114a9896126a8565b6114b28d612427565b604051602001610d7d929190613388565b50506114ce60018055565b5050505050505050565b6114e061233f565b6114e861291c565b565b6114f261233f565b6001600160a01b03811660009081526004602052604090205460ff166115685760405162461bcd60e51b815260206004820152602560248201527f4f6d6e695061794272696467653a2052656c61796572206e6f7420617574686f6044820152641c9a5e995960da1b60648201526084016106c6565b6001600160a01b038116600081815260046020526040808220805460ff19169055517f10e1f7ce9fd7d1b90a66d13a2ab3cb8dd7f29f3f8d520b143b063ccfbab6906b9190a250565b60035460609083106116165760405162461bcd60e51b815260206004820152602860248201527f4f6d6e695061794272696467653a20537461727420696e646578206f7574206f6044820152676620626f756e647360c01b60648201526084016106c6565b60006116228385613041565b60035490915081111561163457506003545b60006116408583613054565b905060008167ffffffffffffffff81111561165d5761165d613067565b60405190808252806020026020018201604052801561169657816020015b611683612b29565b81526020019060019003908161167b5790505b50905060005b8281101561182c5760036116b08289613041565b815481106116c0576116c06132cd565b60009182526020918290206040805161012081018252600990930290910180546001600160a01b03908116845260018201548116948401949094526002810154909316908201526003820154606082015260048201546080820152600582015460a082015260068201805491929160c08401919061173d9061307d565b80601f01602080910402602001604051908101604052809291908181526020018280546117699061307d565b80156117b65780601f1061178b576101008083540402835291602001916117b6565b820191906000526020600020905b81548152906001019060200180831161179957829003601f168201915b505050918352505060078201546020820152600882015460409091019060ff1660038111156117e7576117e7612cda565b60038111156117f8576117f8612cda565b8152505082828151811061180e5761180e6132cd565b60200260200101819052508080611824906133e5565b91505061169c565b50925050505b92915050565b61184061233f565b6114e8600061296e565b61185261233f565b600880546001600160a01b03199081166001600160a01b03858116918217909355600980549092169284169283179091556040517f1c1986e19d9664b5806787d6fb5c25465d377b49ff7e6a91405a5712be03353490600090a35050565b6118b861233f565b6114e86129be565b6118c861233f565b60008181526005602052604090205460ff16156119365760405162461bcd60e51b815260206004820152602660248201527f4f6d6e695061794272696467653a20436861696e20616c7265616479207375706044820152651c1bdc9d195960d21b60648201526084016106c6565b61193f816129fb565b50565b6003818154811061195257600080fd5b600091825260209091206009909102018054600182015460028301546003840154600485015460058601546006870180546001600160a01b039788169950958716979690941695929491939092916119a99061307d565b80601f01602080910402602001604051908101604052809291908181526020018280546119d59061307d565b8015611a225780601f106119f757610100808354040283529160200191611a22565b820191906000526020600020905b815481529060010190602001808311611a0557829003601f168201915b50505050600783015460089093015491929160ff16905089565b611a4461233f565b6001600160a01b038216611b265780471015611a725760405162461bcd60e51b81526004016106c690613341565b600080546040516001600160a01b039091169083908381818185875af1925050503d8060008114611abf576040519150601f19603f3d011682016040523d82523d6000602084013e611ac4565b606091505b5050905080611b215760405162461bcd60e51b8152602060048201526024808201527f4f6d6e695061794272696467653a20455448207769746864726177616c2066616044820152631a5b195960e21b60648201526084016106c6565b505050565b611b4c611b3b6000546001600160a01b031690565b6001600160a01b038416908361286b565b5050565b611b5861233f565b655af3107a4000811015611bae5760405162461bcd60e51b815260206004820181905260248201527f4f6d6e695061794272696467653a204665652062656c6f77206d696e696d756d60448201526064016106c6565b670de0b6b3a7640000811115611c065760405162461bcd60e51b815260206004820181905260248201527f4f6d6e695061794272696467653a204665652061626f7665206d6178696d756d60448201526064016106c6565b600a80549082905560408051828152602081018490527f3e7af433b010df0902f945628a14ef63c63e1e5e8306127bde522445a470588f910160405180910390a15050565b611c5361233f565b600780546001600160a01b038381166001600160a01b0319831681179093556040519116919082907f06145cb68dac95df12f615eb54ab8a71571c9e274bccb77cad7e6249b62d50dd90600090a35050565b60606000805b600354811015611d1157836001600160a01b031660038281548110611cd257611cd26132cd565b60009182526020909120600990910201546001600160a01b031603611cff5781611cfb816133e5565b9250505b80611d09816133e5565b915050611cab565b5060008167ffffffffffffffff811115611d2d57611d2d613067565b604051908082528060200260200182016040528015611d56578160200160208202803683370190505b5090506000805b600354811015611de157856001600160a01b031660038281548110611d8457611d846132cd565b60009182526020909120600990910201546001600160a01b031603611dcf5780838381518110611db657611db66132cd565b602090810291909101015281611dcb816133e5565b9250505b80611dd9816133e5565b915050611d5d565b5090949350505050565b611df361233f565b6001600160a01b038116611e585760405162461bcd60e51b815260206004820152602660248201527f4f6d6e695061794272696467653a20496e76616c69642072656c61796572206160448201526564647265737360d01b60648201526084016106c6565b6001600160a01b03811660009081526004602052604090205460ff1615611ed35760405162461bcd60e51b815260206004820152602960248201527f4f6d6e695061794272696467653a2052656c6179657220616c726561647920616044820152681d5d1a1bdc9a5e995960ba1b60648201526084016106c6565b6001600160a01b038116600081815260046020526040808220805460ff19166001179055517f03580ee9f53a62b7cb409a2cb56f9be87747dd15017afc5cef6eef321e4fb2c59190a250565b611f2761233f565b6001600160a01b038116611f5157604051631e4fbdf760e01b8152600060048201526024016106c6565b61193f8161296e565b611f6261236c565b6003548110611f835760405162461bcd60e51b81526004016106c69061328c565b600060038281548110611f9857611f986132cd565b6000918252602082206009909102019150600882015460ff166003811115611fc257611fc2612cda565b1461201d5760405162461bcd60e51b815260206004820152602560248201527f4f6d6e695061794272696467653a205061796d656e74206e6f7420726566756e6044820152646461626c6560d81b60648201526084016106c6565b80546000906001600160a01b031633148061204757503360009081526004602052604090205460ff165b8061205c57506000546001600160a01b031633145b905060006201518083600701546120739190613041565b421015905081806120815750805b6120dd5760405162461bcd60e51b815260206004820152602760248201527f4f6d6e695061794272696467653a204e6f7420617574686f72697a656420746f604482015266081c99599d5b9960ca1b60648201526084016106c6565b60088301805460ff191660029081179091558301546001600160a01b03166121ab57825460038401546040516000926001600160a01b031691908381818185875af1925050503d806000811461214f576040519150601f19603f3d011682016040523d82523d6000602084013e612154565b606091505b50509050806121a55760405162461bcd60e51b815260206004820181905260248201527f4f6d6e695061794272696467653a2045544820726566756e64206661696c656460448201526064016106c6565b506121cf565b8254600384015460028501546121cf926001600160a01b039182169291169061286b565b6000816121f4576040518060600160405280602481526020016135826024913961221f565b6040518060400160405280601181526020017014185e5b595b9d081d1a5b5959081bdd5d607a1b8152505b8454600286015460038701546040519394506001600160a01b039283169389937f62d1737b5850bda14e2f4a054282d52395d4855b82ef338555a530e86faf0b089361226f9391169187906133fe565b60405180910390a38354600185015460028601546003870154600688018054612332956001600160a01b0390811695811694169291906122ae9061307d565b80601f01602080910402602001604051908101604052809291908181526020018280546122da9061307d565b80156123275780601f106122fc57610100808354040283529160200191612327565b820191906000526020600020905b81548152906001019060200180831161230a57829003601f168201915b505050505086612a4a565b5050505061193f60018055565b6000546001600160a01b031633146114e85760405163118cdaa760e01b81523360048201526024016106c6565b60026001540361238f57604051633ee5aeb560e01b815260040160405180910390fd5b6002600155565b60025460ff16156114e85760405163d93c066560e01b815260040160405180910390fd5b6040516001600160a01b0384811660248301528381166044830152606482018390526124219186918216906323b872dd906084015b604051602081830303815290604052915060e01b6020820180516001600160e01b038381831617835250505050612a95565b50505050565b606060006040518060400160405280601081526020016f181899199a1a9b1b9c1cb0b131b232b360811b8152509050600083604051602001612481919060609190911b6bffffffffffffffffffffffff1916815260140190565b60408051808303601f19018152600a808452838301909252925060009190602082018180368337019050509050600360fc1b816000815181106124c6576124c66132cd565b60200101906001600160f81b031916908160001a905350600f60fb1b816001815181106124f5576124f56132cd565b60200101906001600160f81b031916908160001a90535060005b60048110156125a95783600484838151811061252d5761252d6132cd565b016020015182516001600160f81b031990911690911c60f81c908110612555576125556132cd565b01602001516001600160f81b03191682612570836002613041565b81518110612580576125806132cd565b60200101906001600160f81b031916908160001a905350806125a1816133e5565b91505061250f565b50601760f91b816006815181106125c2576125c26132cd565b60200101906001600160f81b031916908160001a905350601760f91b816007815181106125f1576125f16132cd565b60200101906001600160f81b031916908160001a905350601760f91b81600881518110612620576126206132cd565b60200101906001600160f81b031916908160001a905350828260138151811061264b5761264b6132cd565b602091010151815160f89190911c600f1690811061266b5761266b6132cd565b602001015160f81c60f81b81600981518110612689576126896132cd565b60200101906001600160f81b031916908160001a905350949350505050565b6060816000036126cf5750506040805180820190915260018152600360fc1b602082015290565b8160005b81156126f957806126e3816133e5565b91506126f29050600a83613444565b91506126d3565b60008167ffffffffffffffff81111561271457612714613067565b6040519080825280601f01601f19166020018201604052801561273e576020820181803683370190505b509050815b85156127b057612754600182613054565b90506000612763600a88613458565b61276e906030613041565b90508060f81b838381518110612786576127866132cd565b60200101906001600160f81b031916908160001a9053506127a8600a88613444565b965050612743565b50949350505050565b6008546001600160a01b0316158015906127dd57506009546001600160a01b031615155b15611b21576008546009546040516001600160a01b039283169263ba3d69d79216908690612811908790879060200161346c565b6040516020818303038152906040526040518463ffffffff1660e01b815260040161283e939291906134bf565b600060405180830381600087803b15801561285857600080fd5b505af19250505080156124215750505050565b6040516001600160a01b03838116602483015260448201839052611b2191859182169063a9059cbb906064016123ef565b6007546001600160a01b031615612914576007546040516352f4dbb160e11b81526001600160a01b039091169063a5e9b762906128e7908990899089908990899089906004016134eb565b600060405180830381600087803b15801561290157600080fd5b505af1925050508015612912575060015b505b505050505050565b612924612b06565b6002805460ff191690557f5db9ee0a495bf2e6ff9c91a7834c1ba4fdd244a5e8aa4e537bd38aeae4b073aa335b6040516001600160a01b03909116815260200160405180910390a1565b600080546001600160a01b038381166001600160a01b0319831681178455604051919092169283917f8be0079c531659141344cd1fd0a4f28419497f9722a3daafe3b4186f6b6457e09190a35050565b6129c6612396565b6002805460ff191660011790557f62e78cea01bee320cd4e420270b5ea74000d11b0c9f74754ebdbfc544b05a2586129513390565b600081815260056020908152604091829020805460ff19166001908117909155915191825282917f3867ef478c2fcf9f1d860353178b53a6a5b10cdee0ab40aacda7ca6b38b86d739101610774565b6007546001600160a01b031615612914576007546040516321c726c760e01b81526001600160a01b03909116906321c726c7906128e790899089908990899089908990600401613527565b600080602060008451602086016000885af180612ab8576040513d6000823e3d81fd5b50506000513d91508115612ad0578060011415612add565b6001600160a01b0384163b155b1561242157604051635274afe760e01b81526001600160a01b03851660048201526024016106c6565b60025460ff166114e857604051638dfc202b60e01b815260040160405180910390fd5b604080516101208101825260008082526020820181905291810182905260608082018390526080820183905260a0820183905260c082015260e081018290529061010082015290565b600060208284031215612b8457600080fd5b5035919050565b80356001600160a01b0381168114612ba257600080fd5b919050565b60008083601f840112612bb957600080fd5b50813567ffffffffffffffff811115612bd157600080fd5b602083019150836020828501011115612be957600080fd5b9250929050565b60008060008060008060a08789031215612c0957600080fd5b612c1287612b8b565b9550612c2060208801612b8b565b94506040870135935060608701359250608087013567ffffffffffffffff811115612c4a57600080fd5b612c5689828a01612ba7565b979a9699509497509295939492505050565b600060208284031215612c7a57600080fd5b612c8382612b8b565b9392505050565b60005b83811015612ca5578181015183820152602001612c8d565b50506000910152565b60008151808452612cc6816020860160208601612c8a565b601f01601f19169290920160200192915050565b634e487b7160e01b600052602160045260246000fd5b60048110612d0e57634e487b7160e01b600052602160045260246000fd5b9052565b600061012060018060a01b0383511684526020830151612d3d60208601826001600160a01b03169052565b506040830151612d5860408601826001600160a01b03169052565b50606083015160608501526080830151608085015260a083015160a085015260c08301518160c0860152612d8e82860182612cae565b91505060e083015160e085015261010080840151611de182870182612cf0565b602081526000612c836020830184612d12565b60008060008060008060008060e0898b031215612ddd57600080fd5b88359750612ded60208a01612b8b565b9650612dfb60408a01612b8b565b9550612e0960608a01612b8b565b94506080890135935060a0890135925060c089013567ffffffffffffffff811115612e3357600080fd5b612e3f8b828c01612ba7565b999c989b5096995094979396929594505050565b60008060408385031215612e6657600080fd5b50508035926020909101359150565b6000602080830181845280855180835260408601915060408160051b870101925083870160005b82811015612eca57603f19888603018452612eb8858351612d12565b94509285019290850190600101612e9c565b5092979650505050505050565b60008060408385031215612eea57600080fd5b612ef383612b8b565b9150612f0160208401612b8b565b90509250929050565b6001600160a01b038a81168252898116602083015288166040820152606081018790526080810186905260a0810185905261012060c08201819052600090612f5483820187612cae565b9150508360e0830152612f6b610100830184612cf0565b9a9950505050505050505050565b60008060408385031215612f8c57600080fd5b612f9583612b8b565b946020939093013593505050565b6020808252825182820181905260009190848201906040850190845b81811015612fdb57835183529284019291840191600101612fbf565b50909695505050505050565b60208082526024908201527f4f6d6e695061794272696467653a20496e76616c6964207061796565206164646040820152637265737360e01b606082015260800190565b634e487b7160e01b600052601160045260246000fd5b808201808211156118325761183261302b565b818103818111156118325761183261302b565b634e487b7160e01b600052604160045260246000fd5b600181811c9082168061309157607f821691505b6020821081036130b157634e487b7160e01b600052602260045260246000fd5b50919050565b601f821115611b2157600081815260208120601f850160051c810160208610156130de5750805b601f850160051c820191505b81811015612914578281556001016130ea565b815167ffffffffffffffff81111561311757613117613067565b61312b81613125845461307d565b846130b7565b602080601f83116001811461316057600084156131485750858301515b600019600386901b1c1916600185901b178555612914565b600085815260208120601f198616915b8281101561318f57888601518255948401946001909101908401613170565b50858210156131ad5787850151600019600388901b60f8161c191681555b5050505050600190811b01905550565b81835281816020850137506000828201602090810191909152601f909101601f19169091010190565b60018060a01b038716815285602082015284604082015283606082015260a06080820152600061321a60a0830184866131bd565b98975050505050505050565b7402830bcb6b2b73a1034b734ba34b0ba32b2103a379605d1b815260008351613256816015850160208801612c8a565b6901037b71031b430b4b7160b51b601591840191820152835161328081601f840160208801612c8a565b01601f01949350505050565b60208082526021908201527f4f6d6e695061794272696467653a20496e76616c6964207061796d656e7420496040820152601160fa1b606082015260800190565b634e487b7160e01b600052603260045260246000fd5b88815260006bffffffffffffffffffffffff19808a60601b166020840152808960601b166034840152808860601b1660488401525085605c83015284607c8301528284609c8401375060009101609c01908152979650505050505050565b60208082526027908201527f4f6d6e695061794272696467653a20496e73756666696369656e74204554482060408201526662616c616e636560c81b606082015260800190565b6802932b1b2b4bb32b2160bd1b8152600083516133ac816009850160208801612c8a565b6c0103a37b5b2b73990333937b69609d1b60099184019182015283516133d9816016840160208801612c8a565b01601601949350505050565b6000600182016133f7576133f761302b565b5060010190565b60018060a01b03841681528260208201526060604082015260006134256060830184612cae565b95945050505050565b634e487b7160e01b600052601260045260246000fd5b6000826134535761345361342e565b500490565b6000826134675761346761342e565b500690565b600360fc1b81526000602b60f81b8060018401528451613493816002860160208901612c8a565b8084019050816002820152845191506134b3826003830160208801612c8a565b01600301949350505050565b6001600160a01b0384811682528316602082015260606040820181905260009061342590830184612cae565b6001600160a01b0387811682528681166020830152851660408201526060810184905260a06080820181905260009061321a90830184866131bd565b6001600160a01b0387811682528681166020830152851660408201526060810184905260c06080820181905260009061356290830185612cae565b82810360a08401526135748185612cae565b999850505050505050505056fe5061796d656e7420726566756e64656420627920617574686f72697a6564207061727479a2646970667358221220f81e34f292f96010b060f37c98ef5d05dfcdba070c83c15010060ea738a0921864736f6c63430008140033",
  "linkReferences": {},
  "deployedLinkReferences": {}
}