{
  "_format": "hh-sol-artifact-1",
  "contractName": "OmniPaySettlement",
  "sourceName": "contracts/OmniPaySettlement.sol",
  "abi": [
    {
      "inputs": [
        {
          "internalType": "address",
          "name": "initialOwner",
          "type": "address"
        },
        {
          "internalType": "address",
          "name": "_notifier",
          "type": "address"
        }
      ],
      "stateMutability": "nonpayable",
      "type": "constructor"
    },
    {
      "inputs": [],
      "name": "CannotCancelExecutedSettlement",
      "type": "error"
    },
    {
      "inputs": [],
      "name": "EnforcedPause",
      "type": "error"
    },
    {
      "inputs": [],
      "name": "EthTransferFailed",
      "type": "error"
    },
    {
      "inputs": [],
      "name": "ExpectedPause",
      "type": "error"
    },
    {
      "inputs": [],
      "name": "IncorrectEthAmount",
      "type": "error"
    },
    {
      "inputs": [],
      "name": "InvalidAddress",
      "type": "error"
    },
    {
      "inputs": [],
      "name": "InvalidAmount",
      "type": "error"
    },
    {
      "inputs": [],
      "name": "InvalidExecutionMethod",
      "type": "error"
    },
    {
      "inputs": [],
      "name": "InvalidSettlementId",
      "type": "error"
    },
    {
      "inputs": [],
      "name": "InvalidTokenContract",
      "type": "error"
    },
    {
      "inputs": [
        {
          "internalType": "address",
          "name": "owner",
          "type": "address"
        }
      ],
      "name": "OwnableInvalidOwner",
      "type": "error"
    },
    {
      "inputs": [
        {
          "internalType": "address",
          "name": "account",
          "type": "address"
        }
      ],
      "name": "OwnableUnauthorizedAccount",
      "type": "error"
    },
    {
      "inputs": [],
      "name": "PaymentRefTooLong",
      "type": "error"
    },
    {
      "inputs": [],
      "name": "PermitAlreadyUsed",
      "type": "error"
    },
    {
      "inputs": [],
      "name": "ReentrancyGuardReentrantCall",
      "type": "error"
    },
    {
      "inputs": [
        {
          "internalType": "address",
          "name": "token",
          "type": "address"
        }
      ],
      "name": "SafeERC20FailedOperation",
      "type": "error"
    },
    {
      "inputs": [],
      "name": "SettlementAlreadyExecuted",
      "type": "error"
    },
    {
      "inputs": [],
      "name": "SettlementExpired",
      "type": "error"
    },
    {
      "inputs": [],
      "name": "UnauthorizedAccess",
      "type": "error"
    },
    {
      "anonymous": false,
      "inputs": [
        {
          "indexed": true,
          "internalType": "address",
          "name": "oldNotifier",
          "type": "address"
        },
        {
          "indexed": true,
          "internalType": "address",
          "name": "newNotifier",
          "type": "address"
        }
      ],
      "name": "NotifierUpdated",
      "type": "event"
    },
    {
      "anonymous": false,
      "inputs": [
        {
          "indexed": true,
          "internalType": "address",
          "name": "previousOwner",
          "type": "address"
        },
        {
          "indexed": true,
          "internalType": "address",
          "name": "newOwner",
          "type": "address"
        }
      ],
      "name": "OwnershipTransferred",
      "type": "event"
    },
    {
      "anonymous": false,
      "inputs": [
        {
          "indexed": false,
          "internalType": "address",
          "name": "account",
          "type": "address"
        }
      ],
      "name": "Paused",
      "type": "event"
    },
    {
      "anonymous": false,
      "inputs": [
        {
          "indexed": true,
          "internalType": "uint256",
          "name": "settlementId",
          "type": "uint256"
        },
        {
          "indexed": true,
          "internalType": "address",
          "name": "payer",
          "type": "address"
        },
        {
          "indexed": false,
          "internalType": "string",
          "name": "paymentRef",
          "type": "string"
        }
      ],
      "name": "SettlementCancelled",
      "type": "event"
    },
    {
      "anonymous": false,
      "inputs": [
        {
          "indexed": true,
          "internalType": "uint256",
          "name": "settlementId",
          "type": "uint256"
        },
        {
          "indexed": true,
          "internalType": "address",
          "name": "payer",
          "type": "address"
        },
        {
          "indexed": true,
          "internalType": "address",
          "name": "payee",
          "type": "address"
        },
        {
          "indexed": false,
          "internalType": "address",
          "name": "token",
          "type": "address"
        },
        {
          "indexed": false,
          "internalType": "uint256",
          "name": "amount",
          "type": "uint256"
        },
        {
          "indexed": false,
          "internalType": "string",
          "name": "paymentRef",
          "type": "string"
        }
      ],
      "name": "SettlementCreated",
      "type": "event"
    },
    {
      "anonymous": false,
      "inputs": [
        {
          "indexed": true,
          "internalType": "uint256",
          "name": "settlementId",
          "type": "uint256"
        },
        {
          "indexed": true,
          "internalType": "address",
          "name": "payer",
          "type": "address"
        },
        {
          "indexed": true,
          "internalType": "address",
          "name": "payee",
          "type": "address"
        },
        {
          "indexed": false,
          "internalType": "address",
          "name": "token",
          "type": "address"
        },
        {
          "indexed": false,
          "internalType": "uint256",
          "name": "amount",
          "type": "uint256"
        },
        {
          "indexed": false,
          "internalType": "address",
          "name": "executor",
          "type": "address"
        },
        {
          "indexed": false,
          "internalType": "string",
          "name": "paymentRef",
          "type": "string"
        }
      ],
      "name": "SettlementExecuted",
      "type": "event"
    },
    {
      "anonymous": false,
      "inputs": [
        {
          "indexed": true,
          "internalType": "uint256",
          "name": "settlementId",
          "type": "uint256"
        },
        {
          "indexed": true,
          "internalType": "address",
          "name": "payer",
          "type": "address"
        },
        {
          "indexed": true,
          "internalType": "address",
          "name": "payee",
          "type": "address"
        },
        {
          "indexed": false,
          "internalType": "address",
          "name": "token",
          "type": "address"
        },
        {
          "indexed": false,
          "internalType": "uint256",
          "name": "amount",
          "type": "uint256"
        },
        {
          "indexed": false,
          "internalType": "string",
          "name": "paymentRef",
          "type": "string"
        },
        {
          "indexed": false,
          "internalType": "string",
          "name": "reason",
          "type": "string"
        }
      ],
      "name": "SettlementFailed",
      "type": "event"
    },
    {
      "anonymous": false,
      "inputs": [
        {
          "indexed": false,
          "internalType": "address",
          "name": "account",
          "type": "address"
        }
      ],
      "name": "Unpaused",
      "type": "event"
    },
    {
      "inputs": [],
      "name": "MAX_PAYMENT_REF_LENGTH",
      "outputs": [
        {
          "internalType": "uint256",
          "name": "",
          "type": "uint256"
        }
      ],
      "stateMutability": "view",
      "type": "function"
    },
    {
      "inputs": [],
      "name": "SETTLEMENT_EXPIRY",
      "outputs": [
        {
          "internalType": "uint256",
          "name": "",
          "type": "uint256"
        }
      ],
      "stateMutability": "view",
      "type": "function"
    },
    {
      "inputs": [
        {
          "internalType": "uint256[]",
          "name": "settlementIds",
          "type": "uint256[]"
        }
      ],
      "name": "batchCancelSettlements",
      "outputs": [],
      "stateMutability": "nonpayable",
      "type": "function"
    },
    {
      "inputs": [
        {
          "internalType": "uint256",
          "name": "settlementId",
          "type": "uint256"
        }
      ],
      "name": "cancelSettlement",
      "outputs": [],
      "stateMutability": "nonpayable",
      "type": "function"
    },
    {
      "inputs": [
        {
          "internalType": "address",
          "name": "payee",
          "type": "address"
        },
        {
          "internalType": "address",
          "name": "token",
          "type": "address"
        },
        {
          "internalType": "uint256",
          "name": "amount",
          "type": "uint256"
        },
        {
          "internalType": "string",
          "name": "paymentRef",
          "type": "string"
        }
      ],
      "name": "createSettlement",
      "outputs": [
        {
          "internalType": "uint256",
          "name": "settlementId",
          "type": "uint256"
        }
      ],
      "stateMutability": "nonpayable",
      "type": "function"
    },
    {
      "inputs": [
        {
          "internalType": "address",
          "name": "token",
          "type": "address"
        },
        {
          "internalType": "uint256",
          "name": "amount",
          "type": "uint256"
        }
      ],
      "name": "emergencyWithdraw",
      "outputs": [],
      "stateMutability": "nonpayable",
      "type": "function"
    },
    {
      "inputs": [
        {
          "internalType": "uint256",
          "name": "settlementId",
          "type": "uint256"
        }
      ],
      "name": "executeETHSettlement",
      "outputs": [],
      "stateMutability": "payable",
      "type": "function"
    },
    {
      "inputs": [
        {
          "internalType": "uint256",
          "name": "settlementId",
          "type": "uint256"
        }
      ],
      "name": "executeSettlement",
      "outputs": [],
      "stateMutability": "nonpayable",
      "type": "function"
    },
    {
      "inputs": [
        {
          "internalType": "uint256",
          "name": "settlementId",
          "type": "uint256"
        }
      ],
      "name": "executeSettlementOnBehalf",
      "outputs": [],
      "stateMutability": "nonpayable",
      "type": "function"
    },
    {
      "inputs": [
        {
          "internalType": "uint256",
          "name": "settlementId",
          "type": "uint256"
        },
        {
          "internalType": "uint256",
          "name": "deadline",
          "type": "uint256"
        },
        {
          "internalType": "uint8",
          "name": "v",
          "type": "uint8"
        },
        {
          "internalType": "bytes32",
          "name": "r",
          "type": "bytes32"
        },
        {
          "internalType": "bytes32",
          "name": "s",
          "type": "bytes32"
        }
      ],
      "name": "executeSettlementWithPermit",
      "outputs": [],
      "stateMutability": "nonpayable",
      "type": "function"
    },
    {
      "inputs": [
        {
          "internalType": "address",
          "name": "payee",
          "type": "address"
        }
      ],
      "name": "getPayeeSettlements",
      "outputs": [
        {
          "internalType": "uint256[]",
          "name": "",
          "type": "uint256[]"
        }
      ],
      "stateMutability": "view",
      "type": "function"
    },
    {
      "inputs": [
        {
          "internalType": "address",
          "name": "payer",
          "type": "address"
        }
      ],
      "name": "getPayerSettlements",
      "outputs": [
        {
          "internalType": "uint256[]",
          "name": "",
          "type": "uint256[]"
        }
      ],
      "stateMutability": "view",
      "type": "function"
    },
    {
      "inputs": [
        {
          "internalType": "uint256",
          "name": "settlementId",
          "type": "uint256"
        }
      ],
      "name": "getSettlement",
      "outputs": [
        {
          "components": [
            {
              "internalType": "address",
              "name": "payer",
              "type": "address"
            },
            {
              "internalType": "address",
              "name": "payee",
              "type": "address"
            },
            {
              "internalType": "address",
              "name": "token",
              "type": "address"
            },
            {
              "internalType": "uint256",
              "name": "amount",
              "type": "uint256"
            },
            {
              "internalType": "uint256",
              "name": "timestamp",
              "type": "uint256"
            },
            {
              "internalType": "string",
              "name": "paymentRef",
              "type": "string"
            },
            {
              "internalType": "enum OmniPaySettlement.SettlementStatus",
              "name": "status",
              "type": "uint8"
            },
            {
              "internalType": "address",
              "name": "executor",
              "type": "address"
            }
          ],
          "internalType": "struct OmniPaySettlement.Settlement",
          "name": "",
          "type": "tuple"
        }
      ],
      "stateMutability": "view",
      "type": "function"
    },
    {
      "inputs": [
        {
          "internalType": "enum OmniPaySettlement.SettlementStatus",
          "name": "status",
          "type": "uint8"
        },
        {
          "internalType": "uint256",
          "name": "startIndex",
          "type": "uint256"
        },
        {
          "internalType": "uint256",
          "name": "count",
          "type": "uint256"
        }
      ],
      "name": "getSettlementsByStatus",
      "outputs": [
        {
          "components": [
            {
              "internalType": "address",
              "name": "payer",
              "type": "address"
            },
            {
              "internalType": "address",
              "name": "payee",
              "type": "address"
            },
            {
              "internalType": "address",
              "name": "token",
              "type": "address"
            },
            {
              "internalType": "uint256",
              "name": "amount",
              "type": "uint256"
            },
            {
              "internalType": "uint256",
              "name": "timestamp",
              "type": "uint256"
            },
            {
              "internalType": "string",
              "name": "paymentRef",
              "type": "string"
            },
            {
              "internalType": "enum OmniPaySettlement.SettlementStatus",
              "name": "status",
              "type": "uint8"
            },
            {
              "internalType": "address",
              "name": "executor",
              "type": "address"
            }
          ],
          "internalType": "struct OmniPaySettlement.Settlement[]",
          "name": "",
          "type": "tuple[]"
        }
      ],
      "stateMutability": "view",
      "type": "function"
    },
    {
      "inputs": [
        {
          "internalType": "uint256",
          "name": "settlementId",
          "type": "uint256"
        }
      ],
      "name": "isSettlementExpired",
      "outputs": [
        {
          "internalType": "bool",
          "name": "",
          "type": "bool"
        }
      ],
      "stateMutability": "view",
      "type": "function"
    },
    {
      "inputs": [],
      "name": "notifier",
      "outputs": [
        {
          "internalType": "address",
          "name": "",
          "type": "address"
        }
      ],
      "stateMutability": "view",
      "type": "function"
    },
    {
      "inputs": [],
      "name": "owner",
      "outputs": [
        {
          "internalType": "address",
          "name": "",
          "type": "address"
        }
      ],
      "stateMutability": "view",
      "type": "function"
    },
    {
      "inputs": [],
      "name": "pause",
      "outputs": [],
      "stateMutability": "nonpayable",
      "type": "function"
    },
    {
      "inputs": [],
      "name": "paused",
      "outputs": [
        {
          "internalType": "bool",
          "name": "",
          "type": "bool"
        }
      ],
      "stateMutability": "view",
      "type": "function"
    },
    {
      "inputs": [],
      "name": "renounceOwnership",
      "outputs": [],
      "stateMutability": "nonpayable",
      "type": "function"
    },
    {
      "inputs": [
        {
          "internalType": "address",
          "name": "_notifier",
          "type": "address"
        }
      ],
      "name": "setNotifier",
      "outputs": [],
      "stateMutability": "nonpayable",
      "type": "function"
    },
    {
      "inputs": [],
      "name": "settlementCount",
      "outputs": [
        {
          "internalType": "uint256",
          "name": "",
          "type": "uint256"
        }
      ],
      "stateMutability": "view",
      "type": "function"
    },
    {
      "inputs": [
        {
          "internalType": "uint256",
          "name": "",
          "type": "uint256"
        }
      ],
      "name": "settlements",
      "outputs": [
        {
          "internalType": "address",
          "name": "payer",
          "type": "address"
        },
        {
          "internalType": "address",
          "name": "payee",
          "type": "address"
        },
        {
          "internalType": "address",
          "name": "token",
          "type": "address"
        },
        {
          "internalType": "uint256",
          "name": "amount",
          "type": "uint256"
        },
        {
          "internalType": "uint256",
          "name": "timestamp",
          "type": "uint256"
        },
        {
          "internalType": "string",
          "name": "paymentRef",
          "type": "string"
        },
        {
          "internalType": "enum OmniPaySettlement.SettlementStatus",
          "name": "status",
          "type": "uint8"
        },
        {
          "internalType": "address",
          "name": "executor",
          "type": "address"
        }
      ],
      "stateMutability": "view",
      "type": "function"
    },
    {
      "inputs": [
        {
          "internalType": "address",
          "name": "newOwner",
          "type": "address"
        }
      ],
      "name": "transferOwnership",
      "outputs": [],
      "stateMutability": "nonpayable",
      "type": "function"
    },
    {
      "inputs": [],
      "name": "unpause",
      "outputs": [],
      "stateMutability": "nonpayable",
      "type": "function"
    },
    {
      "inputs": [
        {
          "internalType": "bytes32",
          "name": "",
          "type": "bytes32"
        }
      ],
      "name": "usedPermits",
      "outputs": [
        {
          "internalType": "bool",
          "name": "",
          "type": "bool"
        }
      ],
      "stateMutability": "view",
      "type": "function"
    },
    {
      "stateMutability": "payable",
      "type": "receive"
    }
  ],
  "bytecode": "0x60806040523480156200001157600080fd5b506040516200256d3803806200256d833981016040819052620000349162000130565b816001600160a01b0381166200006457604051631e4fbdf760e01b81526000600482015260240160405180910390fd5b6200006f81620000c3565b50600180556001600160a01b0382166200009c5760405163e6c4247b60e01b815260040160405180910390fd5b600480546001600160a01b0319166001600160a01b03929092169190911790555062000168565b600080546001600160a01b038381166001600160a01b0319831681178455604051919092169283917f8be0079c531659141344cd1fd0a4f28419497f9722a3daafe3b4186f6b6457e09190a35050565b80516001600160a01b03811681146200012b57600080fd5b919050565b600080604083850312156200014457600080fd5b6200014f8362000113565b91506200015f6020840162000113565b90509250929050565b6123f580620001786000396000f3fe6080604052600436106101855760003560e01c8063764217e9116100d1578063abbb46951161008a578063cab8eb4311610064578063cab8eb43146104a0578063e24348fb146104c0578063f2fde38b146104f0578063f780b07c1461051057600080fd5b8063abbb469514610449578063ac3de28814610469578063c593b60b1461048957600080fd5b8063764217e9146103a957806383c0b8ac1461035e5780638456cb59146103d65780638da5cb5b146103eb57806395ccea67146104095780639650d1f51461042957600080fd5b80633f4ba83a1161013e5780635c975abb116101185780635c975abb1461033a57806362446f621461035e5780636812383d1461037e578063715018a61461039457600080fd5b80633f4ba83a146102d857806341a149ec146102ed5780634c5823801461030d57600080fd5b8063037eca76146101e657806308df7dc81461020a57806309276ea41461023e57806309f7dd1d1461027657806310ba705b146102a3578063143c515b146102b857600080fd5b366101e15760405162461bcd60e51b815260206004820152602160248201527f5573652065786563757465455448536574746c656d656e742066756e6374696f6044820152603760f91b60648201526084015b60405180910390fd5b600080fd5b3480156101f257600080fd5b506003545b6040519081526020015b60405180910390f35b34801561021657600080fd5b5061022a610225366004611c58565b610530565b604051610201989796959493929190611cef565b34801561024a57600080fd5b5060045461025e906001600160a01b031681565b6040516001600160a01b039091168152602001610201565b34801561028257600080fd5b50610296610291366004611d6b565b61062d565b6040516102019190611d8d565b6102b66102b1366004611c58565b610640565b005b3480156102c457600080fd5b506102b66102d3366004611c58565b61076b565b3480156102e457600080fd5b506102b66108ce565b3480156102f957600080fd5b506102b6610308366004611dd1565b6108e0565b34801561031957600080fd5b5061032d610328366004611c58565b610aa2565b6040516102019190611e9f565b34801561034657600080fd5b5060025460ff165b6040519015158152602001610201565b34801561036a57600080fd5b506102b6610379366004611c58565b610c26565b34801561038a57600080fd5b506101f761010081565b3480156103a057600080fd5b506102b6610cb1565b3480156103b557600080fd5b506103c96103c4366004611eb2565b610cc3565b6040516102019190611eeb565b3480156103e257600080fd5b506102b661100c565b3480156103f757600080fd5b506000546001600160a01b031661025e565b34801561041557600080fd5b506102b6610424366004611f4d565b61101c565b34801561043557600080fd5b50610296610444366004611d6b565b611121565b34801561045557600080fd5b506102b6610464366004611d6b565b61112e565b34801561047557600080fd5b5061034e610484366004611c58565b611188565b34801561049557600080fd5b506101f762278d0081565b3480156104ac57600080fd5b506102b66104bb366004611f77565b6111ee565b3480156104cc57600080fd5b5061034e6104db366004611c58565b60056020526000908152604090205460ff1681565b3480156104fc57600080fd5b506102b661050b366004611d6b565b61133d565b34801561051c57600080fd5b506101f761052b366004611fec565b611378565b6003818154811061054057600080fd5b60009182526020909120600790910201805460018201546002830154600384015460048501546005860180546001600160a01b039687169850948616969590931694919390929061059090612087565b80601f01602080910402602001604051908101604052809291908181526020018280546105bc90612087565b80156106095780601f106105de57610100808354040283529160200191610609565b820191906000526020600020905b8154815290600101906020018083116105ec57829003601f168201915b5050506006909301549192505060ff8116906001600160a01b036101009091041688565b606061063a8260006115ee565b92915050565b6106486117b2565b6106506117dc565b600061065b82611800565b60028101549091506001600160a01b03161561068a57604051639213fd1560e01b815260040160405180910390fd5b80546001600160a01b031633146106b457604051631a27eac360e11b815260040160405180910390fd5b806003015434146106d857604051638b6ebb4d60e01b815260040160405180910390fd5b6106e38183336118b8565b600181015460038201546040516000926001600160a01b031691908381818185875af1925050503d8060008114610736576040519150601f19603f3d011682016040523d82523d6000602084013e61073b565b606091505b505090508061075d57604051630db2c7f160e31b815260040160405180910390fd5b505061076860018055565b50565b600354811061078d57604051630523e26360e11b815260040160405180910390fd5b6000600382815481106107a2576107a26120c1565b6000918252602090912060079091020180549091506001600160a01b031633148015906107da57506000546001600160a01b03163314155b156107f857604051631a27eac360e11b815260040160405180910390fd5b6000600682015460ff16600281111561081357610813611cb7565b146108315760405163e64f0b1960e01b815260040160405180910390fd5b60068101805460ff1916600217905580546040516001600160a01b039091169083907f9a4f3df04be9855a66f4c90eefad04c487b504a8f81b09a9d70347e9f6aec94e90610883906005860190612154565b60405180910390a36108ca816040518060400160405280601d81526020017f536574746c656d656e742063616e63656c6c6564206279207061796572000000815250611943565b5050565b6108d66119d6565b6108de611a03565b565b6108e86117b2565b6108f06117dc565b60006108fb86611800565b60028101549091506001600160a01b031661092957604051639213fd1560e01b815260040160405180910390fd5b60408051602081018890529081018690526001600160f81b031960f886901b166060820152606181018490526081810183905260009060a10160408051601f1981840301815291815281516020928301206000818152600590935291205490915060ff16156109ab5760405163493efc1960e01b815260040160405180910390fd5b6000818152600560205260409020805460ff191660011790556109cf8288336118b8565b60028201548254600384015460405163d505accf60e01b81526001600160a01b03928316600482015230602482015260448101919091526064810189905260ff8816608482015260a4810187905260c4810186905291169063d505accf9060e401600060405180830381600087803b158015610a4a57600080fd5b505af1158015610a5e573d6000803e3d6000fd5b50508354600185015460038601546002870154610a9095506001600160a01b0390811694509283169290911690611a55565b5050610a9b60018055565b5050505050565b610aaa611c14565b6003548210610acc57604051630523e26360e11b815260040160405180910390fd5b60038281548110610adf57610adf6120c1565b60009182526020918290206040805161010081018252600790930290910180546001600160a01b0390811684526001820154811694840194909452600281015490931690820152600382015460608201526004820154608082015260058201805491929160a084019190610b5290612087565b80601f0160208091040260200160405190810160405280929190818152602001828054610b7e90612087565b8015610bcb5780601f10610ba057610100808354040283529160200191610bcb565b820191906000526020600020905b815481529060010190602001808311610bae57829003601f168201915b5050509183525050600682015460209091019060ff166002811115610bf257610bf2611cb7565b6002811115610c0357610c03611cb7565b81526006919091015461010090046001600160a01b031660209091015292915050565b610c2e6117b2565b610c366117dc565b6000610c4182611800565b60028101549091506001600160a01b0316610c6f57604051639213fd1560e01b815260040160405180910390fd5b610c7a8183336118b8565b8054600182015460038301546002840154610ca7936001600160a01b039182169390821692911690611a55565b5061076860018055565b610cb96119d6565b6108de6000611ac2565b60035460609060008167ffffffffffffffff811115610ce457610ce4612167565b604051908082528060200260200182016040528015610d0d578160200160208202803683370190505b5090506000805b83811015610dac57876002811115610d2e57610d2e611cb7565b60038281548110610d4157610d416120c1565b600091825260209091206006600790920201015460ff166002811115610d6957610d69611cb7565b03610d9a5780838381518110610d8157610d816120c1565b602090810291909101015281610d9681612193565b9250505b80610da481612193565b915050610d14565b506000818711610dbc5786610dbe565b815b9050600082610dcd88846121ac565b11610de157610ddc87836121ac565b610de3565b825b90506000610df183836121bf565b905060008167ffffffffffffffff811115610e0e57610e0e612167565b604051908082528060200260200182016040528015610e4757816020015b610e34611c14565b815260200190600190039081610e2c5790505b50905060005b82811015610ffd57600387610e6283886121ac565b81518110610e7257610e726120c1565b602002602001015181548110610e8a57610e8a6120c1565b60009182526020918290206040805161010081018252600790930290910180546001600160a01b0390811684526001820154811694840194909452600281015490931690820152600382015460608201526004820154608082015260058201805491929160a084019190610efd90612087565b80601f0160208091040260200160405190810160405280929190818152602001828054610f2990612087565b8015610f765780601f10610f4b57610100808354040283529160200191610f76565b820191906000526020600020905b815481529060010190602001808311610f5957829003601f168201915b5050509183525050600682015460209091019060ff166002811115610f9d57610f9d611cb7565b6002811115610fae57610fae611cb7565b81526006919091015461010090046001600160a01b03166020909101528251839083908110610fdf57610fdf6120c1565b60200260200101819052508080610ff590612193565b915050610e4d565b509a9950505050505050505050565b6110146119d6565b6108de611b12565b6110246119d6565b6001600160a01b0382166110fb57804710156110825760405162461bcd60e51b815260206004820152601860248201527f496e73756666696369656e74204554482062616c616e6365000000000000000060448201526064016101d8565b600080546040516001600160a01b039091169083908381818185875af1925050503d80600081146110cf576040519150601f19603f3d011682016040523d82523d6000602084013e6110d4565b606091505b50509050806110f657604051630db2c7f160e31b815260040160405180910390fd5b505050565b6108ca6111106000546001600160a01b031690565b6001600160a01b0384169083611b4f565b606061063a8260016115ee565b6111366119d6565b600480546001600160a01b038381166001600160a01b0319831681179093556040519116919082907f06145cb68dac95df12f615eb54ab8a71571c9e274bccb77cad7e6249b62d50dd90600090a35050565b60035460009082106111ad57604051630523e26360e11b815260040160405180910390fd5b6000600383815481106111c2576111c26120c1565b9060005260206000209060070201905062278d0081600401546111e591906121ac565b42119392505050565b60005b818110156110f657600083838381811061120d5761120d6120c1565b9050602002013590506003805490508110611228575061132b565b60006003828154811061123d5761123d6120c1565b6000918252602090912060079091020180549091506001600160a01b0316331461126857505061132b565b6000600682015460ff16600281111561128357611283611cb7565b1461128f57505061132b565b60068101805460ff1916600217905580546040516001600160a01b039091169083907f9a4f3df04be9855a66f4c90eefad04c487b504a8f81b09a9d70347e9f6aec94e906112e1906005860190612154565b60405180910390a3611328816040518060400160405280601d81526020017f536574746c656d656e742063616e63656c6c6564206279207061796572000000815250611943565b50505b8061133581612193565b9150506111f1565b6113456119d6565b6001600160a01b03811661136f57604051631e4fbdf760e01b8152600060048201526024016101d8565b61076881611ac2565b60006113826117dc565b6001600160a01b0386166113a95760405163e6c4247b60e01b815260040160405180910390fd5b836000036113ca5760405163162908e360e11b815260040160405180910390fd5b6101008211156113ed576040516324f3eae760e01b815260040160405180910390fd5b6001600160a01b0385161580159061140d57506001600160a01b0385163b155b1561142b57604051630a6f7ecd60e21b815260040160405180910390fd5b60038054905090506003604051806101000160405280336001600160a01b03168152602001886001600160a01b03168152602001876001600160a01b0316815260200186815260200142815260200185858080601f016020809104026020016040519081016040528093929190818152602001838380828437600092018290525093855250506020909201915081526000602091820181905283546001808201865594825290829020835160079092020180546001600160a01b03199081166001600160a01b0393841617825592840151948101805484169583169590951790945560408301516002850180549093169116179055606081015160038301556080810151600483015560a0810151909190600582019061154b9082612220565b5060c082015160068201805460ff1916600183600281111561156f5761156f611cb7565b021790555060e0919091015160069091018054610100600160a81b0319166101006001600160a01b039384160217905560405190871690339083907fd015446b0a70a4117ad8705e1de17647aef4f5fa9265849cff88b5ac99200083906115dd908a908a908a908a906122e0565b60405180910390a495945050505050565b60035460609060008167ffffffffffffffff81111561160f5761160f612167565b604051908082528060200260200182016040528015611638578160200160208202803683370190505b5090506000805b8381101561170b576000866116835760038281548110611661576116616120c1565b60009182526020909120600160079092020101546001600160a01b03166116b1565b60038281548110611696576116966120c1565b60009182526020909120600790910201546001600160a01b03165b9050876001600160a01b0316816001600160a01b0316036116f857818484815181106116df576116df6120c1565b6020908102919091010152826116f481612193565b9350505b508061170381612193565b91505061163f565b5060008167ffffffffffffffff81111561172757611727612167565b604051908082528060200260200182016040528015611750578160200160208202803683370190505b50905060005b828110156117a757838181518110611770576117706120c1565b602002602001015182828151811061178a5761178a6120c1565b60209081029190910101528061179f81612193565b915050611756565b509695505050505050565b6002600154036117d557604051633ee5aeb560e01b815260040160405180910390fd5b6002600155565b60025460ff16156108de5760405163d93c066560e01b815260040160405180910390fd5b600354600090821061182557604051630523e26360e11b815260040160405180910390fd5b60038281548110611838576118386120c1565b6000918252602082206007909102019150600682015460ff16600281111561186257611862611cb7565b14611880576040516315c0edab60e31b815260040160405180910390fd5b62278d00816004015461189391906121ac565b4211156118b3576040516379ec73d960e01b815260040160405180910390fd5b919050565b60068301805460016001600160a01b03848116610100026001600160a81b031990931692909217811790925590840154845460028601546003870154604051938516949283169387937f942fe5548aebd621cfe23c1bce1ea05a81a520c56a43f3c3c7f0e6e8fa57e0769361193693911691889060058c0190612328565b60405180910390a4505050565b6004546001600160a01b0316156108ca576004805483546001850154600286015460038701546040516321c726c760e01b81526001600160a01b03958616966321c726c7966119a29681169581169416929160058b01918a9101612365565b600060405180830381600087803b1580156119bc57600080fd5b505af19250505080156119cd575060015b156108ca575050565b6000546001600160a01b031633146108de5760405163118cdaa760e01b81523360048201526024016101d8565b611a0b611b80565b6002805460ff191690557f5db9ee0a495bf2e6ff9c91a7834c1ba4fdd244a5e8aa4e537bd38aeae4b073aa335b6040516001600160a01b03909116815260200160405180910390a1565b6040516001600160a01b038481166024830152838116604483015260648201839052611abc9186918216906323b872dd906084015b604051602081830303815290604052915060e01b6020820180516001600160e01b038381831617835250505050611ba3565b50505050565b600080546001600160a01b038381166001600160a01b0319831681178455604051919092169283917f8be0079c531659141344cd1fd0a4f28419497f9722a3daafe3b4186f6b6457e09190a35050565b611b1a6117dc565b6002805460ff191660011790557f62e78cea01bee320cd4e420270b5ea74000d11b0c9f74754ebdbfc544b05a258611a383390565b6040516001600160a01b038381166024830152604482018390526110f691859182169063a9059cbb90606401611a8a565b60025460ff166108de57604051638dfc202b60e01b815260040160405180910390fd5b600080602060008451602086016000885af180611bc6576040513d6000823e3d81fd5b50506000513d91508115611bde578060011415611beb565b6001600160a01b0384163b155b15611abc57604051635274afe760e01b81526001600160a01b03851660048201526024016101d8565b604080516101008101825260008082526020820181905291810182905260608082018390526080820183905260a08201529060c08201908152600060209091015290565b600060208284031215611c6a57600080fd5b5035919050565b6000815180845260005b81811015611c9757602081850181015186830182015201611c7b565b506000602082860101526020601f19601f83011685010191505092915050565b634e487b7160e01b600052602160045260246000fd5b60038110611ceb57634e487b7160e01b600052602160045260246000fd5b9052565b600061010060018060a01b03808c168452808b166020850152808a1660408501528860608501528760808501528160a0850152611d2e82850188611c71565b9250611d3d60c0850187611ccd565b80851660e085015250509998505050505050505050565b80356001600160a01b03811681146118b357600080fd5b600060208284031215611d7d57600080fd5b611d8682611d54565b9392505050565b6020808252825182820181905260009190848201906040850190845b81811015611dc557835183529284019291840191600101611da9565b50909695505050505050565b600080600080600060a08688031215611de957600080fd5b8535945060208601359350604086013560ff81168114611e0857600080fd5b94979396509394606081013594506080013592915050565b600061010060018060a01b03808451168552806020850151166020860152806040850151166040860152606084015160608601526080840151608086015260a08401518260a0870152611e7583870182611c71565b92505060c0840151611e8a60c0870182611ccd565b5060e093840151169390920192909252919050565b602081526000611d866020830184611e20565b600080600060608486031215611ec757600080fd5b833560038110611ed657600080fd5b95602085013595506040909401359392505050565b6000602080830181845280855180835260408601915060408160051b870101925083870160005b82811015611f4057603f19888603018452611f2e858351611e20565b94509285019290850190600101611f12565b5092979650505050505050565b60008060408385031215611f6057600080fd5b611f6983611d54565b946020939093013593505050565b60008060208385031215611f8a57600080fd5b823567ffffffffffffffff80821115611fa257600080fd5b818501915085601f830112611fb657600080fd5b813581811115611fc557600080fd5b8660208260051b8501011115611fda57600080fd5b60209290920196919550909350505050565b60008060008060006080868803121561200457600080fd5b61200d86611d54565b945061201b60208701611d54565b935060408601359250606086013567ffffffffffffffff8082111561203f57600080fd5b818801915088601f83011261205357600080fd5b81358181111561206257600080fd5b89602082850101111561207457600080fd5b9699959850939650602001949392505050565b600181811c9082168061209b57607f821691505b6020821081036120bb57634e487b7160e01b600052602260045260246000fd5b50919050565b634e487b7160e01b600052603260045260246000fd5b600081546120e481612087565b808552602060018381168015612101576001811461211b57612149565b60ff1985168884015283151560051b880183019550612149565b866000528260002060005b858110156121415781548a8201860152908301908401612126565b890184019650505b505050505092915050565b602081526000611d8660208301846120d7565b634e487b7160e01b600052604160045260246000fd5b634e487b7160e01b600052601160045260246000fd5b6000600182016121a5576121a561217d565b5060010190565b8082018082111561063a5761063a61217d565b8181038181111561063a5761063a61217d565b601f8211156110f657600081815260208120601f850160051c810160208610156121f95750805b601f850160051c820191505b8181101561221857828155600101612205565b505050505050565b815167ffffffffffffffff81111561223a5761223a612167565b61224e816122488454612087565b846121d2565b602080601f831160018114612283576000841561226b5750858301515b600019600386901b1c1916600185901b178555612218565b600085815260208120601f198616915b828110156122b257888601518255948401946001909101908401612293565b50858210156122d05787850151600019600388901b60f8161c191681555b5050505050600190811b01905550565b6001600160a01b0385168152602081018490526060604082018190528101829052818360808301376000818301608090810191909152601f909201601f191601019392505050565b6001600160a01b038581168252602082018590528316604082015260806060820181905260009061235b908301846120d7565b9695505050505050565b6001600160a01b0387811682528681166020830152851660408201526060810184905260c0608082018190526000906123a0908301856120d7565b82810360a08401526123b28185611c71565b999850505050505050505056fea2646970667358221220138392559d995fe4fa1a9b6d109560a0b22d0ae0fe4c6b85ec4956e722aeb89e64736f6c63430008140033",
  "linkReferences": {},
  "deployedLinkReferences": {}
}