{
  "_format": "hh-sol-artifact-1",
  "contractName": "OmniPaySubscription",
  "sourceName": "contracts/OmniPaySubscription.sol",
  "abi": [
    {
      "inputs": [
        {
          "internalType": "address",
          "name": "_notifier",
          "type": "address"
        }
      ],
      "stateMutability": "nonpayable",
      "type": "constructor"
    },
    {
      "inputs": [
        {
          "internalType": "address",
          "name": "owner",
          "type": "address"
        }
      ],
      "name": "OwnableInvalidOwner",
      "type": "error"
    },
    {
      "inputs": [
        {
          "internalType": "address",
          "name": "account",
          "type": "address"
        }
      ],
      "name": "OwnableUnauthorizedAccount",
      "type": "error"
    },
    {
      "inputs": [],
      "name": "ReentrancyGuardReentrantCall",
      "type": "error"
    },
    {
      "inputs": [
        {
          "internalType": "address",
          "name": "token",
          "type": "address"
        }
      ],
      "name": "SafeERC20FailedOperation",
      "type": "error"
    },
    {
      "anonymous": false,
      "inputs": [
        {
          "indexed": true,
          "internalType": "address",
          "name": "previousOwner",
          "type": "address"
        },
        {
          "indexed": true,
          "internalType": "address",
          "name": "newOwner",
          "type": "address"
        }
      ],
      "name": "OwnershipTransferred",
      "type": "event"
    },
    {
      "anonymous": false,
      "inputs": [
        {
          "indexed": true,
          "internalType": "uint256",
          "name": "id",
          "type": "uint256"
        },
        {
          "indexed": true,
          "internalType": "address",
          "name": "subscriber",
          "type": "address"
        },
        {
          "indexed": true,
          "internalType": "address",
          "name": "merchant",
          "type": "address"
        }
      ],
      "name": "SubscriptionCancelled",
      "type": "event"
    },
    {
      "anonymous": false,
      "inputs": [
        {
          "indexed": true,
          "internalType": "uint256",
          "name": "id",
          "type": "uint256"
        },
        {
          "indexed": true,
          "internalType": "address",
          "name": "subscriber",
          "type": "address"
        },
        {
          "indexed": true,
          "internalType": "address",
          "name": "merchant",
          "type": "address"
        },
        {
          "indexed": false,
          "internalType": "address",
          "name": "token",
          "type": "address"
        },
        {
          "indexed": false,
          "internalType": "uint256",
          "name": "amount",
          "type": "uint256"
        },
        {
          "indexed": false,
          "internalType": "uint256",
          "name": "interval",
          "type": "uint256"
        },
        {
          "indexed": false,
          "internalType": "uint256",
          "name": "nextPaymentDue",
          "type": "uint256"
        }
      ],
      "name": "SubscriptionCreated",
      "type": "event"
    },
    {
      "anonymous": false,
      "inputs": [
        {
          "indexed": true,
          "internalType": "uint256",
          "name": "id",
          "type": "uint256"
        },
        {
          "indexed": true,
          "internalType": "address",
          "name": "subscriber",
          "type": "address"
        },
        {
          "indexed": true,
          "internalType": "address",
          "name": "merchant",
          "type": "address"
        },
        {
          "indexed": false,
          "internalType": "address",
          "name": "token",
          "type": "address"
        },
        {
          "indexed": false,
          "internalType": "uint256",
          "name": "amount",
          "type": "uint256"
        },
        {
          "indexed": false,
          "internalType": "uint256",
          "name": "nextPaymentDue",
          "type": "uint256"
        }
      ],
      "name": "SubscriptionExecuted",
      "type": "event"
    },
    {
      "anonymous": false,
      "inputs": [
        {
          "indexed": true,
          "internalType": "uint256",
          "name": "id",
          "type": "uint256"
        },
        {
          "indexed": true,
          "internalType": "address",
          "name": "subscriber",
          "type": "address"
        },
        {
          "indexed": true,
          "internalType": "address",
          "name": "merchant",
          "type": "address"
        },
        {
          "indexed": false,
          "internalType": "address",
          "name": "token",
          "type": "address"
        },
        {
          "indexed": false,
          "internalType": "uint256",
          "name": "amount",
          "type": "uint256"
        },
        {
          "indexed": false,
          "internalType": "string",
          "name": "reason",
          "type": "string"
        }
      ],
      "name": "SubscriptionFailed",
      "type": "event"
    },
    {
      "inputs": [
        {
          "internalType": "uint256",
          "name": "id",
          "type": "uint256"
        }
      ],
      "name": "cancelSubscription",
      "outputs": [],
      "stateMutability": "nonpayable",
      "type": "function"
    },
    {
      "inputs": [
        {
          "internalType": "address",
          "name": "merchant",
          "type": "address"
        },
        {
          "internalType": "address",
          "name": "token",
          "type": "address"
        },
        {
          "internalType": "uint256",
          "name": "amount",
          "type": "uint256"
        },
        {
          "internalType": "uint256",
          "name": "intervalSeconds",
          "type": "uint256"
        }
      ],
      "name": "createSubscription",
      "outputs": [
        {
          "internalType": "uint256",
          "name": "id",
          "type": "uint256"
        }
      ],
      "stateMutability": "nonpayable",
      "type": "function"
    },
    {
      "inputs": [
        {
          "internalType": "uint256",
          "name": "id",
          "type": "uint256"
        }
      ],
      "name": "executeSubscription",
      "outputs": [],
      "stateMutability": "payable",
      "type": "function"
    },
    {
      "inputs": [
        {
          "internalType": "uint256",
          "name": "id",
          "type": "uint256"
        }
      ],
      "name": "getSubscription",
      "outputs": [
        {
          "components": [
            {
              "internalType": "uint256",
              "name": "id",
              "type": "uint256"
            },
            {
              "internalType": "address",
              "name": "subscriber",
              "type": "address"
            },
            {
              "internalType": "address",
              "name": "merchant",
              "type": "address"
            },
            {
              "internalType": "address",
              "name": "token",
              "type": "address"
            },
            {
              "internalType": "uint256",
              "name": "amount",
              "type": "uint256"
            },
            {
              "internalType": "uint256",
              "name": "interval",
              "type": "uint256"
            },
            {
              "internalType": "uint256",
              "name": "nextPaymentDue",
              "type": "uint256"
            },
            {
              "internalType": "bool",
              "name": "active",
              "type": "bool"
            }
          ],
          "internalType": "struct OmniPaySubscription.Subscription",
          "name": "subscription",
          "type": "tuple"
        }
      ],
      "stateMutability": "view",
      "type": "function"
    },
    {
      "inputs": [
        {
          "internalType": "address",
          "name": "user",
          "type": "address"
        }
      ],
      "name": "getUserSubscriptions",
      "outputs": [
        {
          "components": [
            {
              "internalType": "uint256",
              "name": "id",
              "type": "uint256"
            },
            {
              "internalType": "address",
              "name": "subscriber",
              "type": "address"
            },
            {
              "internalType": "address",
              "name": "merchant",
              "type": "address"
            },
            {
              "internalType": "address",
              "name": "token",
              "type": "address"
            },
            {
              "internalType": "uint256",
              "name": "amount",
              "type": "uint256"
            },
            {
              "internalType": "uint256",
              "name": "interval",
              "type": "uint256"
            },
            {
              "internalType": "uint256",
              "name": "nextPaymentDue",
              "type": "uint256"
            },
            {
              "internalType": "bool",
              "name": "active",
              "type": "bool"
            }
          ],
          "internalType": "struct OmniPaySubscription.Subscription[]",
          "name": "userSubscriptions",
          "type": "tuple[]"
        }
      ],
      "stateMutability": "view",
      "type": "function"
    },
    {
      "inputs": [],
      "name": "nextId",
      "outputs": [
        {
          "internalType": "uint256",
          "name": "",
          "type": "uint256"
        }
      ],
      "stateMutability": "view",
      "type": "function"
    },
    {
      "inputs": [],
      "name": "notifier",
      "outputs": [
        {
          "internalType": "address",
          "name": "",
          "type": "address"
        }
      ],
      "stateMutability": "view",
      "type": "function"
    },
    {
      "inputs": [],
      "name": "owner",
      "outputs": [
        {
          "internalType": "address",
          "name": "",
          "type": "address"
        }
      ],
      "stateMutability": "view",
      "type": "function"
    },
    {
      "inputs": [],
      "name": "renounceOwnership",
      "outputs": [],
      "stateMutability": "nonpayable",
      "type": "function"
    },
    {
      "inputs": [
        {
          "internalType": "address",
          "name": "_notifier",
          "type": "address"
        }
      ],
      "name": "setNotifier",
      "outputs": [],
      "stateMutability": "nonpayable",
      "type": "function"
    },
    {
      "inputs": [
        {
          "internalType": "uint256",
          "name": "",
          "type": "uint256"
        }
      ],
      "name": "subscriptions",
      "outputs": [
        {
          "internalType": "uint256",
          "name": "id",
          "type": "uint256"
        },
        {
          "internalType": "address",
          "name": "subscriber",
          "type": "address"
        },
        {
          "internalType": "address",
          "name": "merchant",
          "type": "address"
        },
        {
          "internalType": "address",
          "name": "token",
          "type": "address"
        },
        {
          "internalType": "uint256",
          "name": "amount",
          "type": "uint256"
        },
        {
          "internalType": "uint256",
          "name": "interval",
          "type": "uint256"
        },
        {
          "internalType": "uint256",
          "name": "nextPaymentDue",
          "type": "uint256"
        },
        {
          "internalType": "bool",
          "name": "active",
          "type": "bool"
        }
      ],
      "stateMutability": "view",
      "type": "function"
    },
    {
      "inputs": [
        {
          "internalType": "address",
          "name": "newOwner",
          "type": "address"
        }
      ],
      "name": "transferOwnership",
      "outputs": [],
      "stateMutability": "nonpayable",
      "type": "function"
    }
  ],
  "bytecode": "0x6080604052600160025534801561001557600080fd5b506040516111d63803806111d6833981016040819052610034916100dd565b338061005a57604051631e4fbdf760e01b81526000600482015260240160405180910390fd5b6100638161008d565b5060018055600480546001600160a01b0319166001600160a01b039290921691909117905561010d565b600080546001600160a01b038381166001600160a01b0319831681178455604051919092169283917f8be0079c531659141344cd1fd0a4f28419497f9722a3daafe3b4186f6b6457e09190a35050565b6000602082840312156100ef57600080fd5b81516001600160a01b038116811461010657600080fd5b9392505050565b6110ba8061011c6000396000f3fe6080604052600436106100a75760003560e01c80638da5cb5b116100645780638da5cb5b1461022f5780638de8b9001461024d578063abbb46951461026d578063dc311dd31461028d578063e8903656146102ba578063f2fde38b146102cd57600080fd5b806309276ea4146100ac57806321235083146100e95780632d5bbf601461010b5780632e6ca588146101c957806361b8ce8c146101f6578063715018a61461021a575b600080fd5b3480156100b857600080fd5b506004546100cc906001600160a01b031681565b6040516001600160a01b0390911681526020015b60405180910390f35b3480156100f557600080fd5b50610109610104366004610eb9565b6102ed565b005b34801561011757600080fd5b5061017d610126366004610eb9565b60036020819052600091825260409091208054600182015460028301549383015460048401546005850154600686015460079096015494966001600160a01b03948516969085169594909316939192909160ff1688565b604080519889526001600160a01b0397881660208a015295871695880195909552949092166060860152608085015260a084015260c0830191909152151560e0820152610100016100e0565b3480156101d557600080fd5b506101e96101e4366004610eee565b61046b565b6040516100e09190610f70565b34801561020257600080fd5b5061020c60025481565b6040519081526020016100e0565b34801561022657600080fd5b5061010961060b565b34801561023b57600080fd5b506000546001600160a01b03166100cc565b34801561025957600080fd5b5061020c610268366004610fbf565b61061f565b34801561027957600080fd5b50610109610288366004610eee565b610859565b34801561029957600080fd5b506102ad6102a8366004610eb9565b610883565b6040516100e09190611001565b6101096102c8366004610eb9565b610966565b3480156102d957600080fd5b506101096102e8366004610eee565b610ca4565b6000818152600360205260409020600781015460ff166103475760405162461bcd60e51b815260206004820152601060248201526f416c726561647920696e61637469766560801b60448201526064015b60405180910390fd5b60018101546001600160a01b031633146103955760405162461bcd60e51b815260206004820152600f60248201526e27b7363c9039bab139b1b934b132b960891b604482015260640161033e565b60078101805460ff19169055600281015460018201546040516001600160a01b03928316929091169084907f8b143fab101681a84d31f59bde0822fdc5f999c709e0f1e85b0916c6ddc5bc5990600090a46004546001600160a01b031615610467576004805460018301546002840154604051636b7ce08160e01b81529384018690526001600160a01b039182166024850152811660448401521690636b7ce08190606401600060405180830381600087803b15801561045457600080fd5b505af1925050508015610465575060015b505b5050565b6060600060015b6002548110156104c0576000818152600360205260409020600101546001600160a01b038086169116036104ae57816104aa8161102c565b9250505b806104b88161102c565b915050610472565b508067ffffffffffffffff8111156104da576104da611045565b60405190808252806020026020018201604052801561051357816020015b610500610e57565b8152602001906001900390816104f85790505b509150600060015b600254811015610603576000818152600360205260409020600101546001600160a01b038087169116036105f1576000818152600360208181526040928390208351610100810185528154815260018201546001600160a01b039081169382019390935260028201548316948101949094529182015416606083015260048101546080830152600581015460a0830152600681015460c08301526007015460ff16151560e082015284518590849081106105d7576105d761105b565b602002602001018190525081806105ed9061102c565b9250505b806105fb8161102c565b91505061051b565b505050919050565b610613610cdf565b61061d6000610d0c565b565b60006001600160a01b03851661066a5760405162461bcd60e51b815260206004820152601060248201526f125b9d985b1a59081b595c98da185b9d60821b604482015260640161033e565b600083116106a75760405162461bcd60e51b815260206004820152600a6024820152690416d6f756e74203d20360b41b604482015260640161033e565b603c8210156106ed5760405162461bcd60e51b8152602060048201526012602482015271125b9d195c9d985b081d1bdbc81cda1bdc9d60721b604482015260640161033e565b600280549060006106fd8361102c565b919050559050604051806101000160405280828152602001336001600160a01b03168152602001866001600160a01b03168152602001856001600160a01b03168152602001848152602001838152602001834261075a9190611071565b81526001602091820181905260008481526003808452604091829020855181558585015193810180546001600160a01b03199081166001600160a01b03968716179091558684015160028301805483169187169190911790556060808801519383018054909216938616939093179055608080870151600483015560a0870151600583015560c08701516006830181905560e0909701516007909201805460ff19169215159290921790915582518a85168152948501899052918401879052830193909352871691339184917f3a1d21bece43c85b5a9afdb7ec13187791f0d64dec190a38b6fb0ea242cf49bf910160405180910390a4949350505050565b610861610cdf565b600480546001600160a01b0319166001600160a01b0392909216919091179055565b61088b610e57565b60008211801561089c575060025482105b6108e85760405162461bcd60e51b815260206004820152601760248201527f496e76616c696420737562736372697074696f6e204944000000000000000000604482015260640161033e565b506000908152600360208181526040928390208351610100810185528154815260018201546001600160a01b039081169382019390935260028201548316948101949094529182015416606083015260048101546080830152600581015460a0830152600681015460c08301526007015460ff16151560e082015290565b61096e610d5c565b6000818152600360205260409020600781015460ff166109bb5760405162461bcd60e51b8152602060048201526008602482015267496e61637469766560c01b604482015260640161033e565b60018101546001600160a01b03163314610a095760405162461bcd60e51b815260206004820152600f60248201526e27b7363c9039bab139b1b934b132b960891b604482015260640161033e565b8060060154421015610a475760405162461bcd60e51b81526020600482015260076024820152664e6f742064756560c81b604482015260640161033e565b60038101546001600160a01b0316610b485780600401543414610aa35760405162461bcd60e51b8152602060048201526014602482015273125b98dbdc9c9958dd0811551208185b5bdd5b9d60621b604482015260640161033e565b600281015460048201546040516000926001600160a01b031691908381818185875af1925050503d8060008114610af6576040519150601f19603f3d011682016040523d82523d6000602084013e610afb565b606091505b5050905080610b425760405162461bcd60e51b8152602060048201526013602482015272115512081d1c985b9cd9995c8819985a5b1959606a1b604482015260640161033e565b50610b78565b6001810154600282015460048301546003840154610b78936001600160a01b039182169390821692911690610d86565b6005810154610b879042611071565b600682018190556002820154600183015460038401546004850154604080516001600160a01b03938416815260208101929092528101949094529182169291169084907f382da987c537ddd3bb60966d3607c14100d418d0fe9102d36803f333d69208509060600160405180910390a46004546001600160a01b031615610c9757600480546001830154600284015460038501548585015460068701546040516205e18160e11b81529687018990526001600160a01b03948516602488015292841660448701529083166064860152608485015260a48401521690620bc3029060c401600060405180830381600087803b158015610c8457600080fd5b505af1925050508015610c95575060015b505b50610ca160018055565b50565b610cac610cdf565b6001600160a01b038116610cd657604051631e4fbdf760e01b81526000600482015260240161033e565b610ca181610d0c565b6000546001600160a01b0316331461061d5760405163118cdaa760e01b815233600482015260240161033e565b600080546001600160a01b038381166001600160a01b0319831681178455604051919092169283917f8be0079c531659141344cd1fd0a4f28419497f9722a3daafe3b4186f6b6457e09190a35050565b600260015403610d7f57604051633ee5aeb560e01b815260040160405180910390fd5b6002600155565b604080516001600160a01b0385811660248301528416604482015260648082018490528251808303909101815260849091019091526020810180516001600160e01b03166323b872dd60e01b179052610de0908590610de6565b50505050565b600080602060008451602086016000885af180610e09576040513d6000823e3d81fd5b50506000513d91508115610e21578060011415610e2e565b6001600160a01b0384163b155b15610de057604051635274afe760e01b81526001600160a01b038516600482015260240161033e565b6040518061010001604052806000815260200160006001600160a01b0316815260200160006001600160a01b0316815260200160006001600160a01b031681526020016000815260200160008152602001600081526020016000151581525090565b600060208284031215610ecb57600080fd5b5035919050565b80356001600160a01b0381168114610ee957600080fd5b919050565b600060208284031215610f0057600080fd5b610f0982610ed2565b9392505050565b80518252602081015160018060a01b03808216602085015280604084015116604085015280606084015116606085015250506080810151608083015260a081015160a083015260c081015160c083015260e0810151151560e08301525050565b6020808252825182820181905260009190848201906040850190845b81811015610fb357610f9f838551610f10565b928401926101009290920191600101610f8c565b50909695505050505050565b60008060008060808587031215610fd557600080fd5b610fde85610ed2565b9350610fec60208601610ed2565b93969395505050506040820135916060013590565b61010081016110108284610f10565b92915050565b634e487b7160e01b600052601160045260246000fd5b60006001820161103e5761103e611016565b5060010190565b634e487b7160e01b600052604160045260246000fd5b634e487b7160e01b600052603260045260246000fd5b808201808211156110105761101061101656fea26469706673582212208bc8c10bdf36b44ae464bd24f93b86ef028de9fcc8e8105aec024eb23418f4ce64736f6c63430008140033",
  "linkReferences": {},
  "deployedLinkReferences": {}
}