{
  "_format": "hh-sol-artifact-1",
  "contractName": "OmniPayBridgeStub",
  "sourceName": "contracts/OmniPayBridgeStub.sol",
  "abi": [
    {
      "anonymous": false,
      "inputs": [
        {
          "indexed": true,
          "internalType": "uint256",
          "name": "localTxId",
          "type": "uint256"
        },
        {
          "indexed": true,
          "internalType": "address",
          "name": "payer",
          "type": "address"
        },
        {
          "indexed": true,
          "internalType": "address",
          "name": "payee",
          "type": "address"
        },
        {
          "indexed": false,
          "internalType": "address",
          "name": "token",
          "type": "address"
        },
        {
          "indexed": false,
          "internalType": "uint256",
          "name": "amount",
          "type": "uint256"
        },
        {
          "indexed": false,
          "internalType": "string",
          "name": "sourceChain",
          "type": "string"
        },
        {
          "indexed": false,
          "internalType": "string",
          "name": "paymentRef",
          "type": "string"
        }
      ],
      "name": "CrossChainPaymentCompleted",
      "type": "event"
    },
    {
      "anonymous": false,
      "inputs": [
        {
          "indexed": true,
          "internalType": "uint256",
          "name": "localTxId",
          "type": "uint256"
        },
        {
          "indexed": true,
          "internalType": "address",
          "name": "payer",
          "type": "address"
        },
        {
          "indexed": true,
          "internalType": "address",
          "name": "payee",
          "type": "address"
        },
        {
          "indexed": false,
          "internalType": "address",
          "name": "token",
          "type": "address"
        },
        {
          "indexed": false,
          "internalType": "uint256",
          "name": "amount",
          "type": "uint256"
        },
        {
          "indexed": false,
          "internalType": "string",
          "name": "targetChain",
          "type": "string"
        },
        {
          "indexed": false,
          "internalType": "string",
          "name": "paymentRef",
          "type": "string"
        }
      ],
      "name": "CrossChainPaymentInitiated",
      "type": "event"
    },
    {
      "anonymous": false,
      "inputs": [
        {
          "indexed": true,
          "internalType": "address",
          "name": "previousOwner",
          "type": "address"
        },
        {
          "indexed": true,
          "internalType": "address",
          "name": "newOwner",
          "type": "address"
        }
      ],
      "name": "OwnershipTransferred",
      "type": "event"
    },
    {
      "inputs": [
        {
          "internalType": "uint256",
          "name": "localTxId",
          "type": "uint256"
        },
        {
          "internalType": "address",
          "name": "payer",
          "type": "address"
        },
        {
          "internalType": "address",
          "name": "payee",
          "type": "address"
        },
        {
          "internalType": "address",
          "name": "token",
          "type": "address"
        },
        {
          "internalType": "uint256",
          "name": "amount",
          "type": "uint256"
        },
        {
          "internalType": "string",
          "name": "sourceChain",
          "type": "string"
        },
        {
          "internalType": "string",
          "name": "paymentRef",
          "type": "string"
        }
      ],
      "name": "completeCrossChainPayment",
      "outputs": [],
      "stateMutability": "nonpayable",
      "type": "function"
    },
    {
      "inputs": [
        {
          "internalType": "uint256",
          "name": "localTxId",
          "type": "uint256"
        },
        {
          "internalType": "address",
          "name": "payer",
          "type": "address"
        },
        {
          "internalType": "address",
          "name": "payee",
          "type": "address"
        },
        {
          "internalType": "address",
          "name": "token",
          "type": "address"
        },
        {
          "internalType": "uint256",
          "name": "amount",
          "type": "uint256"
        },
        {
          "internalType": "string",
          "name": "targetChain",
          "type": "string"
        },
        {
          "internalType": "string",
          "name": "paymentRef",
          "type": "string"
        }
      ],
      "name": "initiateCrossChainPayment",
      "outputs": [],
      "stateMutability": "nonpayable",
      "type": "function"
    },
    {
      "inputs": [],
      "name": "owner",
      "outputs": [
        {
          "internalType": "address",
          "name": "",
          "type": "address"
        }
      ],
      "stateMutability": "view",
      "type": "function"
    },
    {
      "inputs": [],
      "name": "renounceOwnership",
      "outputs": [],
      "stateMutability": "nonpayable",
      "type": "function"
    },
    {
      "inputs": [
        {
          "internalType": "address",
          "name": "newOwner",
          "type": "address"
        }
      ],
      "name": "transferOwnership",
      "outputs": [],
      "stateMutability": "nonpayable",
      "type": "function"
    }
  ],
  "bytecode": "0x608060405234801561001057600080fd5b5061001a3361001f565b61006f565b600080546001600160a01b038381166001600160a01b0319831681178455604051919092169283917f8be0079c531659141344cd1fd0a4f28419497f9722a3daafe3b4186f6b6457e09190a35050565b61049e8061007e6000396000f3fe608060405234801561001057600080fd5b50600436106100575760003560e01c80633aeed6011461005c578063715018a6146100715780637cddb179146100795780638da5cb5b1461008c578063f2fde38b146100ab575b600080fd5b61006f61006a36600461031e565b6100be565b005b61006f610127565b61006f61008736600461031e565b61013b565b600054604080516001600160a01b039092168252519081900360200190f35b61006f6100b93660046103d5565b610191565b6100c661020f565b866001600160a01b0316886001600160a01b03168a7f0fd37b33549d14c544a77ad689c9c94ecf1284035bbd28888ba723151a317c5889898989898960405161011496959493929190610420565b60405180910390a4505050505050505050565b61012f61020f565b6101396000610269565b565b61014361020f565b866001600160a01b0316886001600160a01b03168a7f8a559d5556b22ba17abdd78c798f613b03e394ffd32f57d0e197d8443e038cae89898989898960405161011496959493929190610420565b61019961020f565b6001600160a01b0381166102035760405162461bcd60e51b815260206004820152602660248201527f4f776e61626c653a206e6577206f776e657220697320746865207a65726f206160448201526564647265737360d01b60648201526084015b60405180910390fd5b61020c81610269565b50565b6000546001600160a01b031633146101395760405162461bcd60e51b815260206004820181905260248201527f4f776e61626c653a2063616c6c6572206973206e6f7420746865206f776e657260448201526064016101fa565b600080546001600160a01b038381166001600160a01b0319831681178455604051919092169283917f8be0079c531659141344cd1fd0a4f28419497f9722a3daafe3b4186f6b6457e09190a35050565b80356001600160a01b03811681146102d057600080fd5b919050565b60008083601f8401126102e757600080fd5b50813567ffffffffffffffff8111156102ff57600080fd5b60208301915083602082850101111561031757600080fd5b9250929050565b600080600080600080600080600060e08a8c03121561033c57600080fd5b8935985061034c60208b016102b9565b975061035a60408b016102b9565b965061036860608b016102b9565b955060808a0135945060a08a013567ffffffffffffffff8082111561038c57600080fd5b6103988d838e016102d5565b909650945060c08c01359150808211156103b157600080fd5b506103be8c828d016102d5565b915080935050809150509295985092959850929598565b6000602082840312156103e757600080fd5b6103f0826102b9565b9392505050565b81835281816020850137506000828201602090810191909152601f909101601f19169091010190565b60018060a01b03871681528560208201526080604082015260006104486080830186886103f7565b828103606084015261045b8185876103f7565b999850505050505050505056fea264697066735822122028c84d1b4afe14a6afd2300c0e923ebcdb2334df867c887c53a9258be48b1a4664736f6c63430008140033",
  "linkReferences": {},
  "deployedLinkReferences": {}
}