{
  "_format": "hh-sol-artifact-1",
  "contractName": "OmniPayNotifier",
  "sourceName": "contracts/OmniPayNotifier.sol",
  "abi": [
    {
      "inputs": [
        {
          "internalType": "address",
          "name": "_pushComm",
          "type": "address"
        },
        {
          "internalType": "address",
          "name": "_channel",
          "type": "address"
        }
      ],
      "stateMutability": "nonpayable",
      "type": "constructor"
    },
    {
      "anonymous": false,
      "inputs": [
        {
          "indexed": true,
          "internalType": "uint256",
          "name": "subId",
          "type": "uint256"
        },
        {
          "indexed": true,
          "internalType": "address",
          "name": "subscriber",
          "type": "address"
        },
        {
          "indexed": true,
          "internalType": "address",
          "name": "merchant",
          "type": "address"
        },
        {
          "indexed": false,
          "internalType": "uint256",
          "name": "amount",
          "type": "uint256"
        },
        {
          "indexed": false,
          "internalType": "uint256",
          "name": "nextPaymentDue",
          "type": "uint256"
        }
      ],
      "name": "BeforeRenewal",
      "type": "event"
    },
    {
      "anonymous": false,
      "inputs": [
        {
          "indexed": true,
          "internalType": "address",
          "name": "pushComm",
          "type": "address"
        },
        {
          "indexed": true,
          "internalType": "address",
          "name": "channel",
          "type": "address"
        }
      ],
      "name": "NotifierConfigured",
      "type": "event"
    },
    {
      "anonymous": false,
      "inputs": [
        {
          "indexed": true,
          "internalType": "address",
          "name": "previousOwner",
          "type": "address"
        },
        {
          "indexed": true,
          "internalType": "address",
          "name": "newOwner",
          "type": "address"
        }
      ],
      "name": "OwnershipTransferred",
      "type": "event"
    },
    {
      "anonymous": false,
      "inputs": [
        {
          "indexed": true,
          "internalType": "address",
          "name": "payer",
          "type": "address"
        },
        {
          "indexed": true,
          "internalType": "address",
          "name": "payee",
          "type": "address"
        },
        {
          "indexed": true,
          "internalType": "address",
          "name": "token",
          "type": "address"
        },
        {
          "indexed": false,
          "internalType": "uint256",
          "name": "amount",
          "type": "uint256"
        },
        {
          "indexed": false,
          "internalType": "string",
          "name": "paymentRef",
          "type": "string"
        },
        {
          "indexed": false,
          "internalType": "string",
          "name": "reason",
          "type": "string"
        }
      ],
      "name": "PaymentFailure",
      "type": "event"
    },
    {
      "anonymous": false,
      "inputs": [
        {
          "indexed": true,
          "internalType": "address",
          "name": "payer",
          "type": "address"
        },
        {
          "indexed": true,
          "internalType": "address",
          "name": "payee",
          "type": "address"
        },
        {
          "indexed": true,
          "internalType": "address",
          "name": "token",
          "type": "address"
        },
        {
          "indexed": false,
          "internalType": "uint256",
          "name": "amount",
          "type": "uint256"
        },
        {
          "indexed": false,
          "internalType": "string",
          "name": "paymentRef",
          "type": "string"
        }
      ],
      "name": "PaymentSuccess",
      "type": "event"
    },
    {
      "anonymous": false,
      "inputs": [
        {
          "indexed": true,
          "internalType": "address",
          "name": "recipient",
          "type": "address"
        },
        {
          "indexed": false,
          "internalType": "bool",
          "name": "success",
          "type": "bool"
        },
        {
          "indexed": false,
          "internalType": "bytes",
          "name": "identity",
          "type": "bytes"
        }
      ],
      "name": "PushAttempt",
      "type": "event"
    },
    {
      "anonymous": false,
      "inputs": [
        {
          "indexed": true,
          "internalType": "uint256",
          "name": "subId",
          "type": "uint256"
        },
        {
          "indexed": true,
          "internalType": "address",
          "name": "subscriber",
          "type": "address"
        },
        {
          "indexed": true,
          "internalType": "address",
          "name": "merchant",
          "type": "address"
        }
      ],
      "name": "SubscriptionCancelled",
      "type": "event"
    },
    {
      "anonymous": false,
      "inputs": [
        {
          "indexed": true,
          "internalType": "uint256",
          "name": "subId",
          "type": "uint256"
        },
        {
          "indexed": true,
          "internalType": "address",
          "name": "subscriber",
          "type": "address"
        },
        {
          "indexed": true,
          "internalType": "address",
          "name": "merchant",
          "type": "address"
        },
        {
          "indexed": false,
          "internalType": "address",
          "name": "token",
          "type": "address"
        },
        {
          "indexed": false,
          "internalType": "uint256",
          "name": "amount",
          "type": "uint256"
        },
        {
          "indexed": false,
          "internalType": "uint256",
          "name": "nextPaymentDue",
          "type": "uint256"
        }
      ],
      "name": "SubscriptionExecuted",
      "type": "event"
    },
    {
      "inputs": [],
      "name": "channel",
      "outputs": [
        {
          "internalType": "address",
          "name": "",
          "type": "address"
        }
      ],
      "stateMutability": "view",
      "type": "function"
    },
    {
      "inputs": [
        {
          "internalType": "uint256",
          "name": "subId",
          "type": "uint256"
        },
        {
          "internalType": "address",
          "name": "subscriber",
          "type": "address"
        },
        {
          "internalType": "address",
          "name": "merchant",
          "type": "address"
        },
        {
          "internalType": "uint256",
          "name": "amount",
          "type": "uint256"
        },
        {
          "internalType": "uint256",
          "name": "nextPaymentDue",
          "type": "uint256"
        }
      ],
      "name": "notifyBeforeRenewal",
      "outputs": [],
      "stateMutability": "nonpayable",
      "type": "function"
    },
    {
      "inputs": [
        {
          "internalType": "address",
          "name": "payer",
          "type": "address"
        },
        {
          "internalType": "address",
          "name": "payee",
          "type": "address"
        },
        {
          "internalType": "address",
          "name": "token",
          "type": "address"
        },
        {
          "internalType": "uint256",
          "name": "amount",
          "type": "uint256"
        },
        {
          "internalType": "string",
          "name": "paymentRef",
          "type": "string"
        },
        {
          "internalType": "string",
          "name": "reason",
          "type": "string"
        }
      ],
      "name": "notifyPaymentFailure",
      "outputs": [],
      "stateMutability": "nonpayable",
      "type": "function"
    },
    {
      "inputs": [
        {
          "internalType": "address",
          "name": "payer",
          "type": "address"
        },
        {
          "internalType": "address",
          "name": "payee",
          "type": "address"
        },
        {
          "internalType": "address",
          "name": "token",
          "type": "address"
        },
        {
          "internalType": "uint256",
          "name": "amount",
          "type": "uint256"
        },
        {
          "internalType": "string",
          "name": "paymentRef",
          "type": "string"
        }
      ],
      "name": "notifyPaymentSuccess",
      "outputs": [],
      "stateMutability": "nonpayable",
      "type": "function"
    },
    {
      "inputs": [
        {
          "internalType": "uint256",
          "name": "subId",
          "type": "uint256"
        },
        {
          "internalType": "address",
          "name": "subscriber",
          "type": "address"
        },
        {
          "internalType": "address",
          "name": "merchant",
          "type": "address"
        }
      ],
      "name": "notifySubscriptionCancelled",
      "outputs": [],
      "stateMutability": "nonpayable",
      "type": "function"
    },
    {
      "inputs": [
        {
          "internalType": "uint256",
          "name": "subId",
          "type": "uint256"
        },
        {
          "internalType": "address",
          "name": "subscriber",
          "type": "address"
        },
        {
          "internalType": "address",
          "name": "merchant",
          "type": "address"
        },
        {
          "internalType": "address",
          "name": "token",
          "type": "address"
        },
        {
          "internalType": "uint256",
          "name": "amount",
          "type": "uint256"
        },
        {
          "internalType": "uint256",
          "name": "nextPaymentDue",
          "type": "uint256"
        }
      ],
      "name": "notifySubscriptionExecuted",
      "outputs": [],
      "stateMutability": "nonpayable",
      "type": "function"
    },
    {
      "inputs": [],
      "name": "owner",
      "outputs": [
        {
          "internalType": "address",
          "name": "",
          "type": "address"
        }
      ],
      "stateMutability": "view",
      "type": "function"
    },
    {
      "inputs": [],
      "name": "pushComm",
      "outputs": [
        {
          "internalType": "contract IPUSHCommInterface",
          "name": "",
          "type": "address"
        }
      ],
      "stateMutability": "view",
      "type": "function"
    },
    {
      "inputs": [],
      "name": "renounceOwnership",
      "outputs": [],
      "stateMutability": "nonpayable",
      "type": "function"
    },
    {
      "inputs": [
        {
          "internalType": "address",
          "name": "_channel",
          "type": "address"
        }
      ],
      "name": "setChannel",
      "outputs": [],
      "stateMutability": "nonpayable",
      "type": "function"
    },
    {
      "inputs": [
        {
          "internalType": "address",
          "name": "_pushComm",
          "type": "address"
        }
      ],
      "name": "setPushComm",
      "outputs": [],
      "stateMutability": "nonpayable",
      "type": "function"
    },
    {
      "inputs": [
        {
          "internalType": "address",
          "name": "newOwner",
          "type": "address"
        }
      ],
      "name": "transferOwnership",
      "outputs": [],
      "stateMutability": "nonpayable",
      "type": "function"
    }
  ],
  "bytecode": "0x608060405234801561001057600080fd5b5060405161107438038061107483398101604081905261002f91610123565b610038336100b7565b6001600160a01b0382161561006357600180546001600160a01b0319166001600160a01b0384161790555b600280546001600160a01b0319166001600160a01b0383811691821790925560405190918416907fdf0272c5e2272d89e8ff394fc4e38be01bdb873515a7ba3f29ede6939fd17a3c90600090a35050610156565b600080546001600160a01b038381166001600160a01b0319831681178455604051919092169283917f8be0079c531659141344cd1fd0a4f28419497f9722a3daafe3b4186f6b6457e09190a35050565b80516001600160a01b038116811461011e57600080fd5b919050565b6000806040838503121561013657600080fd5b61013f83610107565b915061014d60208401610107565b90509250929050565b610f0f806101656000396000f3fe608060405234801561001057600080fd5b50600436106100b35760003560e01c80637bbdb96e116100715780637bbdb96e146101215780638da5cb5b146101505780638ff75d8c14610161578063a5e9b76214610174578063bc61495b14610187578063f2fde38b1461019a57600080fd5b80620bc302146100b85780630ecff21e146100cd57806321c726c7146100e05780632e0eb974146100f35780636b7ce08114610106578063715018a614610119575b600080fd5b6100cb6100c6366004610a6f565b6101ad565b005b6100cb6100db366004610ace565b6102c8565b6100cb6100ee366004610b65565b610391565b6100cb610101366004610c10565b6104cc565b6100cb610114366004610c32565b610525565b6100cb610630565b600254610134906001600160a01b031681565b6040516001600160a01b03909116815260200160405180910390f35b6000546001600160a01b0316610134565b6100cb61016f366004610c10565b610644565b6100cb610182366004610c6e565b61069e565b600154610134906001600160a01b031681565b6100cb6101a8366004610c10565b6107af565b604080516001600160a01b038581168252602082018590529181018390528186169187169088907f382da987c537ddd3bb60966d3607c14100d418d0fe9102d36803f333d69208509060600160405180910390a46102728561026d6040518060400160405280601181526020017014dd589cd8dc9a5c1d1a5bdb8814185a59607a1b8152506040518060400160405280601e81526020017f596f757220737562736372697074696f6e2077617320636861726765642e000081525061082d565b61085c565b6102c08461026d6040518060400160405280601081526020016f14185e5b595b9d08149958d95a5d995960821b815250604051806060016040528060248152602001610e686024913961082d565b505050505050565b826001600160a01b0316846001600160a01b0316867f891873c245759b71b614be67d4a1284cb5e122d828af84aeefb68ba1122a1c9e8585604051610317929190918252602082015260400190565b60405180910390a461038a8461026d6040518060400160405280601081526020016f52656e6577616c207570636f6d696e6760801b8152506040518060400160405280601e81526020017f596f757220737562736372697074696f6e2069732064756520736f6f6e2e000081525061082d565b5050505050565b856001600160a01b0316876001600160a01b0316896001600160a01b03167fc26692ab7eede0829cb931f5593d1d26e42428370601a2f8cb4b2cf94312729588888888886040516103e6959493929190610d16565b60405180910390a46104588861026d6040518060400160405280600e81526020016d14185e5b595b9d0811985a5b195960921b81525085858080601f01602080910402602001604051908101604052809392919081815260200183838082843760009201919091525061082d92505050565b6104c28761026d6040518060400160405280600e81526020016d14185e5b595b9d0811985a5b195960921b81525085858080601f01602080910402602001604051908101604052809392919081815260200183838082843760009201919091525061082d92505050565b5050505050505050565b6104d46109a9565b600180546001600160a01b0319166001600160a01b038381169182179092556002546040519216917fdf0272c5e2272d89e8ff394fc4e38be01bdb873515a7ba3f29ede6939fd17a3c90600090a350565b806001600160a01b0316826001600160a01b0316847f8b143fab101681a84d31f59bde0822fdc5f999c709e0f1e85b0916c6ddc5bc5960405160405180910390a46105d78261026d6040518060400160405280601681526020017514dd589cd8dc9a5c1d1a5bdb8810d85b98d95b1b195960521b8152506040518060400160405280602081526020017f596f752063616e63656c6c656420796f757220737562736372697074696f6e2e81525061082d565b61062b8161026d6040518060400160405280601681526020017514dd589cd8dc9a5c1d1a5bdb8810d85b98d95b1b195960521b8152506040518060600160405280602a8152602001610eb0602a913961082d565b505050565b6106386109a9565b6106426000610a03565b565b61064c6109a9565b600280546001600160a01b0319166001600160a01b03838116918217909255600154604051919216907fdf0272c5e2272d89e8ff394fc4e38be01bdb873515a7ba3f29ede6939fd17a3c90600090a350565b836001600160a01b0316856001600160a01b0316876001600160a01b03167fe35b501a850ee55332bf338c3bd20d0f8add9a9b249d72be7fdb379ac4f330038686866040516106ef93929190610d4f565b60405180910390a46107448661026d6040518060400160405280600f81526020016e5061796d656e74205375636365737360881b815250604051806060016040528060248152602001610e8c6024913961082d565b6102c08561026d6040518060400160405280601081526020016f14185e5b595b9d08149958d95a5d995960821b8152506040518060400160405280601781526020017f596f752072656365697665642061207061796d656e742e00000000000000000081525061082d565b6107b76109a9565b6001600160a01b0381166108215760405162461bcd60e51b815260206004820152602660248201527f4f776e61626c653a206e6577206f776e657220697320746865207a65726f206160448201526564647265737360d01b60648201526084015b60405180910390fd5b61082a81610a03565b50565b606060008383604051602001610844929190610d96565b60408051808303601f19018152919052949350505050565b6001546001600160a01b0316158061087d57506002546001600160a01b0316155b156108ca57816001600160a01b03167faf99e2609b71c1f59d4a76b96f586eab13857bdde73b3f1a6cc634ee401cb3be6000836040516108be929190610e18565b60405180910390a25050565b60015460025460405163ba3d69d760e01b81526001600160a01b039283169263ba3d69d7926109029291169086908690600401610e3b565b600060405180830381600087803b15801561091c57600080fd5b505af192505050801561092d575060015b61096d57816001600160a01b03167faf99e2609b71c1f59d4a76b96f586eab13857bdde73b3f1a6cc634ee401cb3be6000836040516108be929190610e18565b816001600160a01b03167faf99e2609b71c1f59d4a76b96f586eab13857bdde73b3f1a6cc634ee401cb3be6001836040516108be929190610e18565b6000546001600160a01b031633146106425760405162461bcd60e51b815260206004820181905260248201527f4f776e61626c653a2063616c6c6572206973206e6f7420746865206f776e65726044820152606401610818565b600080546001600160a01b038381166001600160a01b0319831681178455604051919092169283917f8be0079c531659141344cd1fd0a4f28419497f9722a3daafe3b4186f6b6457e09190a35050565b80356001600160a01b0381168114610a6a57600080fd5b919050565b60008060008060008060c08789031215610a8857600080fd5b86359550610a9860208801610a53565b9450610aa660408801610a53565b9350610ab460608801610a53565b92506080870135915060a087013590509295509295509295565b600080600080600060a08688031215610ae657600080fd5b85359450610af660208701610a53565b9350610b0460408701610a53565b94979396509394606081013594506080013592915050565b60008083601f840112610b2e57600080fd5b50813567ffffffffffffffff811115610b4657600080fd5b602083019150836020828501011115610b5e57600080fd5b9250929050565b60008060008060008060008060c0898b031215610b8157600080fd5b610b8a89610a53565b9750610b9860208a01610a53565b9650610ba660408a01610a53565b955060608901359450608089013567ffffffffffffffff80821115610bca57600080fd5b610bd68c838d01610b1c565b909650945060a08b0135915080821115610bef57600080fd5b50610bfc8b828c01610b1c565b999c989b5096995094979396929594505050565b600060208284031215610c2257600080fd5b610c2b82610a53565b9392505050565b600080600060608486031215610c4757600080fd5b83359250610c5760208501610a53565b9150610c6560408501610a53565b90509250925092565b60008060008060008060a08789031215610c8757600080fd5b610c9087610a53565b9550610c9e60208801610a53565b9450610cac60408801610a53565b935060608701359250608087013567ffffffffffffffff811115610ccf57600080fd5b610cdb89828a01610b1c565b979a9699509497509295939492505050565b81835281816020850137506000828201602090810191909152601f909101601f19169091010190565b858152606060208201526000610d30606083018688610ced565b8281036040840152610d43818587610ced565b98975050505050505050565b838152604060208201526000610d69604083018486610ced565b95945050505050565b60005b83811015610d8d578181015183820152602001610d75565b50506000910152565b663a34ba36329d1d60c91b815260008351610db8816007850160208801610d72565b673e3e3137b23c9d1d60c11b6007918401918201528351610de081600f840160208801610d72565b01600f01949350505050565b60008151808452610e04816020860160208601610d72565b601f01601f19169290920160200192915050565b8215158152604060208201526000610e336040830184610dec565b949350505050565b6001600160a01b03848116825283166020820152606060408201819052600090610d6990830184610dec56fe4120737562736372697074696f6e207061796d656e74207761732072656365697665642e596f7572207061796d656e7420636f6d706c65746564207375636365737366756c6c792e4120737562736372696265722063616e63656c6c656420746865697220737562736372697074696f6e2ea2646970667358221220bdc3d14671e7d1db3ffd1ca7a160589a35ad0d2eb824f15887a25bc9b18c3a5b64736f6c63430008140033",
  "linkReferences": {},
  "deployedLinkReferences": {}
}